{
	"data": {
		"bytecode": {
			"linkReferences": {},
			"object": "608060405234801561000f575f80fd5b506104278061001d5f395ff3fe608060405234801561000f575f80fd5b506004361061003f575f3560e01c80631e0104391461004357806358453fef14610073578063e00c04ac1461008f575b5f80fd5b61005d60048036038101906100589190610220565b6100ab565b60405161006a919061025a565b60405180910390f35b61008d60048036038101906100889190610273565b6100c7565b005b6100a960048036038101906100a49190610273565b610157565b005b5f805f8381526020019081526020015f20600101549050919050565b805f808481526020019081526020015f2060010154101561011d576040517f08c379a00000000000000000000000000000000000000000000000000000000081526004016101149061030b565b60405180910390fd5b805f808481526020019081526020015f206001015461013c9190610356565b5f808481526020019081526020015f20600101819055505050565b815f808481526020019081526020015f205f0154036101ab576040517f08c379a00000000000000000000000000000000000000000000000000000000081526004016101a2906103d3565b60405180910390fd5b6040518060400160405280838152602001828152505f808481526020019081526020015f205f820151815f0155602082015181600101559050505050565b5f80fd5b5f819050919050565b6101ff816101ed565b8114610209575f80fd5b50565b5f8135905061021a816101f6565b92915050565b5f60208284031215610235576102346101e9565b5b5f6102428482850161020c565b91505092915050565b610254816101ed565b82525050565b5f60208201905061026d5f83018461024b565b92915050565b5f8060408385031215610289576102886101e9565b5b5f6102968582860161020c565b92505060206102a78582860161020c565b9150509250929050565b5f82825260208201905092915050565b7f42616c616e6365206e6f742073756666696369656e74000000000000000000005f82015250565b5f6102f56016836102b1565b9150610300826102c1565b602082019050919050565b5f6020820190508181035f830152610322816102e9565b9050919050565b7f4e487b71000000000000000000000000000000000000000000000000000000005f52601160045260245ffd5b5f610360826101ed565b915061036b836101ed565b925082820190508082111561038357610382610329565b5b92915050565b7f7573657220616c726561647920696e20646200000000000000000000000000005f82015250565b5f6103bd6012836102b1565b91506103c882610389565b602082019050919050565b5f6020820190508181035f8301526103ea816103b1565b905091905056fea2646970667358221220b9def626e0c075ce0d90227aa6162c726eb572d45994368435c9d84a47a51bd464736f6c63430008180033",
			"opcodes": "PUSH1 0x80 PUSH1 0x40 MSTORE CALLVALUE DUP1 ISZERO PUSH2 0xF JUMPI PUSH0 DUP1 REVERT JUMPDEST POP PUSH2 0x427 DUP1 PUSH2 0x1D PUSH0 CODECOPY PUSH0 RETURN INVALID PUSH1 0x80 PUSH1 0x40 MSTORE CALLVALUE DUP1 ISZERO PUSH2 0xF JUMPI PUSH0 DUP1 REVERT JUMPDEST POP PUSH1 0x4 CALLDATASIZE LT PUSH2 0x3F JUMPI PUSH0 CALLDATALOAD PUSH1 0xE0 SHR DUP1 PUSH4 0x1E010439 EQ PUSH2 0x43 JUMPI DUP1 PUSH4 0x58453FEF EQ PUSH2 0x73 JUMPI DUP1 PUSH4 0xE00C04AC EQ PUSH2 0x8F JUMPI JUMPDEST PUSH0 DUP1 REVERT JUMPDEST PUSH2 0x5D PUSH1 0x4 DUP1 CALLDATASIZE SUB DUP2 ADD SWAP1 PUSH2 0x58 SWAP2 SWAP1 PUSH2 0x220 JUMP JUMPDEST PUSH2 0xAB JUMP JUMPDEST PUSH1 0x40 MLOAD PUSH2 0x6A SWAP2 SWAP1 PUSH2 0x25A JUMP JUMPDEST PUSH1 0x40 MLOAD DUP1 SWAP2 SUB SWAP1 RETURN JUMPDEST PUSH2 0x8D PUSH1 0x4 DUP1 CALLDATASIZE SUB DUP2 ADD SWAP1 PUSH2 0x88 SWAP2 SWAP1 PUSH2 0x273 JUMP JUMPDEST PUSH2 0xC7 JUMP JUMPDEST STOP JUMPDEST PUSH2 0xA9 PUSH1 0x4 DUP1 CALLDATASIZE SUB DUP2 ADD SWAP1 PUSH2 0xA4 SWAP2 SWAP1 PUSH2 0x273 JUMP JUMPDEST PUSH2 0x157 JUMP JUMPDEST STOP JUMPDEST PUSH0 DUP1 PUSH0 DUP4 DUP2 MSTORE PUSH1 0x20 ADD SWAP1 DUP2 MSTORE PUSH1 0x20 ADD PUSH0 KECCAK256 PUSH1 0x1 ADD SLOAD SWAP1 POP SWAP2 SWAP1 POP JUMP JUMPDEST DUP1 PUSH0 DUP1 DUP5 DUP2 MSTORE PUSH1 0x20 ADD SWAP1 DUP2 MSTORE PUSH1 0x20 ADD PUSH0 KECCAK256 PUSH1 0x1 ADD SLOAD LT ISZERO PUSH2 0x11D JUMPI PUSH1 0x40 MLOAD PUSH32 0x8C379A000000000000000000000000000000000000000000000000000000000 DUP2 MSTORE PUSH1 0x4 ADD PUSH2 0x114 SWAP1 PUSH2 0x30B JUMP JUMPDEST PUSH1 0x40 MLOAD DUP1 SWAP2 SUB SWAP1 REVERT JUMPDEST DUP1 PUSH0 DUP1 DUP5 DUP2 MSTORE PUSH1 0x20 ADD SWAP1 DUP2 MSTORE PUSH1 0x20 ADD PUSH0 KECCAK256 PUSH1 0x1 ADD SLOAD PUSH2 0x13C SWAP2 SWAP1 PUSH2 0x356 JUMP JUMPDEST PUSH0 DUP1 DUP5 DUP2 MSTORE PUSH1 0x20 ADD SWAP1 DUP2 MSTORE PUSH1 0x20 ADD PUSH0 KECCAK256 PUSH1 0x1 ADD DUP2 SWAP1 SSTORE POP POP POP JUMP JUMPDEST DUP2 PUSH0 DUP1 DUP5 DUP2 MSTORE PUSH1 0x20 ADD SWAP1 DUP2 MSTORE PUSH1 0x20 ADD PUSH0 KECCAK256 PUSH0 ADD SLOAD SUB PUSH2 0x1AB JUMPI PUSH1 0x40 MLOAD PUSH32 0x8C379A000000000000000000000000000000000000000000000000000000000 DUP2 MSTORE PUSH1 0x4 ADD PUSH2 0x1A2 SWAP1 PUSH2 0x3D3 JUMP JUMPDEST PUSH1 0x40 MLOAD DUP1 SWAP2 SUB SWAP1 REVERT JUMPDEST PUSH1 0x40 MLOAD DUP1 PUSH1 0x40 ADD PUSH1 0x40 MSTORE DUP1 DUP4 DUP2 MSTORE PUSH1 0x20 ADD DUP3 DUP2 MSTORE POP PUSH0 DUP1 DUP5 DUP2 MSTORE PUSH1 0x20 ADD SWAP1 DUP2 MSTORE PUSH1 0x20 ADD PUSH0 KECCAK256 PUSH0 DUP3 ADD MLOAD DUP2 PUSH0 ADD SSTORE PUSH1 0x20 DUP3 ADD MLOAD DUP2 PUSH1 0x1 ADD SSTORE SWAP1 POP POP POP POP JUMP JUMPDEST PUSH0 DUP1 REVERT JUMPDEST PUSH0 DUP2 SWAP1 POP SWAP2 SWAP1 POP JUMP JUMPDEST PUSH2 0x1FF DUP2 PUSH2 0x1ED JUMP JUMPDEST DUP2 EQ PUSH2 0x209 JUMPI PUSH0 DUP1 REVERT JUMPDEST POP JUMP JUMPDEST PUSH0 DUP2 CALLDATALOAD SWAP1 POP PUSH2 0x21A DUP2 PUSH2 0x1F6 JUMP JUMPDEST SWAP3 SWAP2 POP POP JUMP JUMPDEST PUSH0 PUSH1 0x20 DUP3 DUP5 SUB SLT ISZERO PUSH2 0x235 JUMPI PUSH2 0x234 PUSH2 0x1E9 JUMP JUMPDEST JUMPDEST PUSH0 PUSH2 0x242 DUP5 DUP3 DUP6 ADD PUSH2 0x20C JUMP JUMPDEST SWAP2 POP POP SWAP3 SWAP2 POP POP JUMP JUMPDEST PUSH2 0x254 DUP2 PUSH2 0x1ED JUMP JUMPDEST DUP3 MSTORE POP POP JUMP JUMPDEST PUSH0 PUSH1 0x20 DUP3 ADD SWAP1 POP PUSH2 0x26D PUSH0 DUP4 ADD DUP5 PUSH2 0x24B JUMP JUMPDEST SWAP3 SWAP2 POP POP JUMP JUMPDEST PUSH0 DUP1 PUSH1 0x40 DUP4 DUP6 SUB SLT ISZERO PUSH2 0x289 JUMPI PUSH2 0x288 PUSH2 0x1E9 JUMP JUMPDEST JUMPDEST PUSH0 PUSH2 0x296 DUP6 DUP3 DUP7 ADD PUSH2 0x20C JUMP JUMPDEST SWAP3 POP POP PUSH1 0x20 PUSH2 0x2A7 DUP6 DUP3 DUP7 ADD PUSH2 0x20C JUMP JUMPDEST SWAP2 POP POP SWAP3 POP SWAP3 SWAP1 POP JUMP JUMPDEST PUSH0 DUP3 DUP3 MSTORE PUSH1 0x20 DUP3 ADD SWAP1 POP SWAP3 SWAP2 POP POP JUMP JUMPDEST PUSH32 0x42616C616E6365206E6F742073756666696369656E7400000000000000000000 PUSH0 DUP3 ADD MSTORE POP JUMP JUMPDEST PUSH0 PUSH2 0x2F5 PUSH1 0x16 DUP4 PUSH2 0x2B1 JUMP JUMPDEST SWAP2 POP PUSH2 0x300 DUP3 PUSH2 0x2C1 JUMP JUMPDEST PUSH1 0x20 DUP3 ADD SWAP1 POP SWAP2 SWAP1 POP JUMP JUMPDEST PUSH0 PUSH1 0x20 DUP3 ADD SWAP1 POP DUP2 DUP2 SUB PUSH0 DUP4 ADD MSTORE PUSH2 0x322 DUP2 PUSH2 0x2E9 JUMP JUMPDEST SWAP1 POP SWAP2 SWAP1 POP JUMP JUMPDEST PUSH32 0x4E487B7100000000000000000000000000000000000000000000000000000000 PUSH0 MSTORE PUSH1 0x11 PUSH1 0x4 MSTORE PUSH1 0x24 PUSH0 REVERT JUMPDEST PUSH0 PUSH2 0x360 DUP3 PUSH2 0x1ED JUMP JUMPDEST SWAP2 POP PUSH2 0x36B DUP4 PUSH2 0x1ED JUMP JUMPDEST SWAP3 POP DUP3 DUP3 ADD SWAP1 POP DUP1 DUP3 GT ISZERO PUSH2 0x383 JUMPI PUSH2 0x382 PUSH2 0x329 JUMP JUMPDEST JUMPDEST SWAP3 SWAP2 POP POP JUMP JUMPDEST PUSH32 0x7573657220616C726561647920696E2064620000000000000000000000000000 PUSH0 DUP3 ADD MSTORE POP JUMP JUMPDEST PUSH0 PUSH2 0x3BD PUSH1 0x12 DUP4 PUSH2 0x2B1 JUMP JUMPDEST SWAP2 POP PUSH2 0x3C8 DUP3 PUSH2 0x389 JUMP JUMPDEST PUSH1 0x20 DUP3 ADD SWAP1 POP SWAP2 SWAP1 POP JUMP JUMPDEST PUSH0 PUSH1 0x20 DUP3 ADD SWAP1 POP DUP2 DUP2 SUB PUSH0 DUP4 ADD MSTORE PUSH2 0x3EA DUP2 PUSH2 0x3B1 JUMP JUMPDEST SWAP1 POP SWAP2 SWAP1 POP JUMP INVALID LOG2 PUSH5 0x6970667358 0x22 SLT KECCAK256 0xB9 0xDE 0xF6 0x26 0xE0 0xC0 PUSH22 0xCE0D90227AA6162C726EB572D45994368435C9D84A47 0xA5 SHL 0xD4 PUSH5 0x736F6C6343 STOP ADDMOD XOR STOP CALLER "
		},
		"gasEstimates": {
			"creation": {
				"codeDepositCost": "212600",
				"executionCost": "255",
				"totalCost": "212855"
			},
			"external": {
				"addUser(uint256,uint256)": "infinite",
				"getBalance(uint256)": "infinite",
				"updateBalance(uint256,uint256)": "infinite"
			}
		},
		"methodIdentifiers": {
			"addUser(uint256,uint256)": "e00c04ac",
			"getBalance(uint256)": "1e010439",
			"updateBalance(uint256,uint256)": "58453fef"
		}
	},
	"abi": [
		{
			"inputs": [
				{
					"internalType": "uint256",
					"name": "id",
					"type": "uint256"
				},
				{
					"internalType": "uint256",
					"name": "balance",
					"type": "uint256"
				}
			],
			"name": "addUser",
			"outputs": [],
			"stateMutability": "nonpayable",
			"type": "function"
		},
		{
			"inputs": [
				{
					"internalType": "uint256",
					"name": "id",
					"type": "uint256"
				}
			],
			"name": "getBalance",
			"outputs": [
				{
					"internalType": "uint256",
					"name": "",
					"type": "uint256"
				}
			],
			"stateMutability": "view",
			"type": "function"
		},
		{
			"inputs": [
				{
					"internalType": "uint256",
					"name": "id",
					"type": "uint256"
				},
				{
					"internalType": "uint256",
					"name": "balance",
					"type": "uint256"
				}
			],
			"name": "updateBalance",
			"outputs": [],
			"stateMutability": "nonpayable",
			"type": "function"
		}
	]
}