{
	"data": {
		"bytecode": {
			"linkReferences": {},
			"object": "608060405234801561000f575f80fd5b506101438061001d5f395ff3fe608060405234801561000f575f80fd5b5060043610610034575f3560e01c806306a5312b14610038578063c2ce5b2714610056575b5f80fd5b610040610072565b60405161004d919061009b565b60405180910390f35b610070600480360381019061006b91906100e2565b61007a565b005b5f8054905090565b805f8190555050565b5f819050919050565b61009581610083565b82525050565b5f6020820190506100ae5f83018461008c565b92915050565b5f80fd5b6100c181610083565b81146100cb575f80fd5b50565b5f813590506100dc816100b8565b92915050565b5f602082840312156100f7576100f66100b4565b5b5f610104848285016100ce565b9150509291505056fea26469706673582212201ad67de8dd4aeddeb21c26f035b8bf06d29520d8639a45e98e5c116b8438b82f64736f6c63430008160033",
			"opcodes": "PUSH1 0x80 PUSH1 0x40 MSTORE CALLVALUE DUP1 ISZERO PUSH2 0xF JUMPI PUSH0 DUP1 REVERT JUMPDEST POP PUSH2 0x143 DUP1 PUSH2 0x1D PUSH0 CODECOPY PUSH0 RETURN INVALID PUSH1 0x80 PUSH1 0x40 MSTORE CALLVALUE DUP1 ISZERO PUSH2 0xF JUMPI PUSH0 DUP1 REVERT JUMPDEST POP PUSH1 0x4 CALLDATASIZE LT PUSH2 0x34 JUMPI PUSH0 CALLDATALOAD PUSH1 0xE0 SHR DUP1 PUSH4 0x6A5312B EQ PUSH2 0x38 JUMPI DUP1 PUSH4 0xC2CE5B27 EQ PUSH2 0x56 JUMPI JUMPDEST PUSH0 DUP1 REVERT JUMPDEST PUSH2 0x40 PUSH2 0x72 JUMP JUMPDEST PUSH1 0x40 MLOAD PUSH2 0x4D SWAP2 SWAP1 PUSH2 0x9B JUMP JUMPDEST PUSH1 0x40 MLOAD DUP1 SWAP2 SUB SWAP1 RETURN JUMPDEST PUSH2 0x70 PUSH1 0x4 DUP1 CALLDATASIZE SUB DUP2 ADD SWAP1 PUSH2 0x6B SWAP2 SWAP1 PUSH2 0xE2 JUMP JUMPDEST PUSH2 0x7A JUMP JUMPDEST STOP JUMPDEST PUSH0 DUP1 SLOAD SWAP1 POP SWAP1 JUMP JUMPDEST DUP1 PUSH0 DUP2 SWAP1 SSTORE POP POP JUMP JUMPDEST PUSH0 DUP2 SWAP1 POP SWAP2 SWAP1 POP JUMP JUMPDEST PUSH2 0x95 DUP2 PUSH2 0x83 JUMP JUMPDEST DUP3 MSTORE POP POP JUMP JUMPDEST PUSH0 PUSH1 0x20 DUP3 ADD SWAP1 POP PUSH2 0xAE PUSH0 DUP4 ADD DUP5 PUSH2 0x8C JUMP JUMPDEST SWAP3 SWAP2 POP POP JUMP JUMPDEST PUSH0 DUP1 REVERT JUMPDEST PUSH2 0xC1 DUP2 PUSH2 0x83 JUMP JUMPDEST DUP2 EQ PUSH2 0xCB JUMPI PUSH0 DUP1 REVERT JUMPDEST POP JUMP JUMPDEST PUSH0 DUP2 CALLDATALOAD SWAP1 POP PUSH2 0xDC DUP2 PUSH2 0xB8 JUMP JUMPDEST SWAP3 SWAP2 POP POP JUMP JUMPDEST PUSH0 PUSH1 0x20 DUP3 DUP5 SUB SLT ISZERO PUSH2 0xF7 JUMPI PUSH2 0xF6 PUSH2 0xB4 JUMP JUMPDEST JUMPDEST PUSH0 PUSH2 0x104 DUP5 DUP3 DUP6 ADD PUSH2 0xCE JUMP JUMPDEST SWAP2 POP POP SWAP3 SWAP2 POP POP JUMP INVALID LOG2 PUSH5 0x6970667358 0x22 SLT KECCAK256 BYTE 0xD6 PUSH30 0xE8DD4AEDDEB21C26F035B8BF06D29520D8639A45E98E5C116B8438B82F64 PUSH20 0x6F6C634300081600330000000000000000000000 "
		},
		"gasEstimates": {
			"creation": {
				"codeDepositCost": "64600",
				"executionCost": "115",
				"totalCost": "64715"
			},
			"external": {
				"GetNumber()": "2410",
				"SetNumber(int256)": "22514"
			}
		},
		"methodIdentifiers": {
			"GetNumber()": "06a5312b",
			"SetNumber(int256)": "c2ce5b27"
		}
	},
	"abi": [
		{
			"inputs": [],
			"name": "GetNumber",
			"outputs": [
				{
					"internalType": "int256",
					"name": "",
					"type": "int256"
				}
			],
			"stateMutability": "view",
			"type": "function"
		},
		{
			"inputs": [
				{
					"internalType": "int256",
					"name": "_number",
					"type": "int256"
				}
			],
			"name": "SetNumber",
			"outputs": [],
			"stateMutability": "nonpayable",
			"type": "function"
		}
	]
}