{
	"data": {
		"bytecode": {
			"linkReferences": {},
			"object": "608060405234801561000f575f80fd5b5061017a8061001d5f395ff3fe608060405234801561000f575f80fd5b5060043610610029575f3560e01c80637e6230f31461002d575b5f80fd5b610035610050565b604051610047969594939291906100e5565b60405180910390f35b5f805f805f805f3390505f4290505f4390505f4590505f4490505f4190508585858585859b509b509b509b509b509b50505050505050909192939495565b5f73ffffffffffffffffffffffffffffffffffffffff82169050919050565b5f6100b78261008e565b9050919050565b6100c7816100ad565b82525050565b5f819050919050565b6100df816100cd565b82525050565b5f60c0820190506100f85f8301896100be565b61010560208301886100d6565b61011260408301876100d6565b61011f60608301866100d6565b61012c60808301856100d6565b61013960a08301846100be565b97965050505050505056fea26469706673582212202d98f041b4cc7f0b1f5c74522339c7fcd0defa995c841149114e03f62f63501564736f6c63430008160033",
			"opcodes": "PUSH1 0x80 PUSH1 0x40 MSTORE CALLVALUE DUP1 ISZERO PUSH2 0xF JUMPI PUSH0 DUP1 REVERT JUMPDEST POP PUSH2 0x17A DUP1 PUSH2 0x1D PUSH0 CODECOPY PUSH0 RETURN INVALID PUSH1 0x80 PUSH1 0x40 MSTORE CALLVALUE DUP1 ISZERO PUSH2 0xF JUMPI PUSH0 DUP1 REVERT JUMPDEST POP PUSH1 0x4 CALLDATASIZE LT PUSH2 0x29 JUMPI PUSH0 CALLDATALOAD PUSH1 0xE0 SHR DUP1 PUSH4 0x7E6230F3 EQ PUSH2 0x2D JUMPI JUMPDEST PUSH0 DUP1 REVERT JUMPDEST PUSH2 0x35 PUSH2 0x50 JUMP JUMPDEST PUSH1 0x40 MLOAD PUSH2 0x47 SWAP7 SWAP6 SWAP5 SWAP4 SWAP3 SWAP2 SWAP1 PUSH2 0xE5 JUMP JUMPDEST PUSH1 0x40 MLOAD DUP1 SWAP2 SUB SWAP1 RETURN JUMPDEST PUSH0 DUP1 PUSH0 DUP1 PUSH0 DUP1 PUSH0 CALLER SWAP1 POP PUSH0 TIMESTAMP SWAP1 POP PUSH0 NUMBER SWAP1 POP PUSH0 GASLIMIT SWAP1 POP PUSH0 PREVRANDAO SWAP1 POP PUSH0 COINBASE SWAP1 POP DUP6 DUP6 DUP6 DUP6 DUP6 DUP6 SWAP12 POP SWAP12 POP SWAP12 POP SWAP12 POP SWAP12 POP SWAP12 POP POP POP POP POP POP POP SWAP1 SWAP2 SWAP3 SWAP4 SWAP5 SWAP6 JUMP JUMPDEST PUSH0 PUSH20 0xFFFFFFFFFFFFFFFFFFFFFFFFFFFFFFFFFFFFFFFF DUP3 AND SWAP1 POP SWAP2 SWAP1 POP JUMP JUMPDEST PUSH0 PUSH2 0xB7 DUP3 PUSH2 0x8E JUMP JUMPDEST SWAP1 POP SWAP2 SWAP1 POP JUMP JUMPDEST PUSH2 0xC7 DUP2 PUSH2 0xAD JUMP JUMPDEST DUP3 MSTORE POP POP JUMP JUMPDEST PUSH0 DUP2 SWAP1 POP SWAP2 SWAP1 POP JUMP JUMPDEST PUSH2 0xDF DUP2 PUSH2 0xCD JUMP JUMPDEST DUP3 MSTORE POP POP JUMP JUMPDEST PUSH0 PUSH1 0xC0 DUP3 ADD SWAP1 POP PUSH2 0xF8 PUSH0 DUP4 ADD DUP10 PUSH2 0xBE JUMP JUMPDEST PUSH2 0x105 PUSH1 0x20 DUP4 ADD DUP9 PUSH2 0xD6 JUMP JUMPDEST PUSH2 0x112 PUSH1 0x40 DUP4 ADD DUP8 PUSH2 0xD6 JUMP JUMPDEST PUSH2 0x11F PUSH1 0x60 DUP4 ADD DUP7 PUSH2 0xD6 JUMP JUMPDEST PUSH2 0x12C PUSH1 0x80 DUP4 ADD DUP6 PUSH2 0xD6 JUMP JUMPDEST PUSH2 0x139 PUSH1 0xA0 DUP4 ADD DUP5 PUSH2 0xBE JUMP JUMPDEST SWAP8 SWAP7 POP POP POP POP POP POP POP JUMP INVALID LOG2 PUSH5 0x6970667358 0x22 SLT KECCAK256 0x2D SWAP9 CREATE COINBASE 0xB4 0xCC PUSH32 0xB1F5C74522339C7FCD0DEFA995C841149114E03F62F63501564736F6C634300 ADDMOD AND STOP CALLER "
		},
		"gasEstimates": {
			"creation": {
				"codeDepositCost": "75600",
				"executionCost": "121",
				"totalCost": "75721"
			},
			"external": {
				"globalVars()": "infinite"
			}
		},
		"methodIdentifiers": {
			"globalVars()": "7e6230f3"
		}
	},
	"abi": [
		{
			"inputs": [],
			"name": "globalVars",
			"outputs": [
				{
					"internalType": "address",
					"name": "",
					"type": "address"
				},
				{
					"internalType": "uint256",
					"name": "",
					"type": "uint256"
				},
				{
					"internalType": "uint256",
					"name": "",
					"type": "uint256"
				},
				{
					"internalType": "uint256",
					"name": "",
					"type": "uint256"
				},
				{
					"internalType": "uint256",
					"name": "",
					"type": "uint256"
				},
				{
					"internalType": "address",
					"name": "",
					"type": "address"
				}
			],
			"stateMutability": "view",
			"type": "function"
		}
	]
}