{
	"data": {
		"bytecode": {
			"linkReferences": {},
			"object": "608060405234801561000f575f80fd5b506102388061001d5f395ff3fe608060405234801561000f575f80fd5b5060043610610034575f3560e01c80636ca1d33214610038578063c97373af14610068575b5f80fd5b610052600480360381019061004d919061013b565b610098565b60405161005f9190610175565b60405180910390f35b610082600480360381019061007d919061013b565b6100cb565b60405161008f9190610175565b60405180910390f35b5f805f90505b600a8112156100c25782806100b2906101bb565b935050808060010191505061009e565b50819050919050565b5f805f90505b600a8112156100fb5782806100e5906101bb565b93505080806100f3906101bb565b9150506100d1565b82915050919050565b5f80fd5b5f819050919050565b61011a81610108565b8114610124575f80fd5b50565b5f8135905061013581610111565b92915050565b5f602082840312156101505761014f610104565b5b5f61015d84828501610127565b91505092915050565b61016f81610108565b82525050565b5f6020820190506101885f830184610166565b92915050565b7f4e487b71000000000000000000000000000000000000000000000000000000005f52601160045260245ffd5b5f6101c582610108565b91507f7fffffffffffffffffffffffffffffffffffffffffffffffffffffffffffffff82036101f7576101f661018e565b5b60018201905091905056fea2646970667358221220ef0f995f161a545b2d9875507bdd181608e5ce09b78f7b04e48b9b791f955c0c64736f6c63430008160033",
			"opcodes": "PUSH1 0x80 PUSH1 0x40 MSTORE CALLVALUE DUP1 ISZERO PUSH2 0xF JUMPI PUSH0 DUP1 REVERT JUMPDEST POP PUSH2 0x238 DUP1 PUSH2 0x1D PUSH0 CODECOPY PUSH0 RETURN INVALID PUSH1 0x80 PUSH1 0x40 MSTORE CALLVALUE DUP1 ISZERO PUSH2 0xF JUMPI PUSH0 DUP1 REVERT JUMPDEST POP PUSH1 0x4 CALLDATASIZE LT PUSH2 0x34 JUMPI PUSH0 CALLDATALOAD PUSH1 0xE0 SHR DUP1 PUSH4 0x6CA1D332 EQ PUSH2 0x38 JUMPI DUP1 PUSH4 0xC97373AF EQ PUSH2 0x68 JUMPI JUMPDEST PUSH0 DUP1 REVERT JUMPDEST PUSH2 0x52 PUSH1 0x4 DUP1 CALLDATASIZE SUB DUP2 ADD SWAP1 PUSH2 0x4D SWAP2 SWAP1 PUSH2 0x13B JUMP JUMPDEST PUSH2 0x98 JUMP JUMPDEST PUSH1 0x40 MLOAD PUSH2 0x5F SWAP2 SWAP1 PUSH2 0x175 JUMP JUMPDEST PUSH1 0x40 MLOAD DUP1 SWAP2 SUB SWAP1 RETURN JUMPDEST PUSH2 0x82 PUSH1 0x4 DUP1 CALLDATASIZE SUB DUP2 ADD SWAP1 PUSH2 0x7D SWAP2 SWAP1 PUSH2 0x13B JUMP JUMPDEST PUSH2 0xCB JUMP JUMPDEST PUSH1 0x40 MLOAD PUSH2 0x8F SWAP2 SWAP1 PUSH2 0x175 JUMP JUMPDEST PUSH1 0x40 MLOAD DUP1 SWAP2 SUB SWAP1 RETURN JUMPDEST PUSH0 DUP1 PUSH0 SWAP1 POP JUMPDEST PUSH1 0xA DUP2 SLT ISZERO PUSH2 0xC2 JUMPI DUP3 DUP1 PUSH2 0xB2 SWAP1 PUSH2 0x1BB JUMP JUMPDEST SWAP4 POP POP DUP1 DUP1 PUSH1 0x1 ADD SWAP2 POP POP PUSH2 0x9E JUMP JUMPDEST POP DUP2 SWAP1 POP SWAP2 SWAP1 POP JUMP JUMPDEST PUSH0 DUP1 PUSH0 SWAP1 POP JUMPDEST PUSH1 0xA DUP2 SLT ISZERO PUSH2 0xFB JUMPI DUP3 DUP1 PUSH2 0xE5 SWAP1 PUSH2 0x1BB JUMP JUMPDEST SWAP4 POP POP DUP1 DUP1 PUSH2 0xF3 SWAP1 PUSH2 0x1BB JUMP JUMPDEST SWAP2 POP POP PUSH2 0xD1 JUMP JUMPDEST DUP3 SWAP2 POP POP SWAP2 SWAP1 POP JUMP JUMPDEST PUSH0 DUP1 REVERT JUMPDEST PUSH0 DUP2 SWAP1 POP SWAP2 SWAP1 POP JUMP JUMPDEST PUSH2 0x11A DUP2 PUSH2 0x108 JUMP JUMPDEST DUP2 EQ PUSH2 0x124 JUMPI PUSH0 DUP1 REVERT JUMPDEST POP JUMP JUMPDEST PUSH0 DUP2 CALLDATALOAD SWAP1 POP PUSH2 0x135 DUP2 PUSH2 0x111 JUMP JUMPDEST SWAP3 SWAP2 POP POP JUMP JUMPDEST PUSH0 PUSH1 0x20 DUP3 DUP5 SUB SLT ISZERO PUSH2 0x150 JUMPI PUSH2 0x14F PUSH2 0x104 JUMP JUMPDEST JUMPDEST PUSH0 PUSH2 0x15D DUP5 DUP3 DUP6 ADD PUSH2 0x127 JUMP JUMPDEST SWAP2 POP POP SWAP3 SWAP2 POP POP JUMP JUMPDEST PUSH2 0x16F DUP2 PUSH2 0x108 JUMP JUMPDEST DUP3 MSTORE POP POP JUMP JUMPDEST PUSH0 PUSH1 0x20 DUP3 ADD SWAP1 POP PUSH2 0x188 PUSH0 DUP4 ADD DUP5 PUSH2 0x166 JUMP JUMPDEST SWAP3 SWAP2 POP POP JUMP JUMPDEST PUSH32 0x4E487B7100000000000000000000000000000000000000000000000000000000 PUSH0 MSTORE PUSH1 0x11 PUSH1 0x4 MSTORE PUSH1 0x24 PUSH0 REVERT JUMPDEST PUSH0 PUSH2 0x1C5 DUP3 PUSH2 0x108 JUMP JUMPDEST SWAP2 POP PUSH32 0x7FFFFFFFFFFFFFFFFFFFFFFFFFFFFFFFFFFFFFFFFFFFFFFFFFFFFFFFFFFFFFFF DUP3 SUB PUSH2 0x1F7 JUMPI PUSH2 0x1F6 PUSH2 0x18E JUMP JUMPDEST JUMPDEST PUSH1 0x1 DUP3 ADD SWAP1 POP SWAP2 SWAP1 POP JUMP INVALID LOG2 PUSH5 0x6970667358 0x22 SLT KECCAK256 0xEF 0xF SWAP10 PUSH0 AND BYTE SLOAD JUMPDEST 0x2D SWAP9 PUSH22 0x507BDD181608E5CE09B78F7B04E48B9B791F955C0C64 PUSH20 0x6F6C634300081600330000000000000000000000 "
		},
		"gasEstimates": {
			"creation": {
				"codeDepositCost": "113600",
				"executionCost": "157",
				"totalCost": "113757"
			},
			"external": {
				"For(int256)": "infinite",
				"While(int256)": "infinite"
			}
		},
		"methodIdentifiers": {
			"For(int256)": "6ca1d332",
			"While(int256)": "c97373af"
		}
	},
	"abi": [
		{
			"inputs": [
				{
					"internalType": "int256",
					"name": "number",
					"type": "int256"
				}
			],
			"name": "For",
			"outputs": [
				{
					"internalType": "int256",
					"name": "",
					"type": "int256"
				}
			],
			"stateMutability": "pure",
			"type": "function"
		},
		{
			"inputs": [
				{
					"internalType": "int256",
					"name": "number",
					"type": "int256"
				}
			],
			"name": "While",
			"outputs": [
				{
					"internalType": "int256",
					"name": "",
					"type": "int256"
				}
			],
			"stateMutability": "pure",
			"type": "function"
		}
	]
}