{
	"data": {
		"bytecode": {
			"linkReferences": {},
			"object": "6080604052737fdc955b5e2547cc67759edba3fd5d7027b9bd6660015f6101000a81548173ffffffffffffffffffffffffffffffffffffffff021916908373ffffffffffffffffffffffffffffffffffffffff160217905550348015610063575f80fd5b50335f806101000a81548173ffffffffffffffffffffffffffffffffffffffff021916908373ffffffffffffffffffffffffffffffffffffffff160217905550610ae2806100b05f395ff3fe608060405260043610610049575f3560e01c806312065fe01461004d5780632e1a7d4d14610077578063893d20e8146100b3578063a50ec326146100dd578063a9059cbb146100fb575b5f80fd5b348015610058575f80fd5b50610061610123565b60405161006e91906106af565b60405180910390f35b348015610082575f80fd5b5061009d600480360381019061009891906106f6565b610167565b6040516100aa91906106af565b60405180910390f35b3480156100be575f80fd5b506100c76102c8565b6040516100d49190610760565b60405180910390f35b6100e56102ef565b6040516100f291906106af565b60405180910390f35b348015610106575f80fd5b50610121600480360381019061011c91906107a3565b6103bf565b005b5f60025f3373ffffffffffffffffffffffffffffffffffffffff1673ffffffffffffffffffffffffffffffffffffffff1681526020019081526020015f2054905090565b5f805f9054906101000a900473ffffffffffffffffffffffffffffffffffffffff1673ffffffffffffffffffffffffffffffffffffffff163373ffffffffffffffffffffffffffffffffffffffff16146101f6576040517f08c379a00000000000000000000000000000000000000000000000000000000081526004016101ed90610861565b60405180910390fd5b8160025f3373ffffffffffffffffffffffffffffffffffffffff1673ffffffffffffffffffffffffffffffffffffffff1681526020019081526020015f2054101561023f575f80fd5b3373ffffffffffffffffffffffffffffffffffffffff166108fc8390811502906040515f60405180830381858888f19350505050158015610282573d5f803e3d5ffd5b5060025f3373ffffffffffffffffffffffffffffffffffffffff1673ffffffffffffffffffffffffffffffffffffffff1681526020019081526020015f20549050919050565b5f805f9054906101000a900473ffffffffffffffffffffffffffffffffffffffff16905090565b5f3460025f3373ffffffffffffffffffffffffffffffffffffffff1673ffffffffffffffffffffffffffffffffffffffff1681526020019081526020015f205f82825461033c91906108ac565b925050819055507f4d2bb476d26796d3b550300c8c6aff36645638e7406a409ec222c78de1b0ab8534336040516103749291906108df565b60405180910390a160025f3373ffffffffffffffffffffffffffffffffffffffff1673ffffffffffffffffffffffffffffffffffffffff1681526020019081526020015f2054905090565b8060025f3373ffffffffffffffffffffffffffffffffffffffff1673ffffffffffffffffffffffffffffffffffffffff1681526020019081526020015f2054101561043f576040517f08c379a000000000000000000000000000000000000000000000000000000000815260040161043690610950565b60405180910390fd5b8173ffffffffffffffffffffffffffffffffffffffff163373ffffffffffffffffffffffffffffffffffffffff16036104ad576040517f08c379a00000000000000000000000000000000000000000000000000000000081526004016104a4906109b8565b60405180910390fd5b5f60025f3373ffffffffffffffffffffffffffffffffffffffff1673ffffffffffffffffffffffffffffffffffffffff1681526020019081526020015f205490506104f93384846105e1565b60015f9054906101000a900473ffffffffffffffffffffffffffffffffffffffff1673ffffffffffffffffffffffffffffffffffffffff1663fe73b27f3385856040518463ffffffff1660e01b8152600401610557939291906109d6565b5f604051808303815f87803b15801561056e575f80fd5b505af1158015610580573d5f803e3d5ffd5b5050505081816105909190610a0b565b60025f3373ffffffffffffffffffffffffffffffffffffffff1673ffffffffffffffffffffffffffffffffffffffff1681526020019081526020015f2054146105dc576105db610a3e565b5b505050565b8060025f8573ffffffffffffffffffffffffffffffffffffffff1673ffffffffffffffffffffffffffffffffffffffff1681526020019081526020015f205f82825461062d9190610a0b565b9250508190555080816106409190610a6b565b60025f8473ffffffffffffffffffffffffffffffffffffffff1673ffffffffffffffffffffffffffffffffffffffff1681526020019081526020015f205f82825461068b91906108ac565b92505081905550505050565b5f819050919050565b6106a981610697565b82525050565b5f6020820190506106c25f8301846106a0565b92915050565b5f80fd5b6106d581610697565b81146106df575f80fd5b50565b5f813590506106f0816106cc565b92915050565b5f6020828403121561070b5761070a6106c8565b5b5f610718848285016106e2565b91505092915050565b5f73ffffffffffffffffffffffffffffffffffffffff82169050919050565b5f61074a82610721565b9050919050565b61075a81610740565b82525050565b5f6020820190506107735f830184610751565b92915050565b61078281610740565b811461078c575f80fd5b50565b5f8135905061079d81610779565b92915050565b5f80604083850312156107b9576107b86106c8565b5b5f6107c68582860161078f565b92505060206107d7858286016106e2565b9150509250929050565b5f82825260208201905092915050565b7f4f6e6c79206f776e65722063616e20616464206d6f6e657920746f206163636f5f8201527f756e740000000000000000000000000000000000000000000000000000000000602082015250565b5f61084b6023836107e1565b9150610856826107f1565b604082019050919050565b5f6020820190508181035f8301526108788161083f565b9050919050565b7f4e487b71000000000000000000000000000000000000000000000000000000005f52601160045260245ffd5b5f6108b682610697565b91506108c183610697565b92508282019050808211156108d9576108d861087f565b5b92915050565b5f6040820190506108f25f8301856106a0565b6108ff6020830184610751565b9392505050565b7f42616c616e6365206e6f742073756666696369656e74000000000000000000005f82015250565b5f61093a6016836107e1565b915061094582610906565b602082019050919050565b5f6020820190508181035f8301526109678161092e565b9050919050565b7f446f6e2774207472616e73666572206d6f6e657920746f20796f757273656c665f82015250565b5f6109a26020836107e1565b91506109ad8261096e565b602082019050919050565b5f6020820190508181035f8301526109cf81610996565b9050919050565b5f6060820190506109e95f830186610751565b6109f66020830185610751565b610a0360408301846106a0565b949350505050565b5f610a1582610697565b9150610a2083610697565b9250828203905081811115610a3857610a3761087f565b5b92915050565b7f4e487b71000000000000000000000000000000000000000000000000000000005f52600160045260245ffd5b5f610a7582610697565b9150610a8083610697565b9250828202610a8e81610697565b91508282048414831517610aa557610aa461087f565b5b509291505056fea2646970667358221220755025d37ba14b339c1ea228af5b75e416d4b40f2e179c6e72d2f543f365603e64736f6c63430008180033",
			"opcodes": "PUSH1 0x80 PUSH1 0x40 MSTORE PUSH20 0x7FDC955B5E2547CC67759EDBA3FD5D7027B9BD66 PUSH1 0x1 PUSH0 PUSH2 0x100 EXP DUP2 SLOAD DUP2 PUSH20 0xFFFFFFFFFFFFFFFFFFFFFFFFFFFFFFFFFFFFFFFF MUL NOT AND SWAP1 DUP4 PUSH20 0xFFFFFFFFFFFFFFFFFFFFFFFFFFFFFFFFFFFFFFFF AND MUL OR SWAP1 SSTORE POP CALLVALUE DUP1 ISZERO PUSH2 0x63 JUMPI PUSH0 DUP1 REVERT JUMPDEST POP CALLER PUSH0 DUP1 PUSH2 0x100 EXP DUP2 SLOAD DUP2 PUSH20 0xFFFFFFFFFFFFFFFFFFFFFFFFFFFFFFFFFFFFFFFF MUL NOT AND SWAP1 DUP4 PUSH20 0xFFFFFFFFFFFFFFFFFFFFFFFFFFFFFFFFFFFFFFFF AND MUL OR SWAP1 SSTORE POP PUSH2 0xAE2 DUP1 PUSH2 0xB0 PUSH0 CODECOPY PUSH0 RETURN INVALID PUSH1 0x80 PUSH1 0x40 MSTORE PUSH1 0x4 CALLDATASIZE LT PUSH2 0x49 JUMPI PUSH0 CALLDATALOAD PUSH1 0xE0 SHR DUP1 PUSH4 0x12065FE0 EQ PUSH2 0x4D JUMPI DUP1 PUSH4 0x2E1A7D4D EQ PUSH2 0x77 JUMPI DUP1 PUSH4 0x893D20E8 EQ PUSH2 0xB3 JUMPI DUP1 PUSH4 0xA50EC326 EQ PUSH2 0xDD JUMPI DUP1 PUSH4 0xA9059CBB EQ PUSH2 0xFB JUMPI JUMPDEST PUSH0 DUP1 REVERT JUMPDEST CALLVALUE DUP1 ISZERO PUSH2 0x58 JUMPI PUSH0 DUP1 REVERT JUMPDEST POP PUSH2 0x61 PUSH2 0x123 JUMP JUMPDEST PUSH1 0x40 MLOAD PUSH2 0x6E SWAP2 SWAP1 PUSH2 0x6AF JUMP JUMPDEST PUSH1 0x40 MLOAD DUP1 SWAP2 SUB SWAP1 RETURN JUMPDEST CALLVALUE DUP1 ISZERO PUSH2 0x82 JUMPI PUSH0 DUP1 REVERT JUMPDEST POP PUSH2 0x9D PUSH1 0x4 DUP1 CALLDATASIZE SUB DUP2 ADD SWAP1 PUSH2 0x98 SWAP2 SWAP1 PUSH2 0x6F6 JUMP JUMPDEST PUSH2 0x167 JUMP JUMPDEST PUSH1 0x40 MLOAD PUSH2 0xAA SWAP2 SWAP1 PUSH2 0x6AF JUMP JUMPDEST PUSH1 0x40 MLOAD DUP1 SWAP2 SUB SWAP1 RETURN JUMPDEST CALLVALUE DUP1 ISZERO PUSH2 0xBE JUMPI PUSH0 DUP1 REVERT JUMPDEST POP PUSH2 0xC7 PUSH2 0x2C8 JUMP JUMPDEST PUSH1 0x40 MLOAD PUSH2 0xD4 SWAP2 SWAP1 PUSH2 0x760 JUMP JUMPDEST PUSH1 0x40 MLOAD DUP1 SWAP2 SUB SWAP1 RETURN JUMPDEST PUSH2 0xE5 PUSH2 0x2EF JUMP JUMPDEST PUSH1 0x40 MLOAD PUSH2 0xF2 SWAP2 SWAP1 PUSH2 0x6AF JUMP JUMPDEST PUSH1 0x40 MLOAD DUP1 SWAP2 SUB SWAP1 RETURN JUMPDEST CALLVALUE DUP1 ISZERO PUSH2 0x106 JUMPI PUSH0 DUP1 REVERT JUMPDEST POP PUSH2 0x121 PUSH1 0x4 DUP1 CALLDATASIZE SUB DUP2 ADD SWAP1 PUSH2 0x11C SWAP2 SWAP1 PUSH2 0x7A3 JUMP JUMPDEST PUSH2 0x3BF JUMP JUMPDEST STOP JUMPDEST PUSH0 PUSH1 0x2 PUSH0 CALLER PUSH20 0xFFFFFFFFFFFFFFFFFFFFFFFFFFFFFFFFFFFFFFFF AND PUSH20 0xFFFFFFFFFFFFFFFFFFFFFFFFFFFFFFFFFFFFFFFF AND DUP2 MSTORE PUSH1 0x20 ADD SWAP1 DUP2 MSTORE PUSH1 0x20 ADD PUSH0 KECCAK256 SLOAD SWAP1 POP SWAP1 JUMP JUMPDEST PUSH0 DUP1 PUSH0 SWAP1 SLOAD SWAP1 PUSH2 0x100 EXP SWAP1 DIV PUSH20 0xFFFFFFFFFFFFFFFFFFFFFFFFFFFFFFFFFFFFFFFF AND PUSH20 0xFFFFFFFFFFFFFFFFFFFFFFFFFFFFFFFFFFFFFFFF AND CALLER PUSH20 0xFFFFFFFFFFFFFFFFFFFFFFFFFFFFFFFFFFFFFFFF AND EQ PUSH2 0x1F6 JUMPI PUSH1 0x40 MLOAD PUSH32 0x8C379A000000000000000000000000000000000000000000000000000000000 DUP2 MSTORE PUSH1 0x4 ADD PUSH2 0x1ED SWAP1 PUSH2 0x861 JUMP JUMPDEST PUSH1 0x40 MLOAD DUP1 SWAP2 SUB SWAP1 REVERT JUMPDEST DUP2 PUSH1 0x2 PUSH0 CALLER PUSH20 0xFFFFFFFFFFFFFFFFFFFFFFFFFFFFFFFFFFFFFFFF AND PUSH20 0xFFFFFFFFFFFFFFFFFFFFFFFFFFFFFFFFFFFFFFFF AND DUP2 MSTORE PUSH1 0x20 ADD SWAP1 DUP2 MSTORE PUSH1 0x20 ADD PUSH0 KECCAK256 SLOAD LT ISZERO PUSH2 0x23F JUMPI PUSH0 DUP1 REVERT JUMPDEST CALLER PUSH20 0xFFFFFFFFFFFFFFFFFFFFFFFFFFFFFFFFFFFFFFFF AND PUSH2 0x8FC DUP4 SWAP1 DUP2 ISZERO MUL SWAP1 PUSH1 0x40 MLOAD PUSH0 PUSH1 0x40 MLOAD DUP1 DUP4 SUB DUP2 DUP6 DUP9 DUP9 CALL SWAP4 POP POP POP POP ISZERO DUP1 ISZERO PUSH2 0x282 JUMPI RETURNDATASIZE PUSH0 DUP1 RETURNDATACOPY RETURNDATASIZE PUSH0 REVERT JUMPDEST POP PUSH1 0x2 PUSH0 CALLER PUSH20 0xFFFFFFFFFFFFFFFFFFFFFFFFFFFFFFFFFFFFFFFF AND PUSH20 0xFFFFFFFFFFFFFFFFFFFFFFFFFFFFFFFFFFFFFFFF AND DUP2 MSTORE PUSH1 0x20 ADD SWAP1 DUP2 MSTORE PUSH1 0x20 ADD PUSH0 KECCAK256 SLOAD SWAP1 POP SWAP2 SWAP1 POP JUMP JUMPDEST PUSH0 DUP1 PUSH0 SWAP1 SLOAD SWAP1 PUSH2 0x100 EXP SWAP1 DIV PUSH20 0xFFFFFFFFFFFFFFFFFFFFFFFFFFFFFFFFFFFFFFFF AND SWAP1 POP SWAP1 JUMP JUMPDEST PUSH0 CALLVALUE PUSH1 0x2 PUSH0 CALLER PUSH20 0xFFFFFFFFFFFFFFFFFFFFFFFFFFFFFFFFFFFFFFFF AND PUSH20 0xFFFFFFFFFFFFFFFFFFFFFFFFFFFFFFFFFFFFFFFF AND DUP2 MSTORE PUSH1 0x20 ADD SWAP1 DUP2 MSTORE PUSH1 0x20 ADD PUSH0 KECCAK256 PUSH0 DUP3 DUP3 SLOAD PUSH2 0x33C SWAP2 SWAP1 PUSH2 0x8AC JUMP JUMPDEST SWAP3 POP POP DUP2 SWAP1 SSTORE POP PUSH32 0x4D2BB476D26796D3B550300C8C6AFF36645638E7406A409EC222C78DE1B0AB85 CALLVALUE CALLER PUSH1 0x40 MLOAD PUSH2 0x374 SWAP3 SWAP2 SWAP1 PUSH2 0x8DF JUMP JUMPDEST PUSH1 0x40 MLOAD DUP1 SWAP2 SUB SWAP1 LOG1 PUSH1 0x2 PUSH0 CALLER PUSH20 0xFFFFFFFFFFFFFFFFFFFFFFFFFFFFFFFFFFFFFFFF AND PUSH20 0xFFFFFFFFFFFFFFFFFFFFFFFFFFFFFFFFFFFFFFFF AND DUP2 MSTORE PUSH1 0x20 ADD SWAP1 DUP2 MSTORE PUSH1 0x20 ADD PUSH0 KECCAK256 SLOAD SWAP1 POP SWAP1 JUMP JUMPDEST DUP1 PUSH1 0x2 PUSH0 CALLER PUSH20 0xFFFFFFFFFFFFFFFFFFFFFFFFFFFFFFFFFFFFFFFF AND PUSH20 0xFFFFFFFFFFFFFFFFFFFFFFFFFFFFFFFFFFFFFFFF AND DUP2 MSTORE PUSH1 0x20 ADD SWAP1 DUP2 MSTORE PUSH1 0x20 ADD PUSH0 KECCAK256 SLOAD LT ISZERO PUSH2 0x43F JUMPI PUSH1 0x40 MLOAD PUSH32 0x8C379A000000000000000000000000000000000000000000000000000000000 DUP2 MSTORE PUSH1 0x4 ADD PUSH2 0x436 SWAP1 PUSH2 0x950 JUMP JUMPDEST PUSH1 0x40 MLOAD DUP1 SWAP2 SUB SWAP1 REVERT JUMPDEST DUP2 PUSH20 0xFFFFFFFFFFFFFFFFFFFFFFFFFFFFFFFFFFFFFFFF AND CALLER PUSH20 0xFFFFFFFFFFFFFFFFFFFFFFFFFFFFFFFFFFFFFFFF AND SUB PUSH2 0x4AD JUMPI PUSH1 0x40 MLOAD PUSH32 0x8C379A000000000000000000000000000000000000000000000000000000000 DUP2 MSTORE PUSH1 0x4 ADD PUSH2 0x4A4 SWAP1 PUSH2 0x9B8 JUMP JUMPDEST PUSH1 0x40 MLOAD DUP1 SWAP2 SUB SWAP1 REVERT JUMPDEST PUSH0 PUSH1 0x2 PUSH0 CALLER PUSH20 0xFFFFFFFFFFFFFFFFFFFFFFFFFFFFFFFFFFFFFFFF AND PUSH20 0xFFFFFFFFFFFFFFFFFFFFFFFFFFFFFFFFFFFFFFFF AND DUP2 MSTORE PUSH1 0x20 ADD SWAP1 DUP2 MSTORE PUSH1 0x20 ADD PUSH0 KECCAK256 SLOAD SWAP1 POP PUSH2 0x4F9 CALLER DUP5 DUP5 PUSH2 0x5E1 JUMP JUMPDEST PUSH1 0x1 PUSH0 SWAP1 SLOAD SWAP1 PUSH2 0x100 EXP SWAP1 DIV PUSH20 0xFFFFFFFFFFFFFFFFFFFFFFFFFFFFFFFFFFFFFFFF AND PUSH20 0xFFFFFFFFFFFFFFFFFFFFFFFFFFFFFFFFFFFFFFFF AND PUSH4 0xFE73B27F CALLER DUP6 DUP6 PUSH1 0x40 MLOAD DUP5 PUSH4 0xFFFFFFFF AND PUSH1 0xE0 SHL DUP2 MSTORE PUSH1 0x4 ADD PUSH2 0x557 SWAP4 SWAP3 SWAP2 SWAP1 PUSH2 0x9D6 JUMP JUMPDEST PUSH0 PUSH1 0x40 MLOAD DUP1 DUP4 SUB DUP2 PUSH0 DUP8 DUP1 EXTCODESIZE ISZERO DUP1 ISZERO PUSH2 0x56E JUMPI PUSH0 DUP1 REVERT JUMPDEST POP GAS CALL ISZERO DUP1 ISZERO PUSH2 0x580 JUMPI RETURNDATASIZE PUSH0 DUP1 RETURNDATACOPY RETURNDATASIZE PUSH0 REVERT JUMPDEST POP POP POP POP DUP2 DUP2 PUSH2 0x590 SWAP2 SWAP1 PUSH2 0xA0B JUMP JUMPDEST PUSH1 0x2 PUSH0 CALLER PUSH20 0xFFFFFFFFFFFFFFFFFFFFFFFFFFFFFFFFFFFFFFFF AND PUSH20 0xFFFFFFFFFFFFFFFFFFFFFFFFFFFFFFFFFFFFFFFF AND DUP2 MSTORE PUSH1 0x20 ADD SWAP1 DUP2 MSTORE PUSH1 0x20 ADD PUSH0 KECCAK256 SLOAD EQ PUSH2 0x5DC JUMPI PUSH2 0x5DB PUSH2 0xA3E JUMP JUMPDEST JUMPDEST POP POP POP JUMP JUMPDEST DUP1 PUSH1 0x2 PUSH0 DUP6 PUSH20 0xFFFFFFFFFFFFFFFFFFFFFFFFFFFFFFFFFFFFFFFF AND PUSH20 0xFFFFFFFFFFFFFFFFFFFFFFFFFFFFFFFFFFFFFFFF AND DUP2 MSTORE PUSH1 0x20 ADD SWAP1 DUP2 MSTORE PUSH1 0x20 ADD PUSH0 KECCAK256 PUSH0 DUP3 DUP3 SLOAD PUSH2 0x62D SWAP2 SWAP1 PUSH2 0xA0B JUMP JUMPDEST SWAP3 POP POP DUP2 SWAP1 SSTORE POP DUP1 DUP2 PUSH2 0x640 SWAP2 SWAP1 PUSH2 0xA6B JUMP JUMPDEST PUSH1 0x2 PUSH0 DUP5 PUSH20 0xFFFFFFFFFFFFFFFFFFFFFFFFFFFFFFFFFFFFFFFF AND PUSH20 0xFFFFFFFFFFFFFFFFFFFFFFFFFFFFFFFFFFFFFFFF AND DUP2 MSTORE PUSH1 0x20 ADD SWAP1 DUP2 MSTORE PUSH1 0x20 ADD PUSH0 KECCAK256 PUSH0 DUP3 DUP3 SLOAD PUSH2 0x68B SWAP2 SWAP1 PUSH2 0x8AC JUMP JUMPDEST SWAP3 POP POP DUP2 SWAP1 SSTORE POP POP POP POP JUMP JUMPDEST PUSH0 DUP2 SWAP1 POP SWAP2 SWAP1 POP JUMP JUMPDEST PUSH2 0x6A9 DUP2 PUSH2 0x697 JUMP JUMPDEST DUP3 MSTORE POP POP JUMP JUMPDEST PUSH0 PUSH1 0x20 DUP3 ADD SWAP1 POP PUSH2 0x6C2 PUSH0 DUP4 ADD DUP5 PUSH2 0x6A0 JUMP JUMPDEST SWAP3 SWAP2 POP POP JUMP JUMPDEST PUSH0 DUP1 REVERT JUMPDEST PUSH2 0x6D5 DUP2 PUSH2 0x697 JUMP JUMPDEST DUP2 EQ PUSH2 0x6DF JUMPI PUSH0 DUP1 REVERT JUMPDEST POP JUMP JUMPDEST PUSH0 DUP2 CALLDATALOAD SWAP1 POP PUSH2 0x6F0 DUP2 PUSH2 0x6CC JUMP JUMPDEST SWAP3 SWAP2 POP POP JUMP JUMPDEST PUSH0 PUSH1 0x20 DUP3 DUP5 SUB SLT ISZERO PUSH2 0x70B JUMPI PUSH2 0x70A PUSH2 0x6C8 JUMP JUMPDEST JUMPDEST PUSH0 PUSH2 0x718 DUP5 DUP3 DUP6 ADD PUSH2 0x6E2 JUMP JUMPDEST SWAP2 POP POP SWAP3 SWAP2 POP POP JUMP JUMPDEST PUSH0 PUSH20 0xFFFFFFFFFFFFFFFFFFFFFFFFFFFFFFFFFFFFFFFF DUP3 AND SWAP1 POP SWAP2 SWAP1 POP JUMP JUMPDEST PUSH0 PUSH2 0x74A DUP3 PUSH2 0x721 JUMP JUMPDEST SWAP1 POP SWAP2 SWAP1 POP JUMP JUMPDEST PUSH2 0x75A DUP2 PUSH2 0x740 JUMP JUMPDEST DUP3 MSTORE POP POP JUMP JUMPDEST PUSH0 PUSH1 0x20 DUP3 ADD SWAP1 POP PUSH2 0x773 PUSH0 DUP4 ADD DUP5 PUSH2 0x751 JUMP JUMPDEST SWAP3 SWAP2 POP POP JUMP JUMPDEST PUSH2 0x782 DUP2 PUSH2 0x740 JUMP JUMPDEST DUP2 EQ PUSH2 0x78C JUMPI PUSH0 DUP1 REVERT JUMPDEST POP JUMP JUMPDEST PUSH0 DUP2 CALLDATALOAD SWAP1 POP PUSH2 0x79D DUP2 PUSH2 0x779 JUMP JUMPDEST SWAP3 SWAP2 POP POP JUMP JUMPDEST PUSH0 DUP1 PUSH1 0x40 DUP4 DUP6 SUB SLT ISZERO PUSH2 0x7B9 JUMPI PUSH2 0x7B8 PUSH2 0x6C8 JUMP JUMPDEST JUMPDEST PUSH0 PUSH2 0x7C6 DUP6 DUP3 DUP7 ADD PUSH2 0x78F JUMP JUMPDEST SWAP3 POP POP PUSH1 0x20 PUSH2 0x7D7 DUP6 DUP3 DUP7 ADD PUSH2 0x6E2 JUMP JUMPDEST SWAP2 POP POP SWAP3 POP SWAP3 SWAP1 POP JUMP JUMPDEST PUSH0 DUP3 DUP3 MSTORE PUSH1 0x20 DUP3 ADD SWAP1 POP SWAP3 SWAP2 POP POP JUMP JUMPDEST PUSH32 0x4F6E6C79206F776E65722063616E20616464206D6F6E657920746F206163636F PUSH0 DUP3 ADD MSTORE PUSH32 0x756E740000000000000000000000000000000000000000000000000000000000 PUSH1 0x20 DUP3 ADD MSTORE POP JUMP JUMPDEST PUSH0 PUSH2 0x84B PUSH1 0x23 DUP4 PUSH2 0x7E1 JUMP JUMPDEST SWAP2 POP PUSH2 0x856 DUP3 PUSH2 0x7F1 JUMP JUMPDEST PUSH1 0x40 DUP3 ADD SWAP1 POP SWAP2 SWAP1 POP JUMP JUMPDEST PUSH0 PUSH1 0x20 DUP3 ADD SWAP1 POP DUP2 DUP2 SUB PUSH0 DUP4 ADD MSTORE PUSH2 0x878 DUP2 PUSH2 0x83F JUMP JUMPDEST SWAP1 POP SWAP2 SWAP1 POP JUMP JUMPDEST PUSH32 0x4E487B7100000000000000000000000000000000000000000000000000000000 PUSH0 MSTORE PUSH1 0x11 PUSH1 0x4 MSTORE PUSH1 0x24 PUSH0 REVERT JUMPDEST PUSH0 PUSH2 0x8B6 DUP3 PUSH2 0x697 JUMP JUMPDEST SWAP2 POP PUSH2 0x8C1 DUP4 PUSH2 0x697 JUMP JUMPDEST SWAP3 POP DUP3 DUP3 ADD SWAP1 POP DUP1 DUP3 GT ISZERO PUSH2 0x8D9 JUMPI PUSH2 0x8D8 PUSH2 0x87F JUMP JUMPDEST JUMPDEST SWAP3 SWAP2 POP POP JUMP JUMPDEST PUSH0 PUSH1 0x40 DUP3 ADD SWAP1 POP PUSH2 0x8F2 PUSH0 DUP4 ADD DUP6 PUSH2 0x6A0 JUMP JUMPDEST PUSH2 0x8FF PUSH1 0x20 DUP4 ADD DUP5 PUSH2 0x751 JUMP JUMPDEST SWAP4 SWAP3 POP POP POP JUMP JUMPDEST PUSH32 0x42616C616E6365206E6F742073756666696369656E7400000000000000000000 PUSH0 DUP3 ADD MSTORE POP JUMP JUMPDEST PUSH0 PUSH2 0x93A PUSH1 0x16 DUP4 PUSH2 0x7E1 JUMP JUMPDEST SWAP2 POP PUSH2 0x945 DUP3 PUSH2 0x906 JUMP JUMPDEST PUSH1 0x20 DUP3 ADD SWAP1 POP SWAP2 SWAP1 POP JUMP JUMPDEST PUSH0 PUSH1 0x20 DUP3 ADD SWAP1 POP DUP2 DUP2 SUB PUSH0 DUP4 ADD MSTORE PUSH2 0x967 DUP2 PUSH2 0x92E JUMP JUMPDEST SWAP1 POP SWAP2 SWAP1 POP JUMP JUMPDEST PUSH32 0x446F6E2774207472616E73666572206D6F6E657920746F20796F757273656C66 PUSH0 DUP3 ADD MSTORE POP JUMP JUMPDEST PUSH0 PUSH2 0x9A2 PUSH1 0x20 DUP4 PUSH2 0x7E1 JUMP JUMPDEST SWAP2 POP PUSH2 0x9AD DUP3 PUSH2 0x96E JUMP JUMPDEST PUSH1 0x20 DUP3 ADD SWAP1 POP SWAP2 SWAP1 POP JUMP JUMPDEST PUSH0 PUSH1 0x20 DUP3 ADD SWAP1 POP DUP2 DUP2 SUB PUSH0 DUP4 ADD MSTORE PUSH2 0x9CF DUP2 PUSH2 0x996 JUMP JUMPDEST SWAP1 POP SWAP2 SWAP1 POP JUMP JUMPDEST PUSH0 PUSH1 0x60 DUP3 ADD SWAP1 POP PUSH2 0x9E9 PUSH0 DUP4 ADD DUP7 PUSH2 0x751 JUMP JUMPDEST PUSH2 0x9F6 PUSH1 0x20 DUP4 ADD DUP6 PUSH2 0x751 JUMP JUMPDEST PUSH2 0xA03 PUSH1 0x40 DUP4 ADD DUP5 PUSH2 0x6A0 JUMP JUMPDEST SWAP5 SWAP4 POP POP POP POP JUMP JUMPDEST PUSH0 PUSH2 0xA15 DUP3 PUSH2 0x697 JUMP JUMPDEST SWAP2 POP PUSH2 0xA20 DUP4 PUSH2 0x697 JUMP JUMPDEST SWAP3 POP DUP3 DUP3 SUB SWAP1 POP DUP2 DUP2 GT ISZERO PUSH2 0xA38 JUMPI PUSH2 0xA37 PUSH2 0x87F JUMP JUMPDEST JUMPDEST SWAP3 SWAP2 POP POP JUMP JUMPDEST PUSH32 0x4E487B7100000000000000000000000000000000000000000000000000000000 PUSH0 MSTORE PUSH1 0x1 PUSH1 0x4 MSTORE PUSH1 0x24 PUSH0 REVERT JUMPDEST PUSH0 PUSH2 0xA75 DUP3 PUSH2 0x697 JUMP JUMPDEST SWAP2 POP PUSH2 0xA80 DUP4 PUSH2 0x697 JUMP JUMPDEST SWAP3 POP DUP3 DUP3 MUL PUSH2 0xA8E DUP2 PUSH2 0x697 JUMP JUMPDEST SWAP2 POP DUP3 DUP3 DIV DUP5 EQ DUP4 ISZERO OR PUSH2 0xAA5 JUMPI PUSH2 0xAA4 PUSH2 0x87F JUMP JUMPDEST JUMPDEST POP SWAP3 SWAP2 POP POP JUMP INVALID LOG2 PUSH5 0x6970667358 0x22 SLT KECCAK256 PUSH22 0x5025D37BA14B339C1EA228AF5B75E416D4B40F2E179C PUSH15 0x72D2F543F365603E64736F6C634300 ADDMOD XOR STOP CALLER "
		},
		"gasEstimates": {
			"creation": {
				"codeDepositCost": "557200",
				"executionCost": "49123",
				"totalCost": "606323"
			},
			"external": {
				"deposite()": "infinite",
				"getBalance()": "2497",
				"getOwner()": "2537",
				"transfer(address,uint256)": "infinite",
				"withdraw(uint256)": "infinite"
			},
			"internal": {
				"_transfer(address,address,uint256)": "infinite"
			}
		},
		"methodIdentifiers": {
			"deposite()": "a50ec326",
			"getBalance()": "12065fe0",
			"getOwner()": "893d20e8",
			"transfer(address,uint256)": "a9059cbb",
			"withdraw(uint256)": "2e1a7d4d"
		}
	},
	"abi": [
		{
			"anonymous": false,
			"inputs": [
				{
					"indexed": false,
					"internalType": "uint256",
					"name": "amount",
					"type": "uint256"
				},
				{
					"indexed": false,
					"internalType": "address",
					"name": "depositedTo",
					"type": "address"
				}
			],
			"name": "depositeDone",
			"type": "event"
		},
		{
			"inputs": [],
			"name": "deposite",
			"outputs": [
				{
					"internalType": "uint256",
					"name": "",
					"type": "uint256"
				}
			],
			"stateMutability": "payable",
			"type": "function"
		},
		{
			"inputs": [],
			"name": "getBalance",
			"outputs": [
				{
					"internalType": "uint256",
					"name": "",
					"type": "uint256"
				}
			],
			"stateMutability": "view",
			"type": "function"
		},
		{
			"inputs": [],
			"name": "getOwner",
			"outputs": [
				{
					"internalType": "address",
					"name": "",
					"type": "address"
				}
			],
			"stateMutability": "view",
			"type": "function"
		},
		{
			"inputs": [
				{
					"internalType": "address",
					"name": "recipient",
					"type": "address"
				},
				{
					"internalType": "uint256",
					"name": "amount",
					"type": "uint256"
				}
			],
			"name": "transfer",
			"outputs": [],
			"stateMutability": "nonpayable",
			"type": "function"
		},
		{
			"inputs": [
				{
					"internalType": "uint256",
					"name": "amount",
					"type": "uint256"
				}
			],
			"name": "withdraw",
			"outputs": [
				{
					"internalType": "uint256",
					"name": "",
					"type": "uint256"
				}
			],
			"stateMutability": "nonpayable",
			"type": "function"
		}
	]
}