{
	"data": {
		"bytecode": {
			"linkReferences": {},
			"object": "608060405234801561000f575f80fd5b506107ae8061001d5f395ff3fe608060405234801561000f575f80fd5b5060043610610034575f3560e01c8063246982c414610038578063bc832d4e14610069575b5f80fd5b610052600480360381019061004d919061020a565b610085565b6040516100609291906102ce565b60405180910390f35b610083600480360381019061007e9190610428565b610161565b005b5f60605f80848154811061009c5761009b610482565b5b905f5260205f2090600202016040518060400160405290815f82015481526020016001820180546100cc906104dc565b80601f01602080910402602001604051908101604052809291908181526020018280546100f8906104dc565b80156101435780601f1061011a57610100808354040283529160200191610143565b820191905f5260205f20905b81548152906001019060200180831161012657829003601f168201915b5050505050815250509050805f015181602001519250925050915091565b5f60405180604001604052808481526020018381525090505f81908060018154018082558091505060019003905f5260205f2090600202015f909190919091505f820151815f015560208201518160010190816101be91906106a9565b505050505050565b5f604051905090565b5f80fd5b5f80fd5b5f819050919050565b6101e9816101d7565b81146101f3575f80fd5b50565b5f81359050610204816101e0565b92915050565b5f6020828403121561021f5761021e6101cf565b5b5f61022c848285016101f6565b91505092915050565b61023e816101d7565b82525050565b5f81519050919050565b5f82825260208201905092915050565b5f5b8381101561027b578082015181840152602081019050610260565b5f8484015250505050565b5f601f19601f8301169050919050565b5f6102a082610244565b6102aa818561024e565b93506102ba81856020860161025e565b6102c381610286565b840191505092915050565b5f6040820190506102e15f830185610235565b81810360208301526102f38184610296565b90509392505050565b5f80fd5b5f80fd5b7f4e487b71000000000000000000000000000000000000000000000000000000005f52604160045260245ffd5b61033a82610286565b810181811067ffffffffffffffff8211171561035957610358610304565b5b80604052505050565b5f61036b6101c6565b90506103778282610331565b919050565b5f67ffffffffffffffff82111561039657610395610304565b5b61039f82610286565b9050602081019050919050565b828183375f83830152505050565b5f6103cc6103c78461037c565b610362565b9050828152602081018484840111156103e8576103e7610300565b5b6103f38482856103ac565b509392505050565b5f82601f83011261040f5761040e6102fc565b5b813561041f8482602086016103ba565b91505092915050565b5f806040838503121561043e5761043d6101cf565b5b5f61044b858286016101f6565b925050602083013567ffffffffffffffff81111561046c5761046b6101d3565b5b610478858286016103fb565b9150509250929050565b7f4e487b71000000000000000000000000000000000000000000000000000000005f52603260045260245ffd5b7f4e487b71000000000000000000000000000000000000000000000000000000005f52602260045260245ffd5b5f60028204905060018216806104f357607f821691505b602082108103610506576105056104af565b5b50919050565b5f819050815f5260205f209050919050565b5f6020601f8301049050919050565b5f82821b905092915050565b5f600883026105687fffffffffffffffffffffffffffffffffffffffffffffffffffffffffffffffff8261052d565b610572868361052d565b95508019841693508086168417925050509392505050565b5f819050919050565b5f6105ad6105a86105a3846101d7565b61058a565b6101d7565b9050919050565b5f819050919050565b6105c683610593565b6105da6105d2826105b4565b848454610539565b825550505050565b5f90565b6105ee6105e2565b6105f98184846105bd565b505050565b5b8181101561061c576106115f826105e6565b6001810190506105ff565b5050565b601f821115610661576106328161050c565b61063b8461051e565b8101602085101561064a578190505b61065e6106568561051e565b8301826105fe565b50505b505050565b5f82821c905092915050565b5f6106815f1984600802610666565b1980831691505092915050565b5f6106998383610672565b9150826002028217905092915050565b6106b282610244565b67ffffffffffffffff8111156106cb576106ca610304565b5b6106d582546104dc565b6106e0828285610620565b5f60209050601f831160018114610711575f84156106ff578287015190505b610709858261068e565b865550610770565b601f19841661071f8661050c565b5f5b8281101561074657848901518255600182019150602085019450602081019050610721565b86831015610763578489015161075f601f891682610672565b8355505b6001600288020188555050505b50505050505056fea2646970667358221220443ab45d4fbeab16f2656c6ccf8ca8af409dc6150f665ed77930eddf217b170164736f6c63430008160033",
			"opcodes": "PUSH1 0x80 PUSH1 0x40 MSTORE CALLVALUE DUP1 ISZERO PUSH2 0xF JUMPI PUSH0 DUP1 REVERT JUMPDEST POP PUSH2 0x7AE DUP1 PUSH2 0x1D PUSH0 CODECOPY PUSH0 RETURN INVALID PUSH1 0x80 PUSH1 0x40 MSTORE CALLVALUE DUP1 ISZERO PUSH2 0xF JUMPI PUSH0 DUP1 REVERT JUMPDEST POP PUSH1 0x4 CALLDATASIZE LT PUSH2 0x34 JUMPI PUSH0 CALLDATALOAD PUSH1 0xE0 SHR DUP1 PUSH4 0x246982C4 EQ PUSH2 0x38 JUMPI DUP1 PUSH4 0xBC832D4E EQ PUSH2 0x69 JUMPI JUMPDEST PUSH0 DUP1 REVERT JUMPDEST PUSH2 0x52 PUSH1 0x4 DUP1 CALLDATASIZE SUB DUP2 ADD SWAP1 PUSH2 0x4D SWAP2 SWAP1 PUSH2 0x20A JUMP JUMPDEST PUSH2 0x85 JUMP JUMPDEST PUSH1 0x40 MLOAD PUSH2 0x60 SWAP3 SWAP2 SWAP1 PUSH2 0x2CE JUMP JUMPDEST PUSH1 0x40 MLOAD DUP1 SWAP2 SUB SWAP1 RETURN JUMPDEST PUSH2 0x83 PUSH1 0x4 DUP1 CALLDATASIZE SUB DUP2 ADD SWAP1 PUSH2 0x7E SWAP2 SWAP1 PUSH2 0x428 JUMP JUMPDEST PUSH2 0x161 JUMP JUMPDEST STOP JUMPDEST PUSH0 PUSH1 0x60 PUSH0 DUP1 DUP5 DUP2 SLOAD DUP2 LT PUSH2 0x9C JUMPI PUSH2 0x9B PUSH2 0x482 JUMP JUMPDEST JUMPDEST SWAP1 PUSH0 MSTORE PUSH1 0x20 PUSH0 KECCAK256 SWAP1 PUSH1 0x2 MUL ADD PUSH1 0x40 MLOAD DUP1 PUSH1 0x40 ADD PUSH1 0x40 MSTORE SWAP1 DUP2 PUSH0 DUP3 ADD SLOAD DUP2 MSTORE PUSH1 0x20 ADD PUSH1 0x1 DUP3 ADD DUP1 SLOAD PUSH2 0xCC SWAP1 PUSH2 0x4DC JUMP JUMPDEST DUP1 PUSH1 0x1F ADD PUSH1 0x20 DUP1 SWAP2 DIV MUL PUSH1 0x20 ADD PUSH1 0x40 MLOAD SWAP1 DUP2 ADD PUSH1 0x40 MSTORE DUP1 SWAP3 SWAP2 SWAP1 DUP2 DUP2 MSTORE PUSH1 0x20 ADD DUP3 DUP1 SLOAD PUSH2 0xF8 SWAP1 PUSH2 0x4DC JUMP JUMPDEST DUP1 ISZERO PUSH2 0x143 JUMPI DUP1 PUSH1 0x1F LT PUSH2 0x11A JUMPI PUSH2 0x100 DUP1 DUP4 SLOAD DIV MUL DUP4 MSTORE SWAP2 PUSH1 0x20 ADD SWAP2 PUSH2 0x143 JUMP JUMPDEST DUP3 ADD SWAP2 SWAP1 PUSH0 MSTORE PUSH1 0x20 PUSH0 KECCAK256 SWAP1 JUMPDEST DUP2 SLOAD DUP2 MSTORE SWAP1 PUSH1 0x1 ADD SWAP1 PUSH1 0x20 ADD DUP1 DUP4 GT PUSH2 0x126 JUMPI DUP3 SWAP1 SUB PUSH1 0x1F AND DUP3 ADD SWAP2 JUMPDEST POP POP POP POP POP DUP2 MSTORE POP POP SWAP1 POP DUP1 PUSH0 ADD MLOAD DUP2 PUSH1 0x20 ADD MLOAD SWAP3 POP SWAP3 POP POP SWAP2 POP SWAP2 JUMP JUMPDEST PUSH0 PUSH1 0x40 MLOAD DUP1 PUSH1 0x40 ADD PUSH1 0x40 MSTORE DUP1 DUP5 DUP2 MSTORE PUSH1 0x20 ADD DUP4 DUP2 MSTORE POP SWAP1 POP PUSH0 DUP2 SWAP1 DUP1 PUSH1 0x1 DUP2 SLOAD ADD DUP1 DUP3 SSTORE DUP1 SWAP2 POP POP PUSH1 0x1 SWAP1 SUB SWAP1 PUSH0 MSTORE PUSH1 0x20 PUSH0 KECCAK256 SWAP1 PUSH1 0x2 MUL ADD PUSH0 SWAP1 SWAP2 SWAP1 SWAP2 SWAP1 SWAP2 POP PUSH0 DUP3 ADD MLOAD DUP2 PUSH0 ADD SSTORE PUSH1 0x20 DUP3 ADD MLOAD DUP2 PUSH1 0x1 ADD SWAP1 DUP2 PUSH2 0x1BE SWAP2 SWAP1 PUSH2 0x6A9 JUMP JUMPDEST POP POP POP POP POP POP JUMP JUMPDEST PUSH0 PUSH1 0x40 MLOAD SWAP1 POP SWAP1 JUMP JUMPDEST PUSH0 DUP1 REVERT JUMPDEST PUSH0 DUP1 REVERT JUMPDEST PUSH0 DUP2 SWAP1 POP SWAP2 SWAP1 POP JUMP JUMPDEST PUSH2 0x1E9 DUP2 PUSH2 0x1D7 JUMP JUMPDEST DUP2 EQ PUSH2 0x1F3 JUMPI PUSH0 DUP1 REVERT JUMPDEST POP JUMP JUMPDEST PUSH0 DUP2 CALLDATALOAD SWAP1 POP PUSH2 0x204 DUP2 PUSH2 0x1E0 JUMP JUMPDEST SWAP3 SWAP2 POP POP JUMP JUMPDEST PUSH0 PUSH1 0x20 DUP3 DUP5 SUB SLT ISZERO PUSH2 0x21F JUMPI PUSH2 0x21E PUSH2 0x1CF JUMP JUMPDEST JUMPDEST PUSH0 PUSH2 0x22C DUP5 DUP3 DUP6 ADD PUSH2 0x1F6 JUMP JUMPDEST SWAP2 POP POP SWAP3 SWAP2 POP POP JUMP JUMPDEST PUSH2 0x23E DUP2 PUSH2 0x1D7 JUMP JUMPDEST DUP3 MSTORE POP POP JUMP JUMPDEST PUSH0 DUP2 MLOAD SWAP1 POP SWAP2 SWAP1 POP JUMP JUMPDEST PUSH0 DUP3 DUP3 MSTORE PUSH1 0x20 DUP3 ADD SWAP1 POP SWAP3 SWAP2 POP POP JUMP JUMPDEST PUSH0 JUMPDEST DUP4 DUP2 LT ISZERO PUSH2 0x27B JUMPI DUP1 DUP3 ADD MLOAD DUP2 DUP5 ADD MSTORE PUSH1 0x20 DUP2 ADD SWAP1 POP PUSH2 0x260 JUMP JUMPDEST PUSH0 DUP5 DUP5 ADD MSTORE POP POP POP POP JUMP JUMPDEST PUSH0 PUSH1 0x1F NOT PUSH1 0x1F DUP4 ADD AND SWAP1 POP SWAP2 SWAP1 POP JUMP JUMPDEST PUSH0 PUSH2 0x2A0 DUP3 PUSH2 0x244 JUMP JUMPDEST PUSH2 0x2AA DUP2 DUP6 PUSH2 0x24E JUMP JUMPDEST SWAP4 POP PUSH2 0x2BA DUP2 DUP6 PUSH1 0x20 DUP7 ADD PUSH2 0x25E JUMP JUMPDEST PUSH2 0x2C3 DUP2 PUSH2 0x286 JUMP JUMPDEST DUP5 ADD SWAP2 POP POP SWAP3 SWAP2 POP POP JUMP JUMPDEST PUSH0 PUSH1 0x40 DUP3 ADD SWAP1 POP PUSH2 0x2E1 PUSH0 DUP4 ADD DUP6 PUSH2 0x235 JUMP JUMPDEST DUP2 DUP2 SUB PUSH1 0x20 DUP4 ADD MSTORE PUSH2 0x2F3 DUP2 DUP5 PUSH2 0x296 JUMP JUMPDEST SWAP1 POP SWAP4 SWAP3 POP POP POP JUMP JUMPDEST PUSH0 DUP1 REVERT JUMPDEST PUSH0 DUP1 REVERT JUMPDEST PUSH32 0x4E487B7100000000000000000000000000000000000000000000000000000000 PUSH0 MSTORE PUSH1 0x41 PUSH1 0x4 MSTORE PUSH1 0x24 PUSH0 REVERT JUMPDEST PUSH2 0x33A DUP3 PUSH2 0x286 JUMP JUMPDEST DUP2 ADD DUP2 DUP2 LT PUSH8 0xFFFFFFFFFFFFFFFF DUP3 GT OR ISZERO PUSH2 0x359 JUMPI PUSH2 0x358 PUSH2 0x304 JUMP JUMPDEST JUMPDEST DUP1 PUSH1 0x40 MSTORE POP POP POP JUMP JUMPDEST PUSH0 PUSH2 0x36B PUSH2 0x1C6 JUMP JUMPDEST SWAP1 POP PUSH2 0x377 DUP3 DUP3 PUSH2 0x331 JUMP JUMPDEST SWAP2 SWAP1 POP JUMP JUMPDEST PUSH0 PUSH8 0xFFFFFFFFFFFFFFFF DUP3 GT ISZERO PUSH2 0x396 JUMPI PUSH2 0x395 PUSH2 0x304 JUMP JUMPDEST JUMPDEST PUSH2 0x39F DUP3 PUSH2 0x286 JUMP JUMPDEST SWAP1 POP PUSH1 0x20 DUP2 ADD SWAP1 POP SWAP2 SWAP1 POP JUMP JUMPDEST DUP3 DUP2 DUP4 CALLDATACOPY PUSH0 DUP4 DUP4 ADD MSTORE POP POP POP JUMP JUMPDEST PUSH0 PUSH2 0x3CC PUSH2 0x3C7 DUP5 PUSH2 0x37C JUMP JUMPDEST PUSH2 0x362 JUMP JUMPDEST SWAP1 POP DUP3 DUP2 MSTORE PUSH1 0x20 DUP2 ADD DUP5 DUP5 DUP5 ADD GT ISZERO PUSH2 0x3E8 JUMPI PUSH2 0x3E7 PUSH2 0x300 JUMP JUMPDEST JUMPDEST PUSH2 0x3F3 DUP5 DUP3 DUP6 PUSH2 0x3AC JUMP JUMPDEST POP SWAP4 SWAP3 POP POP POP JUMP JUMPDEST PUSH0 DUP3 PUSH1 0x1F DUP4 ADD SLT PUSH2 0x40F JUMPI PUSH2 0x40E PUSH2 0x2FC JUMP JUMPDEST JUMPDEST DUP2 CALLDATALOAD PUSH2 0x41F DUP5 DUP3 PUSH1 0x20 DUP7 ADD PUSH2 0x3BA JUMP JUMPDEST SWAP2 POP POP SWAP3 SWAP2 POP POP JUMP JUMPDEST PUSH0 DUP1 PUSH1 0x40 DUP4 DUP6 SUB SLT ISZERO PUSH2 0x43E JUMPI PUSH2 0x43D PUSH2 0x1CF JUMP JUMPDEST JUMPDEST PUSH0 PUSH2 0x44B DUP6 DUP3 DUP7 ADD PUSH2 0x1F6 JUMP JUMPDEST SWAP3 POP POP PUSH1 0x20 DUP4 ADD CALLDATALOAD PUSH8 0xFFFFFFFFFFFFFFFF DUP2 GT ISZERO PUSH2 0x46C JUMPI PUSH2 0x46B PUSH2 0x1D3 JUMP JUMPDEST JUMPDEST PUSH2 0x478 DUP6 DUP3 DUP7 ADD PUSH2 0x3FB JUMP JUMPDEST SWAP2 POP POP SWAP3 POP SWAP3 SWAP1 POP JUMP JUMPDEST PUSH32 0x4E487B7100000000000000000000000000000000000000000000000000000000 PUSH0 MSTORE PUSH1 0x32 PUSH1 0x4 MSTORE PUSH1 0x24 PUSH0 REVERT JUMPDEST PUSH32 0x4E487B7100000000000000000000000000000000000000000000000000000000 PUSH0 MSTORE PUSH1 0x22 PUSH1 0x4 MSTORE PUSH1 0x24 PUSH0 REVERT JUMPDEST PUSH0 PUSH1 0x2 DUP3 DIV SWAP1 POP PUSH1 0x1 DUP3 AND DUP1 PUSH2 0x4F3 JUMPI PUSH1 0x7F DUP3 AND SWAP2 POP JUMPDEST PUSH1 0x20 DUP3 LT DUP2 SUB PUSH2 0x506 JUMPI PUSH2 0x505 PUSH2 0x4AF JUMP JUMPDEST JUMPDEST POP SWAP2 SWAP1 POP JUMP JUMPDEST PUSH0 DUP2 SWAP1 POP DUP2 PUSH0 MSTORE PUSH1 0x20 PUSH0 KECCAK256 SWAP1 POP SWAP2 SWAP1 POP JUMP JUMPDEST PUSH0 PUSH1 0x20 PUSH1 0x1F DUP4 ADD DIV SWAP1 POP SWAP2 SWAP1 POP JUMP JUMPDEST PUSH0 DUP3 DUP3 SHL SWAP1 POP SWAP3 SWAP2 POP POP JUMP JUMPDEST PUSH0 PUSH1 0x8 DUP4 MUL PUSH2 0x568 PUSH32 0xFFFFFFFFFFFFFFFFFFFFFFFFFFFFFFFFFFFFFFFFFFFFFFFFFFFFFFFFFFFFFFFF DUP3 PUSH2 0x52D JUMP JUMPDEST PUSH2 0x572 DUP7 DUP4 PUSH2 0x52D JUMP JUMPDEST SWAP6 POP DUP1 NOT DUP5 AND SWAP4 POP DUP1 DUP7 AND DUP5 OR SWAP3 POP POP POP SWAP4 SWAP3 POP POP POP JUMP JUMPDEST PUSH0 DUP2 SWAP1 POP SWAP2 SWAP1 POP JUMP JUMPDEST PUSH0 PUSH2 0x5AD PUSH2 0x5A8 PUSH2 0x5A3 DUP5 PUSH2 0x1D7 JUMP JUMPDEST PUSH2 0x58A JUMP JUMPDEST PUSH2 0x1D7 JUMP JUMPDEST SWAP1 POP SWAP2 SWAP1 POP JUMP JUMPDEST PUSH0 DUP2 SWAP1 POP SWAP2 SWAP1 POP JUMP JUMPDEST PUSH2 0x5C6 DUP4 PUSH2 0x593 JUMP JUMPDEST PUSH2 0x5DA PUSH2 0x5D2 DUP3 PUSH2 0x5B4 JUMP JUMPDEST DUP5 DUP5 SLOAD PUSH2 0x539 JUMP JUMPDEST DUP3 SSTORE POP POP POP POP JUMP JUMPDEST PUSH0 SWAP1 JUMP JUMPDEST PUSH2 0x5EE PUSH2 0x5E2 JUMP JUMPDEST PUSH2 0x5F9 DUP2 DUP5 DUP5 PUSH2 0x5BD JUMP JUMPDEST POP POP POP JUMP JUMPDEST JUMPDEST DUP2 DUP2 LT ISZERO PUSH2 0x61C JUMPI PUSH2 0x611 PUSH0 DUP3 PUSH2 0x5E6 JUMP JUMPDEST PUSH1 0x1 DUP2 ADD SWAP1 POP PUSH2 0x5FF JUMP JUMPDEST POP POP JUMP JUMPDEST PUSH1 0x1F DUP3 GT ISZERO PUSH2 0x661 JUMPI PUSH2 0x632 DUP2 PUSH2 0x50C JUMP JUMPDEST PUSH2 0x63B DUP5 PUSH2 0x51E JUMP JUMPDEST DUP2 ADD PUSH1 0x20 DUP6 LT ISZERO PUSH2 0x64A JUMPI DUP2 SWAP1 POP JUMPDEST PUSH2 0x65E PUSH2 0x656 DUP6 PUSH2 0x51E JUMP JUMPDEST DUP4 ADD DUP3 PUSH2 0x5FE JUMP JUMPDEST POP POP JUMPDEST POP POP POP JUMP JUMPDEST PUSH0 DUP3 DUP3 SHR SWAP1 POP SWAP3 SWAP2 POP POP JUMP JUMPDEST PUSH0 PUSH2 0x681 PUSH0 NOT DUP5 PUSH1 0x8 MUL PUSH2 0x666 JUMP JUMPDEST NOT DUP1 DUP4 AND SWAP2 POP POP SWAP3 SWAP2 POP POP JUMP JUMPDEST PUSH0 PUSH2 0x699 DUP4 DUP4 PUSH2 0x672 JUMP JUMPDEST SWAP2 POP DUP3 PUSH1 0x2 MUL DUP3 OR SWAP1 POP SWAP3 SWAP2 POP POP JUMP JUMPDEST PUSH2 0x6B2 DUP3 PUSH2 0x244 JUMP JUMPDEST PUSH8 0xFFFFFFFFFFFFFFFF DUP2 GT ISZERO PUSH2 0x6CB JUMPI PUSH2 0x6CA PUSH2 0x304 JUMP JUMPDEST JUMPDEST PUSH2 0x6D5 DUP3 SLOAD PUSH2 0x4DC JUMP JUMPDEST PUSH2 0x6E0 DUP3 DUP3 DUP6 PUSH2 0x620 JUMP JUMPDEST PUSH0 PUSH1 0x20 SWAP1 POP PUSH1 0x1F DUP4 GT PUSH1 0x1 DUP2 EQ PUSH2 0x711 JUMPI PUSH0 DUP5 ISZERO PUSH2 0x6FF JUMPI DUP3 DUP8 ADD MLOAD SWAP1 POP JUMPDEST PUSH2 0x709 DUP6 DUP3 PUSH2 0x68E JUMP JUMPDEST DUP7 SSTORE POP PUSH2 0x770 JUMP JUMPDEST PUSH1 0x1F NOT DUP5 AND PUSH2 0x71F DUP7 PUSH2 0x50C JUMP JUMPDEST PUSH0 JUMPDEST DUP3 DUP2 LT ISZERO PUSH2 0x746 JUMPI DUP5 DUP10 ADD MLOAD DUP3 SSTORE PUSH1 0x1 DUP3 ADD SWAP2 POP PUSH1 0x20 DUP6 ADD SWAP5 POP PUSH1 0x20 DUP2 ADD SWAP1 POP PUSH2 0x721 JUMP JUMPDEST DUP7 DUP4 LT ISZERO PUSH2 0x763 JUMPI DUP5 DUP10 ADD MLOAD PUSH2 0x75F PUSH1 0x1F DUP10 AND DUP3 PUSH2 0x672 JUMP JUMPDEST DUP4 SSTORE POP JUMPDEST PUSH1 0x1 PUSH1 0x2 DUP9 MUL ADD DUP9 SSTORE POP POP POP JUMPDEST POP POP POP POP POP POP JUMP INVALID LOG2 PUSH5 0x6970667358 0x22 SLT KECCAK256 PREVRANDAO GASPRICE 0xB4 0x5D 0x4F 0xBE 0xAB AND CALLCODE PUSH6 0x6C6CCF8CA8AF BLOCKHASH SWAP14 0xC6 ISZERO 0xF PUSH7 0x5ED77930EDDF21 PUSH28 0x170164736F6C63430008160033000000000000000000000000000000 "
		},
		"gasEstimates": {
			"creation": {
				"codeDepositCost": "393200",
				"executionCost": "428",
				"totalCost": "393628"
			},
			"external": {
				"addPerson(uint256,string)": "infinite",
				"getPerson(uint256)": "infinite"
			}
		},
		"methodIdentifiers": {
			"addPerson(uint256,string)": "bc832d4e",
			"getPerson(uint256)": "246982c4"
		}
	},
	"abi": [
		{
			"inputs": [
				{
					"internalType": "uint256",
					"name": "_age",
					"type": "uint256"
				},
				{
					"internalType": "string",
					"name": "_name",
					"type": "string"
				}
			],
			"name": "addPerson",
			"outputs": [],
			"stateMutability": "nonpayable",
			"type": "function"
		},
		{
			"inputs": [
				{
					"internalType": "uint256",
					"name": "_index",
					"type": "uint256"
				}
			],
			"name": "getPerson",
			"outputs": [
				{
					"internalType": "uint256",
					"name": "",
					"type": "uint256"
				},
				{
					"internalType": "string",
					"name": "",
					"type": "string"
				}
			],
			"stateMutability": "view",
			"type": "function"
		}
	]
}