{
	"tutorial/variable_scope.sol": {
		"test": {
			"abi": [
				{
					"inputs": [],
					"name": "data",
					"outputs": [
						{
							"internalType": "uint256",
							"name": "",
							"type": "uint256"
						}
					],
					"stateMutability": "view",
					"type": "function"
				},
				{
					"inputs": [],
					"name": "getResult",
					"outputs": [
						{
							"internalType": "uint256",
							"name": "",
							"type": "uint256"
						}
					],
					"stateMutability": "view",
					"type": "function"
				},
				{
					"inputs": [],
					"name": "x",
					"outputs": [
						{
							"internalType": "uint256",
							"name": "",
							"type": "uint256"
						}
					],
					"stateMutability": "nonpayable",
					"type": "function"
				},
				{
					"inputs": [],
					"name": "y",
					"outputs": [
						{
							"internalType": "uint256",
							"name": "",
							"type": "uint256"
						}
					],
					"stateMutability": "nonpayable",
					"type": "function"
				}
			],
			"devdoc": {
				"kind": "dev",
				"methods": {},
				"version": 1
			},
			"evm": {
				"assembly": "    /* \"tutorial/variable_scope.sol\":385:618  contract test is C{... */\n  mstore(0x40, 0x80)\n    /* \"tutorial/variable_scope.sol\":102:107  30000 */\n  0x7530\n    /* \"tutorial/variable_scope.sol\":83:107  uint public data = 30000 */\n  0x00\n  sstore\n    /* \"tutorial/variable_scope.sol\":135:137  10 */\n  0x0a\n    /* \"tutorial/variable_scope.sol\":113:137  uint internal iData = 10 */\n  0x01\n  sstore\n    /* \"tutorial/variable_scope.sol\":385:618  contract test is C{... */\n  callvalue\n  dup1\n  iszero\n  tag_1\n  jumpi\n  0x00\n  dup1\n  revert\ntag_1:\n  pop\n  dataSize(sub_0)\n  dup1\n  dataOffset(sub_0)\n  0x00\n  codecopy\n  0x00\n  return\nstop\n\nsub_0: assembly {\n        /* \"tutorial/variable_scope.sol\":385:618  contract test is C{... */\n      mstore(0x40, 0x80)\n      callvalue\n      dup1\n      iszero\n      tag_1\n      jumpi\n      0x00\n      dup1\n      revert\n    tag_1:\n      pop\n      jumpi(tag_2, lt(calldatasize, 0x04))\n      shr(0xe0, calldataload(0x00))\n      dup1\n      0x0c55699c\n      eq\n      tag_3\n      jumpi\n      dup1\n      0x73d4a13a\n      eq\n      tag_4\n      jumpi\n      dup1\n      0xa56dfe4a\n      eq\n      tag_5\n      jumpi\n      dup1\n      0xde292789\n      eq\n      tag_6\n      jumpi\n    tag_2:\n      0x00\n      dup1\n      revert\n        /* \"tutorial/variable_scope.sol\":148:249  function x()  public returns (uint) {... */\n    tag_3:\n      tag_7\n      tag_8\n      jump\t// in\n    tag_7:\n      mload(0x40)\n      tag_9\n      swap2\n      swap1\n      tag_10\n      jump\t// in\n    tag_9:\n      mload(0x40)\n      dup1\n      swap2\n      sub\n      swap1\n      return\n        /* \"tutorial/variable_scope.sol\":83:107  uint public data = 30000 */\n    tag_4:\n      tag_11\n      tag_12\n      jump\t// in\n    tag_11:\n      mload(0x40)\n      tag_13\n      swap2\n      swap1\n      tag_10\n      jump\t// in\n    tag_13:\n      mload(0x40)\n      dup1\n      swap2\n      sub\n      swap1\n      return\n        /* \"tutorial/variable_scope.sol\":409:509  function y() public returns(uint){... */\n    tag_5:\n      tag_14\n      tag_15\n      jump\t// in\n    tag_14:\n      mload(0x40)\n      tag_16\n      swap2\n      swap1\n      tag_10\n      jump\t// in\n    tag_16:\n      mload(0x40)\n      dup1\n      swap2\n      sub\n      swap1\n      return\n        /* \"tutorial/variable_scope.sol\":515:616  function getResult() view public returns(uint){... */\n    tag_6:\n      tag_17\n      tag_18\n      jump\t// in\n    tag_17:\n      mload(0x40)\n      tag_19\n      swap2\n      swap1\n      tag_10\n      jump\t// in\n    tag_19:\n      mload(0x40)\n      dup1\n      swap2\n      sub\n      swap1\n      return\n        /* \"tutorial/variable_scope.sol\":148:249  function x()  public returns (uint) {... */\n    tag_8:\n        /* \"tutorial/variable_scope.sol\":178:182  uint */\n      0x00\n        /* \"tutorial/variable_scope.sol\":201:202  3 */\n      0x03\n        /* \"tutorial/variable_scope.sol\":194:198  data */\n      0x00\n        /* \"tutorial/variable_scope.sol\":194:202  data = 3 */\n      dup2\n      swap1\n      sstore\n      pop\n        /* \"tutorial/variable_scope.sol\":238:242  data */\n      sload(0x00)\n        /* \"tutorial/variable_scope.sol\":231:242  return data */\n      swap1\n      pop\n        /* \"tutorial/variable_scope.sol\":148:249  function x()  public returns (uint) {... */\n      swap1\n      jump\t// out\n        /* \"tutorial/variable_scope.sol\":83:107  uint public data = 30000 */\n    tag_12:\n      sload(0x00)\n      dup2\n      jump\t// out\n        /* \"tutorial/variable_scope.sol\":409:509  function y() public returns(uint){... */\n    tag_15:\n        /* \"tutorial/variable_scope.sol\":437:441  uint */\n      0x00\n        /* \"tutorial/variable_scope.sol\":460:461  3 */\n      0x03\n        /* \"tutorial/variable_scope.sol\":452:457  iData */\n      0x01\n        /* \"tutorial/variable_scope.sol\":452:461  iData = 3 */\n      dup2\n      swap1\n      sstore\n      pop\n        /* \"tutorial/variable_scope.sol\":497:502  iData */\n      sload(0x01)\n        /* \"tutorial/variable_scope.sol\":490:502  return iData */\n      swap1\n      pop\n        /* \"tutorial/variable_scope.sol\":409:509  function y() public returns(uint){... */\n      swap1\n      jump\t// out\n        /* \"tutorial/variable_scope.sol\":515:616  function getResult() view public returns(uint){... */\n    tag_18:\n        /* \"tutorial/variable_scope.sol\":556:560  uint */\n      0x00\n        /* \"tutorial/variable_scope.sol\":577:582  iData */\n      sload(0x01)\n        /* \"tutorial/variable_scope.sol\":570:582  return iData */\n      swap1\n      pop\n        /* \"tutorial/variable_scope.sol\":515:616  function getResult() view public returns(uint){... */\n      swap1\n      jump\t// out\n        /* \"#utility.yul\":7:84   */\n    tag_23:\n        /* \"#utility.yul\":44:51   */\n      0x00\n        /* \"#utility.yul\":73:78   */\n      dup2\n        /* \"#utility.yul\":62:78   */\n      swap1\n      pop\n        /* \"#utility.yul\":7:84   */\n      swap2\n      swap1\n      pop\n      jump\t// out\n        /* \"#utility.yul\":90:208   */\n    tag_24:\n        /* \"#utility.yul\":177:201   */\n      tag_28\n        /* \"#utility.yul\":195:200   */\n      dup2\n        /* \"#utility.yul\":177:201   */\n      tag_23\n      jump\t// in\n    tag_28:\n        /* \"#utility.yul\":172:175   */\n      dup3\n        /* \"#utility.yul\":165:202   */\n      mstore\n        /* \"#utility.yul\":90:208   */\n      pop\n      pop\n      jump\t// out\n        /* \"#utility.yul\":214:436   */\n    tag_10:\n        /* \"#utility.yul\":307:311   */\n      0x00\n        /* \"#utility.yul\":345:347   */\n      0x20\n        /* \"#utility.yul\":334:343   */\n      dup3\n        /* \"#utility.yul\":330:348   */\n      add\n        /* \"#utility.yul\":322:348   */\n      swap1\n      pop\n        /* \"#utility.yul\":358:429   */\n      tag_30\n        /* \"#utility.yul\":426:427   */\n      0x00\n        /* \"#utility.yul\":415:424   */\n      dup4\n        /* \"#utility.yul\":411:428   */\n      add\n        /* \"#utility.yul\":402:408   */\n      dup5\n        /* \"#utility.yul\":358:429   */\n      tag_24\n      jump\t// in\n    tag_30:\n        /* \"#utility.yul\":214:436   */\n      swap3\n      swap2\n      pop\n      pop\n      jump\t// out\n\n    auxdata: 0xa26469706673582212202bb1d8f4dc888de259ddc7b28b591123e7ba1bb62a5eda2fdbea3156d556e39664736f6c63430008180033\n}\n",
				"bytecode": {
					"linkReferences": {},
					"object": "60806040526175305f55600a600155348015610019575f80fd5b5061015b806100275f395ff3fe608060405234801561000f575f80fd5b506004361061004a575f3560e01c80630c55699c1461004e57806373d4a13a1461006c578063a56dfe4a1461008a578063de292789146100a8575b5f80fd5b6100566100c6565b604051610063919061010c565b60405180910390f35b6100746100d5565b604051610081919061010c565b60405180910390f35b6100926100da565b60405161009f919061010c565b60405180910390f35b6100b06100eb565b6040516100bd919061010c565b60405180910390f35b5f60035f819055505f54905090565b5f5481565b5f6003600181905550600154905090565b5f600154905090565b5f819050919050565b610106816100f4565b82525050565b5f60208201905061011f5f8301846100fd565b9291505056fea26469706673582212202bb1d8f4dc888de259ddc7b28b591123e7ba1bb62a5eda2fdbea3156d556e39664736f6c63430008180033",
					"opcodes": "PUSH1 0x80 PUSH1 0x40 MSTORE PUSH2 0x7530 PUSH0 SSTORE PUSH1 0xA PUSH1 0x1 SSTORE CALLVALUE DUP1 ISZERO PUSH2 0x19 JUMPI PUSH0 DUP1 REVERT JUMPDEST POP PUSH2 0x15B DUP1 PUSH2 0x27 PUSH0 CODECOPY PUSH0 RETURN INVALID PUSH1 0x80 PUSH1 0x40 MSTORE CALLVALUE DUP1 ISZERO PUSH2 0xF JUMPI PUSH0 DUP1 REVERT JUMPDEST POP PUSH1 0x4 CALLDATASIZE LT PUSH2 0x4A JUMPI PUSH0 CALLDATALOAD PUSH1 0xE0 SHR DUP1 PUSH4 0xC55699C EQ PUSH2 0x4E JUMPI DUP1 PUSH4 0x73D4A13A EQ PUSH2 0x6C JUMPI DUP1 PUSH4 0xA56DFE4A EQ PUSH2 0x8A JUMPI DUP1 PUSH4 0xDE292789 EQ PUSH2 0xA8 JUMPI JUMPDEST PUSH0 DUP1 REVERT JUMPDEST PUSH2 0x56 PUSH2 0xC6 JUMP JUMPDEST PUSH1 0x40 MLOAD PUSH2 0x63 SWAP2 SWAP1 PUSH2 0x10C JUMP JUMPDEST PUSH1 0x40 MLOAD DUP1 SWAP2 SUB SWAP1 RETURN JUMPDEST PUSH2 0x74 PUSH2 0xD5 JUMP JUMPDEST PUSH1 0x40 MLOAD PUSH2 0x81 SWAP2 SWAP1 PUSH2 0x10C JUMP JUMPDEST PUSH1 0x40 MLOAD DUP1 SWAP2 SUB SWAP1 RETURN JUMPDEST PUSH2 0x92 PUSH2 0xDA JUMP JUMPDEST PUSH1 0x40 MLOAD PUSH2 0x9F SWAP2 SWAP1 PUSH2 0x10C JUMP JUMPDEST PUSH1 0x40 MLOAD DUP1 SWAP2 SUB SWAP1 RETURN JUMPDEST PUSH2 0xB0 PUSH2 0xEB JUMP JUMPDEST PUSH1 0x40 MLOAD PUSH2 0xBD SWAP2 SWAP1 PUSH2 0x10C JUMP JUMPDEST PUSH1 0x40 MLOAD DUP1 SWAP2 SUB SWAP1 RETURN JUMPDEST PUSH0 PUSH1 0x3 PUSH0 DUP2 SWAP1 SSTORE POP PUSH0 SLOAD SWAP1 POP SWAP1 JUMP JUMPDEST PUSH0 SLOAD DUP2 JUMP JUMPDEST PUSH0 PUSH1 0x3 PUSH1 0x1 DUP2 SWAP1 SSTORE POP PUSH1 0x1 SLOAD SWAP1 POP SWAP1 JUMP JUMPDEST PUSH0 PUSH1 0x1 SLOAD SWAP1 POP SWAP1 JUMP JUMPDEST PUSH0 DUP2 SWAP1 POP SWAP2 SWAP1 POP JUMP JUMPDEST PUSH2 0x106 DUP2 PUSH2 0xF4 JUMP JUMPDEST DUP3 MSTORE POP POP JUMP JUMPDEST PUSH0 PUSH1 0x20 DUP3 ADD SWAP1 POP PUSH2 0x11F PUSH0 DUP4 ADD DUP5 PUSH2 0xFD JUMP JUMPDEST SWAP3 SWAP2 POP POP JUMP INVALID LOG2 PUSH5 0x6970667358 0x22 SLT KECCAK256 0x2B 0xB1 0xD8 DELEGATECALL 0xDC DUP9 DUP14 0xE2 MSIZE 0xDD 0xC7 0xB2 DUP12 MSIZE GT 0x23 0xE7 0xBA SHL 0xB6 0x2A MCOPY 0xDA 0x2F 0xDB 0xEA BALANCE JUMP 0xD5 JUMP 0xE3 SWAP7 PUSH5 0x736F6C6343 STOP ADDMOD XOR STOP CALLER "
				},
				"gasEstimates": {
					"creation": {
						"codeDepositCost": "69400",
						"executionCost": "44326",
						"totalCost": "113726"
					},
					"external": {
						"data()": "2424",
						"getResult()": "2476",
						"x()": "24522",
						"y()": "24568"
					}
				},
				"methodIdentifiers": {
					"data()": "73d4a13a",
					"getResult()": "de292789",
					"x()": "0c55699c",
					"y()": "a56dfe4a"
				}
			},
			"storageLayout": {
				"storage": [
					{
						"astId": 4,
						"contract": "tutorial/variable_scope.sol:test",
						"label": "data",
						"offset": 0,
						"slot": "0",
						"type": "t_uint256"
					},
					{
						"astId": 7,
						"contract": "tutorial/variable_scope.sol:test",
						"label": "iData",
						"offset": 0,
						"slot": "1",
						"type": "t_uint256"
					}
				],
				"types": {
					"t_uint256": {
						"encoding": "inplace",
						"label": "uint256",
						"numberOfBytes": "32"
					}
				}
			},
			"userdoc": {
				"kind": "user",
				"methods": {},
				"version": 1
			}
		}
	}
}