{
	"tutorial/counter,sol.sol": {
		"Counter": {
			"abi": [
				{
					"inputs": [],
					"name": "counter",
					"outputs": [
						{
							"internalType": "uint256",
							"name": "",
							"type": "uint256"
						}
					],
					"stateMutability": "view",
					"type": "function"
				},
				{
					"inputs": [],
					"name": "dec",
					"outputs": [],
					"stateMutability": "nonpayable",
					"type": "function"
				},
				{
					"inputs": [],
					"name": "div",
					"outputs": [],
					"stateMutability": "nonpayable",
					"type": "function"
				},
				{
					"inputs": [],
					"name": "inc",
					"outputs": [],
					"stateMutability": "nonpayable",
					"type": "function"
				},
				{
					"inputs": [],
					"name": "mul",
					"outputs": [],
					"stateMutability": "nonpayable",
					"type": "function"
				},
				{
					"inputs": [],
					"name": "rem",
					"outputs": [],
					"stateMutability": "nonpayable",
					"type": "function"
				},
				{
					"inputs": [],
					"name": "test",
					"outputs": [],
					"stateMutability": "nonpayable",
					"type": "function"
				}
			],
			"devdoc": {
				"kind": "dev",
				"methods": {},
				"version": 1
			},
			"evm": {
				"assembly": "    /* \"tutorial/counter,sol.sol\":61:499  contract Counter{... */\n  mstore(0x40, 0x80)\n  callvalue\n  dup1\n  iszero\n  tag_1\n  jumpi\n  0x00\n  dup1\n  revert\ntag_1:\n  pop\n  dataSize(sub_0)\n  dup1\n  dataOffset(sub_0)\n  0x00\n  codecopy\n  0x00\n  return\nstop\n\nsub_0: assembly {\n        /* \"tutorial/counter,sol.sol\":61:499  contract Counter{... */\n      mstore(0x40, 0x80)\n      callvalue\n      dup1\n      iszero\n      tag_1\n      jumpi\n      0x00\n      dup1\n      revert\n    tag_1:\n      pop\n      jumpi(tag_2, lt(calldatasize, 0x04))\n      shr(0xe0, calldataload(0x00))\n      dup1\n      0xa582f86e\n      gt\n      tag_10\n      jumpi\n      dup1\n      0xa582f86e\n      eq\n      tag_6\n      jumpi\n      dup1\n      0xb3bcfa82\n      eq\n      tag_7\n      jumpi\n      dup1\n      0xf8a8fd6d\n      eq\n      tag_8\n      jumpi\n      dup1\n      0xf9fa48c3\n      eq\n      tag_9\n      jumpi\n      jump(tag_2)\n    tag_10:\n      dup1\n      0x371303c0\n      eq\n      tag_3\n      jumpi\n      dup1\n      0x58931c46\n      eq\n      tag_4\n      jumpi\n      dup1\n      0x61bc221a\n      eq\n      tag_5\n      jumpi\n    tag_2:\n      0x00\n      dup1\n      revert\n        /* \"tutorial/counter,sol.sol\":114:170  function inc() external {... */\n    tag_3:\n      tag_11\n      tag_12\n      jump\t// in\n    tag_11:\n      stop\n        /* \"tutorial/counter,sol.sol\":241:296  function mul() external {... */\n    tag_4:\n      tag_13\n      tag_14\n      jump\t// in\n    tag_13:\n      stop\n        /* \"tutorial/counter,sol.sol\":86:105  uint public counter */\n    tag_5:\n      tag_15\n      tag_16\n      jump\t// in\n    tag_15:\n      mload(0x40)\n      tag_17\n      swap2\n      swap1\n      tag_18\n      jump\t// in\n    tag_17:\n      mload(0x40)\n      dup1\n      swap2\n      sub\n      swap1\n      return\n        /* \"tutorial/counter,sol.sol\":367:422  function rem() external {... */\n    tag_6:\n      tag_19\n      tag_20\n      jump\t// in\n    tag_19:\n      stop\n        /* \"tutorial/counter,sol.sol\":178:233  function dec() external {... */\n    tag_7:\n      tag_21\n      tag_22\n      jump\t// in\n    tag_21:\n      stop\n        /* \"tutorial/counter,sol.sol\":430:496  function test() external {... */\n    tag_8:\n      tag_23\n      tag_24\n      jump\t// in\n    tag_23:\n      stop\n        /* \"tutorial/counter,sol.sol\":304:359  function div() external {... */\n    tag_9:\n      tag_25\n      tag_26\n      jump\t// in\n    tag_25:\n      stop\n        /* \"tutorial/counter,sol.sol\":114:170  function inc() external {... */\n    tag_12:\n        /* \"tutorial/counter,sol.sol\":160:162  20 */\n      0x14\n        /* \"tutorial/counter,sol.sol\":149:156  counter */\n      0x00\n      dup1\n        /* \"tutorial/counter,sol.sol\":149:162  counter += 20 */\n      dup3\n      dup3\n      sload\n      tag_28\n      swap2\n      swap1\n      tag_29\n      jump\t// in\n    tag_28:\n      swap3\n      pop\n      pop\n      dup2\n      swap1\n      sstore\n      pop\n        /* \"tutorial/counter,sol.sol\":114:170  function inc() external {... */\n      jump\t// out\n        /* \"tutorial/counter,sol.sol\":241:296  function mul() external {... */\n    tag_14:\n        /* \"tutorial/counter,sol.sol\":287:288  3 */\n      0x03\n        /* \"tutorial/counter,sol.sol\":276:283  counter */\n      0x00\n      dup1\n        /* \"tutorial/counter,sol.sol\":276:288  counter *= 3 */\n      dup3\n      dup3\n      sload\n      tag_31\n      swap2\n      swap1\n      tag_32\n      jump\t// in\n    tag_31:\n      swap3\n      pop\n      pop\n      dup2\n      swap1\n      sstore\n      pop\n        /* \"tutorial/counter,sol.sol\":241:296  function mul() external {... */\n      jump\t// out\n        /* \"tutorial/counter,sol.sol\":86:105  uint public counter */\n    tag_16:\n      sload(0x00)\n      dup2\n      jump\t// out\n        /* \"tutorial/counter,sol.sol\":367:422  function rem() external {... */\n    tag_20:\n        /* \"tutorial/counter,sol.sol\":413:414  2 */\n      0x02\n        /* \"tutorial/counter,sol.sol\":402:409  counter */\n      0x00\n      dup1\n        /* \"tutorial/counter,sol.sol\":402:414  counter %= 2 */\n      dup3\n      dup3\n      sload\n      tag_34\n      swap2\n      swap1\n      tag_35\n      jump\t// in\n    tag_34:\n      swap3\n      pop\n      pop\n      dup2\n      swap1\n      sstore\n      pop\n        /* \"tutorial/counter,sol.sol\":367:422  function rem() external {... */\n      jump\t// out\n        /* \"tutorial/counter,sol.sol\":178:233  function dec() external {... */\n    tag_22:\n        /* \"tutorial/counter,sol.sol\":224:225  1 */\n      0x01\n        /* \"tutorial/counter,sol.sol\":213:220  counter */\n      0x00\n      dup1\n        /* \"tutorial/counter,sol.sol\":213:225  counter -= 1 */\n      dup3\n      dup3\n      sload\n      tag_37\n      swap2\n      swap1\n      tag_38\n      jump\t// in\n    tag_37:\n      swap3\n      pop\n      pop\n      dup2\n      swap1\n      sstore\n      pop\n        /* \"tutorial/counter,sol.sol\":178:233  function dec() external {... */\n      jump\t// out\n        /* \"tutorial/counter,sol.sol\":430:496  function test() external {... */\n    tag_24:\n        /* \"tutorial/counter,sol.sol\":478:488  10 + 2 - 8 */\n      0x04\n        /* \"tutorial/counter,sol.sol\":466:473  counter */\n      0x00\n      dup1\n        /* \"tutorial/counter,sol.sol\":466:488  counter *=  10 + 2 - 8 */\n      dup3\n      dup3\n      sload\n      tag_40\n      swap2\n      swap1\n      tag_32\n      jump\t// in\n    tag_40:\n      swap3\n      pop\n      pop\n      dup2\n      swap1\n      sstore\n      pop\n        /* \"tutorial/counter,sol.sol\":430:496  function test() external {... */\n      jump\t// out\n        /* \"tutorial/counter,sol.sol\":304:359  function div() external {... */\n    tag_26:\n        /* \"tutorial/counter,sol.sol\":350:351  4 */\n      0x04\n        /* \"tutorial/counter,sol.sol\":339:346  counter */\n      0x00\n      dup1\n        /* \"tutorial/counter,sol.sol\":339:351  counter /= 4 */\n      dup3\n      dup3\n      sload\n      tag_42\n      swap2\n      swap1\n      tag_43\n      jump\t// in\n    tag_42:\n      swap3\n      pop\n      pop\n      dup2\n      swap1\n      sstore\n      pop\n        /* \"tutorial/counter,sol.sol\":304:359  function div() external {... */\n      jump\t// out\n        /* \"#utility.yul\":7:84   */\n    tag_44:\n        /* \"#utility.yul\":44:51   */\n      0x00\n        /* \"#utility.yul\":73:78   */\n      dup2\n        /* \"#utility.yul\":62:78   */\n      swap1\n      pop\n        /* \"#utility.yul\":7:84   */\n      swap2\n      swap1\n      pop\n      jump\t// out\n        /* \"#utility.yul\":90:208   */\n    tag_45:\n        /* \"#utility.yul\":177:201   */\n      tag_51\n        /* \"#utility.yul\":195:200   */\n      dup2\n        /* \"#utility.yul\":177:201   */\n      tag_44\n      jump\t// in\n    tag_51:\n        /* \"#utility.yul\":172:175   */\n      dup3\n        /* \"#utility.yul\":165:202   */\n      mstore\n        /* \"#utility.yul\":90:208   */\n      pop\n      pop\n      jump\t// out\n        /* \"#utility.yul\":214:436   */\n    tag_18:\n        /* \"#utility.yul\":307:311   */\n      0x00\n        /* \"#utility.yul\":345:347   */\n      0x20\n        /* \"#utility.yul\":334:343   */\n      dup3\n        /* \"#utility.yul\":330:348   */\n      add\n        /* \"#utility.yul\":322:348   */\n      swap1\n      pop\n        /* \"#utility.yul\":358:429   */\n      tag_53\n        /* \"#utility.yul\":426:427   */\n      0x00\n        /* \"#utility.yul\":415:424   */\n      dup4\n        /* \"#utility.yul\":411:428   */\n      add\n        /* \"#utility.yul\":402:408   */\n      dup5\n        /* \"#utility.yul\":358:429   */\n      tag_45\n      jump\t// in\n    tag_53:\n        /* \"#utility.yul\":214:436   */\n      swap3\n      swap2\n      pop\n      pop\n      jump\t// out\n        /* \"#utility.yul\":442:622   */\n    tag_46:\n        /* \"#utility.yul\":490:567   */\n      0x4e487b7100000000000000000000000000000000000000000000000000000000\n        /* \"#utility.yul\":487:488   */\n      0x00\n        /* \"#utility.yul\":480:568   */\n      mstore\n        /* \"#utility.yul\":587:591   */\n      0x11\n        /* \"#utility.yul\":584:585   */\n      0x04\n        /* \"#utility.yul\":577:592   */\n      mstore\n        /* \"#utility.yul\":611:615   */\n      0x24\n        /* \"#utility.yul\":608:609   */\n      0x00\n        /* \"#utility.yul\":601:616   */\n      revert\n        /* \"#utility.yul\":628:819   */\n    tag_29:\n        /* \"#utility.yul\":668:671   */\n      0x00\n        /* \"#utility.yul\":687:707   */\n      tag_56\n        /* \"#utility.yul\":705:706   */\n      dup3\n        /* \"#utility.yul\":687:707   */\n      tag_44\n      jump\t// in\n    tag_56:\n        /* \"#utility.yul\":682:707   */\n      swap2\n      pop\n        /* \"#utility.yul\":721:741   */\n      tag_57\n        /* \"#utility.yul\":739:740   */\n      dup4\n        /* \"#utility.yul\":721:741   */\n      tag_44\n      jump\t// in\n    tag_57:\n        /* \"#utility.yul\":716:741   */\n      swap3\n      pop\n        /* \"#utility.yul\":764:765   */\n      dup3\n        /* \"#utility.yul\":761:762   */\n      dup3\n        /* \"#utility.yul\":757:766   */\n      add\n        /* \"#utility.yul\":750:766   */\n      swap1\n      pop\n        /* \"#utility.yul\":785:788   */\n      dup1\n        /* \"#utility.yul\":782:783   */\n      dup3\n        /* \"#utility.yul\":779:789   */\n      gt\n        /* \"#utility.yul\":776:812   */\n      iszero\n      tag_58\n      jumpi\n        /* \"#utility.yul\":792:810   */\n      tag_59\n      tag_46\n      jump\t// in\n    tag_59:\n        /* \"#utility.yul\":776:812   */\n    tag_58:\n        /* \"#utility.yul\":628:819   */\n      swap3\n      swap2\n      pop\n      pop\n      jump\t// out\n        /* \"#utility.yul\":825:1235   */\n    tag_32:\n        /* \"#utility.yul\":865:872   */\n      0x00\n        /* \"#utility.yul\":888:908   */\n      tag_61\n        /* \"#utility.yul\":906:907   */\n      dup3\n        /* \"#utility.yul\":888:908   */\n      tag_44\n      jump\t// in\n    tag_61:\n        /* \"#utility.yul\":883:908   */\n      swap2\n      pop\n        /* \"#utility.yul\":922:942   */\n      tag_62\n        /* \"#utility.yul\":940:941   */\n      dup4\n        /* \"#utility.yul\":922:942   */\n      tag_44\n      jump\t// in\n    tag_62:\n        /* \"#utility.yul\":917:942   */\n      swap3\n      pop\n        /* \"#utility.yul\":977:978   */\n      dup3\n        /* \"#utility.yul\":974:975   */\n      dup3\n        /* \"#utility.yul\":970:979   */\n      mul\n        /* \"#utility.yul\":999:1029   */\n      tag_63\n        /* \"#utility.yul\":1017:1028   */\n      dup2\n        /* \"#utility.yul\":999:1029   */\n      tag_44\n      jump\t// in\n    tag_63:\n        /* \"#utility.yul\":988:1029   */\n      swap2\n      pop\n        /* \"#utility.yul\":1178:1179   */\n      dup3\n        /* \"#utility.yul\":1169:1176   */\n      dup3\n        /* \"#utility.yul\":1165:1180   */\n      div\n        /* \"#utility.yul\":1162:1163   */\n      dup5\n        /* \"#utility.yul\":1159:1181   */\n      eq\n        /* \"#utility.yul\":1139:1140   */\n      dup4\n        /* \"#utility.yul\":1132:1141   */\n      iszero\n        /* \"#utility.yul\":1112:1195   */\n      or\n        /* \"#utility.yul\":1089:1228   */\n      tag_64\n      jumpi\n        /* \"#utility.yul\":1208:1226   */\n      tag_65\n      tag_46\n      jump\t// in\n    tag_65:\n        /* \"#utility.yul\":1089:1228   */\n    tag_64:\n        /* \"#utility.yul\":873:1235   */\n      pop\n        /* \"#utility.yul\":825:1235   */\n      swap3\n      swap2\n      pop\n      pop\n      jump\t// out\n        /* \"#utility.yul\":1241:1421   */\n    tag_47:\n        /* \"#utility.yul\":1289:1366   */\n      0x4e487b7100000000000000000000000000000000000000000000000000000000\n        /* \"#utility.yul\":1286:1287   */\n      0x00\n        /* \"#utility.yul\":1279:1367   */\n      mstore\n        /* \"#utility.yul\":1386:1390   */\n      0x12\n        /* \"#utility.yul\":1383:1384   */\n      0x04\n        /* \"#utility.yul\":1376:1391   */\n      mstore\n        /* \"#utility.yul\":1410:1414   */\n      0x24\n        /* \"#utility.yul\":1407:1408   */\n      0x00\n        /* \"#utility.yul\":1400:1415   */\n      revert\n        /* \"#utility.yul\":1427:1603   */\n    tag_35:\n        /* \"#utility.yul\":1459:1460   */\n      0x00\n        /* \"#utility.yul\":1476:1496   */\n      tag_68\n        /* \"#utility.yul\":1494:1495   */\n      dup3\n        /* \"#utility.yul\":1476:1496   */\n      tag_44\n      jump\t// in\n    tag_68:\n        /* \"#utility.yul\":1471:1496   */\n      swap2\n      pop\n        /* \"#utility.yul\":1510:1530   */\n      tag_69\n        /* \"#utility.yul\":1528:1529   */\n      dup4\n        /* \"#utility.yul\":1510:1530   */\n      tag_44\n      jump\t// in\n    tag_69:\n        /* \"#utility.yul\":1505:1530   */\n      swap3\n      pop\n        /* \"#utility.yul\":1549:1550   */\n      dup3\n        /* \"#utility.yul\":1539:1574   */\n      tag_70\n      jumpi\n        /* \"#utility.yul\":1554:1572   */\n      tag_71\n      tag_47\n      jump\t// in\n    tag_71:\n        /* \"#utility.yul\":1539:1574   */\n    tag_70:\n        /* \"#utility.yul\":1595:1596   */\n      dup3\n        /* \"#utility.yul\":1592:1593   */\n      dup3\n        /* \"#utility.yul\":1588:1597   */\n      mod\n        /* \"#utility.yul\":1583:1597   */\n      swap1\n      pop\n        /* \"#utility.yul\":1427:1603   */\n      swap3\n      swap2\n      pop\n      pop\n      jump\t// out\n        /* \"#utility.yul\":1609:1803   */\n    tag_38:\n        /* \"#utility.yul\":1649:1653   */\n      0x00\n        /* \"#utility.yul\":1669:1689   */\n      tag_73\n        /* \"#utility.yul\":1687:1688   */\n      dup3\n        /* \"#utility.yul\":1669:1689   */\n      tag_44\n      jump\t// in\n    tag_73:\n        /* \"#utility.yul\":1664:1689   */\n      swap2\n      pop\n        /* \"#utility.yul\":1703:1723   */\n      tag_74\n        /* \"#utility.yul\":1721:1722   */\n      dup4\n        /* \"#utility.yul\":1703:1723   */\n      tag_44\n      jump\t// in\n    tag_74:\n        /* \"#utility.yul\":1698:1723   */\n      swap3\n      pop\n        /* \"#utility.yul\":1747:1748   */\n      dup3\n        /* \"#utility.yul\":1744:1745   */\n      dup3\n        /* \"#utility.yul\":1740:1749   */\n      sub\n        /* \"#utility.yul\":1732:1749   */\n      swap1\n      pop\n        /* \"#utility.yul\":1771:1772   */\n      dup2\n        /* \"#utility.yul\":1765:1769   */\n      dup2\n        /* \"#utility.yul\":1762:1773   */\n      gt\n        /* \"#utility.yul\":1759:1796   */\n      iszero\n      tag_75\n      jumpi\n        /* \"#utility.yul\":1776:1794   */\n      tag_76\n      tag_46\n      jump\t// in\n    tag_76:\n        /* \"#utility.yul\":1759:1796   */\n    tag_75:\n        /* \"#utility.yul\":1609:1803   */\n      swap3\n      swap2\n      pop\n      pop\n      jump\t// out\n        /* \"#utility.yul\":1809:1994   */\n    tag_43:\n        /* \"#utility.yul\":1849:1850   */\n      0x00\n        /* \"#utility.yul\":1866:1886   */\n      tag_78\n        /* \"#utility.yul\":1884:1885   */\n      dup3\n        /* \"#utility.yul\":1866:1886   */\n      tag_44\n      jump\t// in\n    tag_78:\n        /* \"#utility.yul\":1861:1886   */\n      swap2\n      pop\n        /* \"#utility.yul\":1900:1920   */\n      tag_79\n        /* \"#utility.yul\":1918:1919   */\n      dup4\n        /* \"#utility.yul\":1900:1920   */\n      tag_44\n      jump\t// in\n    tag_79:\n        /* \"#utility.yul\":1895:1920   */\n      swap3\n      pop\n        /* \"#utility.yul\":1939:1940   */\n      dup3\n        /* \"#utility.yul\":1929:1964   */\n      tag_80\n      jumpi\n        /* \"#utility.yul\":1944:1962   */\n      tag_81\n      tag_47\n      jump\t// in\n    tag_81:\n        /* \"#utility.yul\":1929:1964   */\n    tag_80:\n        /* \"#utility.yul\":1986:1987   */\n      dup3\n        /* \"#utility.yul\":1983:1984   */\n      dup3\n        /* \"#utility.yul\":1979:1988   */\n      div\n        /* \"#utility.yul\":1974:1988   */\n      swap1\n      pop\n        /* \"#utility.yul\":1809:1994   */\n      swap3\n      swap2\n      pop\n      pop\n      jump\t// out\n\n    auxdata: 0xa264697066735822122085c2cf72fcabca03ef82fa1739c1b731fef6b7cc4db5b4e159ff28a29c53091264736f6c63430008160033\n}\n",
				"bytecode": {
					"linkReferences": {},
					"object": "608060405234801561000f575f80fd5b506103428061001d5f395ff3fe608060405234801561000f575f80fd5b506004361061007b575f3560e01c8063a582f86e11610059578063a582f86e146100b1578063b3bcfa82146100bb578063f8a8fd6d146100c5578063f9fa48c3146100cf5761007b565b8063371303c01461007f57806358931c461461008957806361bc221a14610093575b5f80fd5b6100876100d9565b005b6100916100f3565b005b61009b61010d565b6040516100a89190610192565b60405180910390f35b6100b9610112565b005b6100c361012c565b005b6100cd610146565b005b6100d7610160565b005b60145f808282546100ea91906101d8565b92505081905550565b60035f80828254610104919061020b565b92505081905550565b5f5481565b60025f808282546101239190610279565b92505081905550565b60015f8082825461013d91906102a9565b92505081905550565b60045f80828254610157919061020b565b92505081905550565b60045f8082825461017191906102dc565b92505081905550565b5f819050919050565b61018c8161017a565b82525050565b5f6020820190506101a55f830184610183565b92915050565b7f4e487b71000000000000000000000000000000000000000000000000000000005f52601160045260245ffd5b5f6101e28261017a565b91506101ed8361017a565b9250828201905080821115610205576102046101ab565b5b92915050565b5f6102158261017a565b91506102208361017a565b925082820261022e8161017a565b91508282048414831517610245576102446101ab565b5b5092915050565b7f4e487b71000000000000000000000000000000000000000000000000000000005f52601260045260245ffd5b5f6102838261017a565b915061028e8361017a565b92508261029e5761029d61024c565b5b828206905092915050565b5f6102b38261017a565b91506102be8361017a565b92508282039050818111156102d6576102d56101ab565b5b92915050565b5f6102e68261017a565b91506102f18361017a565b9250826103015761030061024c565b5b82820490509291505056fea264697066735822122085c2cf72fcabca03ef82fa1739c1b731fef6b7cc4db5b4e159ff28a29c53091264736f6c63430008160033",
					"opcodes": "PUSH1 0x80 PUSH1 0x40 MSTORE CALLVALUE DUP1 ISZERO PUSH2 0xF JUMPI PUSH0 DUP1 REVERT JUMPDEST POP PUSH2 0x342 DUP1 PUSH2 0x1D PUSH0 CODECOPY PUSH0 RETURN INVALID PUSH1 0x80 PUSH1 0x40 MSTORE CALLVALUE DUP1 ISZERO PUSH2 0xF JUMPI PUSH0 DUP1 REVERT JUMPDEST POP PUSH1 0x4 CALLDATASIZE LT PUSH2 0x7B JUMPI PUSH0 CALLDATALOAD PUSH1 0xE0 SHR DUP1 PUSH4 0xA582F86E GT PUSH2 0x59 JUMPI DUP1 PUSH4 0xA582F86E EQ PUSH2 0xB1 JUMPI DUP1 PUSH4 0xB3BCFA82 EQ PUSH2 0xBB JUMPI DUP1 PUSH4 0xF8A8FD6D EQ PUSH2 0xC5 JUMPI DUP1 PUSH4 0xF9FA48C3 EQ PUSH2 0xCF JUMPI PUSH2 0x7B JUMP JUMPDEST DUP1 PUSH4 0x371303C0 EQ PUSH2 0x7F JUMPI DUP1 PUSH4 0x58931C46 EQ PUSH2 0x89 JUMPI DUP1 PUSH4 0x61BC221A EQ PUSH2 0x93 JUMPI JUMPDEST PUSH0 DUP1 REVERT JUMPDEST PUSH2 0x87 PUSH2 0xD9 JUMP JUMPDEST STOP JUMPDEST PUSH2 0x91 PUSH2 0xF3 JUMP JUMPDEST STOP JUMPDEST PUSH2 0x9B PUSH2 0x10D JUMP JUMPDEST PUSH1 0x40 MLOAD PUSH2 0xA8 SWAP2 SWAP1 PUSH2 0x192 JUMP JUMPDEST PUSH1 0x40 MLOAD DUP1 SWAP2 SUB SWAP1 RETURN JUMPDEST PUSH2 0xB9 PUSH2 0x112 JUMP JUMPDEST STOP JUMPDEST PUSH2 0xC3 PUSH2 0x12C JUMP JUMPDEST STOP JUMPDEST PUSH2 0xCD PUSH2 0x146 JUMP JUMPDEST STOP JUMPDEST PUSH2 0xD7 PUSH2 0x160 JUMP JUMPDEST STOP JUMPDEST PUSH1 0x14 PUSH0 DUP1 DUP3 DUP3 SLOAD PUSH2 0xEA SWAP2 SWAP1 PUSH2 0x1D8 JUMP JUMPDEST SWAP3 POP POP DUP2 SWAP1 SSTORE POP JUMP JUMPDEST PUSH1 0x3 PUSH0 DUP1 DUP3 DUP3 SLOAD PUSH2 0x104 SWAP2 SWAP1 PUSH2 0x20B JUMP JUMPDEST SWAP3 POP POP DUP2 SWAP1 SSTORE POP JUMP JUMPDEST PUSH0 SLOAD DUP2 JUMP JUMPDEST PUSH1 0x2 PUSH0 DUP1 DUP3 DUP3 SLOAD PUSH2 0x123 SWAP2 SWAP1 PUSH2 0x279 JUMP JUMPDEST SWAP3 POP POP DUP2 SWAP1 SSTORE POP JUMP JUMPDEST PUSH1 0x1 PUSH0 DUP1 DUP3 DUP3 SLOAD PUSH2 0x13D SWAP2 SWAP1 PUSH2 0x2A9 JUMP JUMPDEST SWAP3 POP POP DUP2 SWAP1 SSTORE POP JUMP JUMPDEST PUSH1 0x4 PUSH0 DUP1 DUP3 DUP3 SLOAD PUSH2 0x157 SWAP2 SWAP1 PUSH2 0x20B JUMP JUMPDEST SWAP3 POP POP DUP2 SWAP1 SSTORE POP JUMP JUMPDEST PUSH1 0x4 PUSH0 DUP1 DUP3 DUP3 SLOAD PUSH2 0x171 SWAP2 SWAP1 PUSH2 0x2DC JUMP JUMPDEST SWAP3 POP POP DUP2 SWAP1 SSTORE POP JUMP JUMPDEST PUSH0 DUP2 SWAP1 POP SWAP2 SWAP1 POP JUMP JUMPDEST PUSH2 0x18C DUP2 PUSH2 0x17A JUMP JUMPDEST DUP3 MSTORE POP POP JUMP JUMPDEST PUSH0 PUSH1 0x20 DUP3 ADD SWAP1 POP PUSH2 0x1A5 PUSH0 DUP4 ADD DUP5 PUSH2 0x183 JUMP JUMPDEST SWAP3 SWAP2 POP POP JUMP JUMPDEST PUSH32 0x4E487B7100000000000000000000000000000000000000000000000000000000 PUSH0 MSTORE PUSH1 0x11 PUSH1 0x4 MSTORE PUSH1 0x24 PUSH0 REVERT JUMPDEST PUSH0 PUSH2 0x1E2 DUP3 PUSH2 0x17A JUMP JUMPDEST SWAP2 POP PUSH2 0x1ED DUP4 PUSH2 0x17A JUMP JUMPDEST SWAP3 POP DUP3 DUP3 ADD SWAP1 POP DUP1 DUP3 GT ISZERO PUSH2 0x205 JUMPI PUSH2 0x204 PUSH2 0x1AB JUMP JUMPDEST JUMPDEST SWAP3 SWAP2 POP POP JUMP JUMPDEST PUSH0 PUSH2 0x215 DUP3 PUSH2 0x17A JUMP JUMPDEST SWAP2 POP PUSH2 0x220 DUP4 PUSH2 0x17A JUMP JUMPDEST SWAP3 POP DUP3 DUP3 MUL PUSH2 0x22E DUP2 PUSH2 0x17A JUMP JUMPDEST SWAP2 POP DUP3 DUP3 DIV DUP5 EQ DUP4 ISZERO OR PUSH2 0x245 JUMPI PUSH2 0x244 PUSH2 0x1AB JUMP JUMPDEST JUMPDEST POP SWAP3 SWAP2 POP POP JUMP JUMPDEST PUSH32 0x4E487B7100000000000000000000000000000000000000000000000000000000 PUSH0 MSTORE PUSH1 0x12 PUSH1 0x4 MSTORE PUSH1 0x24 PUSH0 REVERT JUMPDEST PUSH0 PUSH2 0x283 DUP3 PUSH2 0x17A JUMP JUMPDEST SWAP2 POP PUSH2 0x28E DUP4 PUSH2 0x17A JUMP JUMPDEST SWAP3 POP DUP3 PUSH2 0x29E JUMPI PUSH2 0x29D PUSH2 0x24C JUMP JUMPDEST JUMPDEST DUP3 DUP3 MOD SWAP1 POP SWAP3 SWAP2 POP POP JUMP JUMPDEST PUSH0 PUSH2 0x2B3 DUP3 PUSH2 0x17A JUMP JUMPDEST SWAP2 POP PUSH2 0x2BE DUP4 PUSH2 0x17A JUMP JUMPDEST SWAP3 POP DUP3 DUP3 SUB SWAP1 POP DUP2 DUP2 GT ISZERO PUSH2 0x2D6 JUMPI PUSH2 0x2D5 PUSH2 0x1AB JUMP JUMPDEST JUMPDEST SWAP3 SWAP2 POP POP JUMP JUMPDEST PUSH0 PUSH2 0x2E6 DUP3 PUSH2 0x17A JUMP JUMPDEST SWAP2 POP PUSH2 0x2F1 DUP4 PUSH2 0x17A JUMP JUMPDEST SWAP3 POP DUP3 PUSH2 0x301 JUMPI PUSH2 0x300 PUSH2 0x24C JUMP JUMPDEST JUMPDEST DUP3 DUP3 DIV SWAP1 POP SWAP3 SWAP2 POP POP JUMP INVALID LOG2 PUSH5 0x6970667358 0x22 SLT KECCAK256 DUP6 0xC2 0xCF PUSH19 0xFCABCA03EF82FA1739C1B731FEF6B7CC4DB5B4 0xE1 MSIZE SELFDESTRUCT 0x28 LOG2 SWAP13 MSTORE8 MULMOD SLT PUSH5 0x736F6C6343 STOP ADDMOD AND STOP CALLER "
				},
				"gasEstimates": {
					"creation": {
						"codeDepositCost": "166800",
						"executionCost": "212",
						"totalCost": "167012"
					},
					"external": {
						"counter()": "2469",
						"dec()": "infinite",
						"div()": "infinite",
						"inc()": "infinite",
						"mul()": "infinite",
						"rem()": "infinite",
						"test()": "infinite"
					}
				},
				"methodIdentifiers": {
					"counter()": "61bc221a",
					"dec()": "b3bcfa82",
					"div()": "f9fa48c3",
					"inc()": "371303c0",
					"mul()": "58931c46",
					"rem()": "a582f86e",
					"test()": "f8a8fd6d"
				}
			},
			"storageLayout": {
				"storage": [
					{
						"astId": 3,
						"contract": "tutorial/counter,sol.sol:Counter",
						"label": "counter",
						"offset": 0,
						"slot": "0",
						"type": "t_uint256"
					}
				],
				"types": {
					"t_uint256": {
						"encoding": "inplace",
						"label": "uint256",
						"numberOfBytes": "32"
					}
				}
			},
			"userdoc": {
				"kind": "user",
				"methods": {},
				"version": 1
			}
		}
	}
}