{
	"tutorial/enum.sol": {
		"test": {
			"abi": [
				{
					"inputs": [],
					"name": "getChoice",
					"outputs": [
						{
							"internalType": "enum test.FreshJuiceSize",
							"name": "",
							"type": "uint8"
						}
					],
					"stateMutability": "view",
					"type": "function"
				},
				{
					"inputs": [],
					"name": "getDefaultChoice",
					"outputs": [
						{
							"internalType": "uint256",
							"name": "",
							"type": "uint256"
						}
					],
					"stateMutability": "pure",
					"type": "function"
				},
				{
					"inputs": [],
					"name": "setLarge",
					"outputs": [],
					"stateMutability": "nonpayable",
					"type": "function"
				}
			],
			"devdoc": {
				"kind": "dev",
				"methods": {},
				"version": 1
			},
			"evm": {
				"assembly": "    /* \"tutorial/enum.sol\":66:484  contract test {... */\n  mstore(0x40, 0x80)\n  callvalue\n  dup1\n  iszero\n  tag_1\n  jumpi\n  0x00\n  dup1\n  revert\ntag_1:\n  pop\n  dataSize(sub_0)\n  dup1\n  dataOffset(sub_0)\n  0x00\n  codecopy\n  0x00\n  return\nstop\n\nsub_0: assembly {\n        /* \"tutorial/enum.sol\":66:484  contract test {... */\n      mstore(0x40, 0x80)\n      callvalue\n      dup1\n      iszero\n      tag_1\n      jumpi\n      0x00\n      dup1\n      revert\n    tag_1:\n      pop\n      jumpi(tag_2, lt(calldatasize, 0x04))\n      shr(0xe0, calldataload(0x00))\n      dup1\n      0x67cb61b6\n      eq\n      tag_3\n      jumpi\n      dup1\n      0x694ebe4f\n      eq\n      tag_4\n      jumpi\n      dup1\n      0x843f7258\n      eq\n      tag_5\n      jumpi\n    tag_2:\n      0x00\n      dup1\n      revert\n        /* \"tutorial/enum.sol\":298:383  function getChoice() public view returns (FreshJuiceSize) {... */\n    tag_3:\n      tag_6\n      tag_7\n      jump\t// in\n    tag_6:\n      mload(0x40)\n      tag_8\n      swap2\n      swap1\n      tag_9\n      jump\t// in\n    tag_8:\n      mload(0x40)\n      dup1\n      swap2\n      sub\n      swap1\n      return\n        /* \"tutorial/enum.sol\":224:294  function setLarge() public {... */\n    tag_4:\n      tag_10\n      tag_11\n      jump\t// in\n    tag_10:\n      stop\n        /* \"tutorial/enum.sol\":387:482  function getDefaultChoice() public pure returns (uint) {... */\n    tag_5:\n      tag_12\n      tag_13\n      jump\t// in\n    tag_12:\n      mload(0x40)\n      tag_14\n      swap2\n      swap1\n      tag_15\n      jump\t// in\n    tag_14:\n      mload(0x40)\n      dup1\n      swap2\n      sub\n      swap1\n      return\n        /* \"tutorial/enum.sol\":298:383  function getChoice() public view returns (FreshJuiceSize) {... */\n    tag_7:\n        /* \"tutorial/enum.sol\":340:354  FreshJuiceSize */\n      0x00\n        /* \"tutorial/enum.sol\":371:377  choice */\n      dup1\n      0x00\n      swap1\n      sload\n      swap1\n      0x0100\n      exp\n      swap1\n      div\n      0xff\n      and\n        /* \"tutorial/enum.sol\":364:377  return choice */\n      swap1\n      pop\n        /* \"tutorial/enum.sol\":298:383  function getChoice() public view returns (FreshJuiceSize) {... */\n      swap1\n      jump\t// out\n        /* \"tutorial/enum.sol\":224:294  function setLarge() public {... */\n    tag_11:\n        /* \"tutorial/enum.sol\":268:288  FreshJuiceSize.LARGE */\n      0x02\n        /* \"tutorial/enum.sol\":259:265  choice */\n      0x00\n      dup1\n        /* \"tutorial/enum.sol\":259:288  choice = FreshJuiceSize.LARGE */\n      0x0100\n      exp\n      dup2\n      sload\n      dup2\n      0xff\n      mul\n      not\n      and\n      swap1\n      dup4\n      0x02\n      dup2\n      gt\n      iszero\n      tag_18\n      jumpi\n      tag_19\n      tag_20\n      jump\t// in\n    tag_19:\n    tag_18:\n      mul\n      or\n      swap1\n      sstore\n      pop\n        /* \"tutorial/enum.sol\":224:294  function setLarge() public {... */\n      jump\t// out\n        /* \"tutorial/enum.sol\":387:482  function getDefaultChoice() public pure returns (uint) {... */\n    tag_13:\n        /* \"tutorial/enum.sol\":436:440  uint */\n      0x00\n        /* \"tutorial/enum.sol\":198:218  FreshJuiceSize.SMALL */\n      dup1\n        /* \"tutorial/enum.sol\":457:476  uint(defaultChoice) */\n      0x02\n      dup2\n      gt\n      iszero\n      tag_22\n      jumpi\n      tag_23\n      tag_20\n      jump\t// in\n    tag_23:\n    tag_22:\n        /* \"tutorial/enum.sol\":450:476  return uint(defaultChoice) */\n      swap1\n      pop\n        /* \"tutorial/enum.sol\":387:482  function getDefaultChoice() public pure returns (uint) {... */\n      swap1\n      jump\t// out\n        /* \"#utility.yul\":7:187   */\n    tag_20:\n        /* \"#utility.yul\":55:132   */\n      0x4e487b7100000000000000000000000000000000000000000000000000000000\n        /* \"#utility.yul\":52:53   */\n      0x00\n        /* \"#utility.yul\":45:133   */\n      mstore\n        /* \"#utility.yul\":152:156   */\n      0x21\n        /* \"#utility.yul\":149:150   */\n      0x04\n        /* \"#utility.yul\":142:157   */\n      mstore\n        /* \"#utility.yul\":176:180   */\n      0x24\n        /* \"#utility.yul\":173:174   */\n      0x00\n        /* \"#utility.yul\":166:181   */\n      revert\n        /* \"#utility.yul\":193:314   */\n    tag_24:\n        /* \"#utility.yul\":282:283   */\n      0x03\n        /* \"#utility.yul\":275:280   */\n      dup2\n        /* \"#utility.yul\":272:284   */\n      lt\n        /* \"#utility.yul\":262:308   */\n      tag_33\n      jumpi\n        /* \"#utility.yul\":288:306   */\n      tag_34\n      tag_20\n      jump\t// in\n    tag_34:\n        /* \"#utility.yul\":262:308   */\n    tag_33:\n        /* \"#utility.yul\":193:314   */\n      pop\n      jump\t// out\n        /* \"#utility.yul\":320:463   */\n    tag_25:\n        /* \"#utility.yul\":373:380   */\n      0x00\n        /* \"#utility.yul\":402:407   */\n      dup2\n        /* \"#utility.yul\":391:407   */\n      swap1\n      pop\n        /* \"#utility.yul\":408:457   */\n      tag_36\n        /* \"#utility.yul\":451:456   */\n      dup3\n        /* \"#utility.yul\":408:457   */\n      tag_24\n      jump\t// in\n    tag_36:\n        /* \"#utility.yul\":320:463   */\n      swap2\n      swap1\n      pop\n      jump\t// out\n        /* \"#utility.yul\":469:612   */\n    tag_26:\n        /* \"#utility.yul\":533:542   */\n      0x00\n        /* \"#utility.yul\":566:606   */\n      tag_38\n        /* \"#utility.yul\":600:605   */\n      dup3\n        /* \"#utility.yul\":566:606   */\n      tag_25\n      jump\t// in\n    tag_38:\n        /* \"#utility.yul\":553:606   */\n      swap1\n      pop\n        /* \"#utility.yul\":469:612   */\n      swap2\n      swap1\n      pop\n      jump\t// out\n        /* \"#utility.yul\":618:777   */\n    tag_27:\n        /* \"#utility.yul\":719:770   */\n      tag_40\n        /* \"#utility.yul\":764:769   */\n      dup2\n        /* \"#utility.yul\":719:770   */\n      tag_26\n      jump\t// in\n    tag_40:\n        /* \"#utility.yul\":714:717   */\n      dup3\n        /* \"#utility.yul\":707:771   */\n      mstore\n        /* \"#utility.yul\":618:777   */\n      pop\n      pop\n      jump\t// out\n        /* \"#utility.yul\":783:1033   */\n    tag_9:\n        /* \"#utility.yul\":890:894   */\n      0x00\n        /* \"#utility.yul\":928:930   */\n      0x20\n        /* \"#utility.yul\":917:926   */\n      dup3\n        /* \"#utility.yul\":913:931   */\n      add\n        /* \"#utility.yul\":905:931   */\n      swap1\n      pop\n        /* \"#utility.yul\":941:1026   */\n      tag_42\n        /* \"#utility.yul\":1023:1024   */\n      0x00\n        /* \"#utility.yul\":1012:1021   */\n      dup4\n        /* \"#utility.yul\":1008:1025   */\n      add\n        /* \"#utility.yul\":999:1005   */\n      dup5\n        /* \"#utility.yul\":941:1026   */\n      tag_27\n      jump\t// in\n    tag_42:\n        /* \"#utility.yul\":783:1033   */\n      swap3\n      swap2\n      pop\n      pop\n      jump\t// out\n        /* \"#utility.yul\":1039:1116   */\n    tag_28:\n        /* \"#utility.yul\":1076:1083   */\n      0x00\n        /* \"#utility.yul\":1105:1110   */\n      dup2\n        /* \"#utility.yul\":1094:1110   */\n      swap1\n      pop\n        /* \"#utility.yul\":1039:1116   */\n      swap2\n      swap1\n      pop\n      jump\t// out\n        /* \"#utility.yul\":1122:1240   */\n    tag_29:\n        /* \"#utility.yul\":1209:1233   */\n      tag_45\n        /* \"#utility.yul\":1227:1232   */\n      dup2\n        /* \"#utility.yul\":1209:1233   */\n      tag_28\n      jump\t// in\n    tag_45:\n        /* \"#utility.yul\":1204:1207   */\n      dup3\n        /* \"#utility.yul\":1197:1234   */\n      mstore\n        /* \"#utility.yul\":1122:1240   */\n      pop\n      pop\n      jump\t// out\n        /* \"#utility.yul\":1246:1468   */\n    tag_15:\n        /* \"#utility.yul\":1339:1343   */\n      0x00\n        /* \"#utility.yul\":1377:1379   */\n      0x20\n        /* \"#utility.yul\":1366:1375   */\n      dup3\n        /* \"#utility.yul\":1362:1380   */\n      add\n        /* \"#utility.yul\":1354:1380   */\n      swap1\n      pop\n        /* \"#utility.yul\":1390:1461   */\n      tag_47\n        /* \"#utility.yul\":1458:1459   */\n      0x00\n        /* \"#utility.yul\":1447:1456   */\n      dup4\n        /* \"#utility.yul\":1443:1460   */\n      add\n        /* \"#utility.yul\":1434:1440   */\n      dup5\n        /* \"#utility.yul\":1390:1461   */\n      tag_29\n      jump\t// in\n    tag_47:\n        /* \"#utility.yul\":1246:1468   */\n      swap3\n      swap2\n      pop\n      pop\n      jump\t// out\n\n    auxdata: 0xa26469706673582212201482f5c2fa7d9319d99b4c411707ac9f76cb05fb46c3c98f3b05813d4c61bec064736f6c63430008180033\n}\n",
				"bytecode": {
					"linkReferences": {},
					"object": "608060405234801561000f575f80fd5b506101d48061001d5f395ff3fe608060405234801561000f575f80fd5b506004361061003f575f3560e01c806367cb61b614610043578063694ebe4f14610061578063843f72581461006b575b5f80fd5b61004b610089565b6040516100589190610154565b60405180910390f35b61006961009d565b005b6100736100c8565b6040516100809190610185565b60405180910390f35b5f805f9054906101000a900460ff16905090565b60025f806101000a81548160ff021916908360028111156100c1576100c06100e1565b5b0217905550565b5f8060028111156100dc576100db6100e1565b5b905090565b7f4e487b71000000000000000000000000000000000000000000000000000000005f52602160045260245ffd5b6003811061011f5761011e6100e1565b5b50565b5f81905061012f8261010e565b919050565b5f61013e82610122565b9050919050565b61014e81610134565b82525050565b5f6020820190506101675f830184610145565b92915050565b5f819050919050565b61017f8161016d565b82525050565b5f6020820190506101985f830184610176565b9291505056fea26469706673582212201482f5c2fa7d9319d99b4c411707ac9f76cb05fb46c3c98f3b05813d4c61bec064736f6c63430008180033",
					"opcodes": "PUSH1 0x80 PUSH1 0x40 MSTORE CALLVALUE DUP1 ISZERO PUSH2 0xF JUMPI PUSH0 DUP1 REVERT JUMPDEST POP PUSH2 0x1D4 DUP1 PUSH2 0x1D PUSH0 CODECOPY PUSH0 RETURN INVALID PUSH1 0x80 PUSH1 0x40 MSTORE CALLVALUE DUP1 ISZERO PUSH2 0xF JUMPI PUSH0 DUP1 REVERT JUMPDEST POP PUSH1 0x4 CALLDATASIZE LT PUSH2 0x3F JUMPI PUSH0 CALLDATALOAD PUSH1 0xE0 SHR DUP1 PUSH4 0x67CB61B6 EQ PUSH2 0x43 JUMPI DUP1 PUSH4 0x694EBE4F EQ PUSH2 0x61 JUMPI DUP1 PUSH4 0x843F7258 EQ PUSH2 0x6B JUMPI JUMPDEST PUSH0 DUP1 REVERT JUMPDEST PUSH2 0x4B PUSH2 0x89 JUMP JUMPDEST PUSH1 0x40 MLOAD PUSH2 0x58 SWAP2 SWAP1 PUSH2 0x154 JUMP JUMPDEST PUSH1 0x40 MLOAD DUP1 SWAP2 SUB SWAP1 RETURN JUMPDEST PUSH2 0x69 PUSH2 0x9D JUMP JUMPDEST STOP JUMPDEST PUSH2 0x73 PUSH2 0xC8 JUMP JUMPDEST PUSH1 0x40 MLOAD PUSH2 0x80 SWAP2 SWAP1 PUSH2 0x185 JUMP JUMPDEST PUSH1 0x40 MLOAD DUP1 SWAP2 SUB SWAP1 RETURN JUMPDEST PUSH0 DUP1 PUSH0 SWAP1 SLOAD SWAP1 PUSH2 0x100 EXP SWAP1 DIV PUSH1 0xFF AND SWAP1 POP SWAP1 JUMP JUMPDEST PUSH1 0x2 PUSH0 DUP1 PUSH2 0x100 EXP DUP2 SLOAD DUP2 PUSH1 0xFF MUL NOT AND SWAP1 DUP4 PUSH1 0x2 DUP2 GT ISZERO PUSH2 0xC1 JUMPI PUSH2 0xC0 PUSH2 0xE1 JUMP JUMPDEST JUMPDEST MUL OR SWAP1 SSTORE POP JUMP JUMPDEST PUSH0 DUP1 PUSH1 0x2 DUP2 GT ISZERO PUSH2 0xDC JUMPI PUSH2 0xDB PUSH2 0xE1 JUMP JUMPDEST JUMPDEST SWAP1 POP SWAP1 JUMP JUMPDEST PUSH32 0x4E487B7100000000000000000000000000000000000000000000000000000000 PUSH0 MSTORE PUSH1 0x21 PUSH1 0x4 MSTORE PUSH1 0x24 PUSH0 REVERT JUMPDEST PUSH1 0x3 DUP2 LT PUSH2 0x11F JUMPI PUSH2 0x11E PUSH2 0xE1 JUMP JUMPDEST JUMPDEST POP JUMP JUMPDEST PUSH0 DUP2 SWAP1 POP PUSH2 0x12F DUP3 PUSH2 0x10E JUMP JUMPDEST SWAP2 SWAP1 POP JUMP JUMPDEST PUSH0 PUSH2 0x13E DUP3 PUSH2 0x122 JUMP JUMPDEST SWAP1 POP SWAP2 SWAP1 POP JUMP JUMPDEST PUSH2 0x14E DUP2 PUSH2 0x134 JUMP JUMPDEST DUP3 MSTORE POP POP JUMP JUMPDEST PUSH0 PUSH1 0x20 DUP3 ADD SWAP1 POP PUSH2 0x167 PUSH0 DUP4 ADD DUP5 PUSH2 0x145 JUMP JUMPDEST SWAP3 SWAP2 POP POP JUMP JUMPDEST PUSH0 DUP2 SWAP1 POP SWAP2 SWAP1 POP JUMP JUMPDEST PUSH2 0x17F DUP2 PUSH2 0x16D JUMP JUMPDEST DUP3 MSTORE POP POP JUMP JUMPDEST PUSH0 PUSH1 0x20 DUP3 ADD SWAP1 POP PUSH2 0x198 PUSH0 DUP4 ADD DUP5 PUSH2 0x176 JUMP JUMPDEST SWAP3 SWAP2 POP POP JUMP INVALID LOG2 PUSH5 0x6970667358 0x22 SLT KECCAK256 EQ DUP3 CREATE2 0xC2 STATICCALL PUSH30 0x9319D99B4C411707AC9F76CB05FB46C3C98F3B05813D4C61BEC064736F6C PUSH4 0x43000818 STOP CALLER "
				},
				"gasEstimates": {
					"creation": {
						"codeDepositCost": "93600",
						"executionCost": "139",
						"totalCost": "93739"
					},
					"external": {
						"getChoice()": "2539",
						"getDefaultChoice()": "380",
						"setLarge()": "24429"
					}
				},
				"methodIdentifiers": {
					"getChoice()": "67cb61b6",
					"getDefaultChoice()": "843f7258",
					"setLarge()": "694ebe4f"
				}
			},
			"storageLayout": {
				"storage": [
					{
						"astId": 8,
						"contract": "tutorial/enum.sol:test",
						"label": "choice",
						"offset": 0,
						"slot": "0",
						"type": "t_enum(FreshJuiceSize)5"
					}
				],
				"types": {
					"t_enum(FreshJuiceSize)5": {
						"encoding": "inplace",
						"label": "enum test.FreshJuiceSize",
						"numberOfBytes": "1"
					}
				}
			},
			"userdoc": {
				"kind": "user",
				"methods": {},
				"version": 1
			}
		}
	}
}