{
	"tutorial/local_variables.sol": {
		"LocalVariables": {
			"abi": [
				{
					"inputs": [],
					"name": "b",
					"outputs": [
						{
							"internalType": "bool",
							"name": "",
							"type": "bool"
						}
					],
					"stateMutability": "view",
					"type": "function"
				},
				{
					"inputs": [],
					"name": "foo",
					"outputs": [],
					"stateMutability": "nonpayable",
					"type": "function"
				},
				{
					"inputs": [],
					"name": "getResult",
					"outputs": [
						{
							"internalType": "uint256",
							"name": "",
							"type": "uint256"
						}
					],
					"stateMutability": "pure",
					"type": "function"
				},
				{
					"inputs": [],
					"name": "i",
					"outputs": [
						{
							"internalType": "uint256",
							"name": "",
							"type": "uint256"
						}
					],
					"stateMutability": "view",
					"type": "function"
				},
				{
					"inputs": [],
					"name": "myAddress",
					"outputs": [
						{
							"internalType": "address",
							"name": "",
							"type": "address"
						}
					],
					"stateMutability": "view",
					"type": "function"
				}
			],
			"devdoc": {
				"kind": "dev",
				"methods": {},
				"version": 1
			},
			"evm": {
				"assembly": "    /* \"tutorial/local_variables.sol\":61:561  contract LocalVariables {... */\n  mstore(0x40, 0x80)\n  callvalue\n  dup1\n  iszero\n  tag_1\n  jumpi\n  0x00\n  dup1\n  revert\ntag_1:\n  pop\n  dataSize(sub_0)\n  dup1\n  dataOffset(sub_0)\n  0x00\n  codecopy\n  0x00\n  return\nstop\n\nsub_0: assembly {\n        /* \"tutorial/local_variables.sol\":61:561  contract LocalVariables {... */\n      mstore(0x40, 0x80)\n      callvalue\n      dup1\n      iszero\n      tag_1\n      jumpi\n      0x00\n      dup1\n      revert\n    tag_1:\n      pop\n      jumpi(tag_2, lt(calldatasize, 0x04))\n      shr(0xe0, calldataload(0x00))\n      dup1\n      0x26b85ee1\n      eq\n      tag_3\n      jumpi\n      dup1\n      0x4df7e3d0\n      eq\n      tag_4\n      jumpi\n      dup1\n      0xc2985578\n      eq\n      tag_5\n      jumpi\n      dup1\n      0xde292789\n      eq\n      tag_6\n      jumpi\n      dup1\n      0xe5aa3d58\n      eq\n      tag_7\n      jumpi\n    tag_2:\n      0x00\n      dup1\n      revert\n        /* \"tutorial/local_variables.sol\":132:156  address public myAddress */\n    tag_3:\n      tag_8\n      tag_9\n      jump\t// in\n    tag_8:\n      mload(0x40)\n      tag_10\n      swap2\n      swap1\n      tag_11\n      jump\t// in\n    tag_10:\n      mload(0x40)\n      dup1\n      swap2\n      sub\n      swap1\n      return\n        /* \"tutorial/local_variables.sol\":112:125  bool public b */\n    tag_4:\n      tag_12\n      tag_13\n      jump\t// in\n    tag_12:\n      mload(0x40)\n      tag_14\n      swap2\n      swap1\n      tag_15\n      jump\t// in\n    tag_14:\n      mload(0x40)\n      dup1\n      swap2\n      sub\n      swap1\n      return\n        /* \"tutorial/local_variables.sol\":165:362  function foo() external {... */\n    tag_5:\n      tag_16\n      tag_17\n      jump\t// in\n    tag_16:\n      stop\n        /* \"tutorial/local_variables.sol\":371:558  function getResult() public pure returns(uint){... */\n    tag_6:\n      tag_18\n      tag_19\n      jump\t// in\n    tag_18:\n      mload(0x40)\n      tag_20\n      swap2\n      swap1\n      tag_21\n      jump\t// in\n    tag_20:\n      mload(0x40)\n      dup1\n      swap2\n      sub\n      swap1\n      return\n        /* \"tutorial/local_variables.sol\":92:105  uint public i */\n    tag_7:\n      tag_22\n      tag_23\n      jump\t// in\n    tag_22:\n      mload(0x40)\n      tag_24\n      swap2\n      swap1\n      tag_21\n      jump\t// in\n    tag_24:\n      mload(0x40)\n      dup1\n      swap2\n      sub\n      swap1\n      return\n        /* \"tutorial/local_variables.sol\":132:156  address public myAddress */\n    tag_9:\n      0x01\n      dup1\n      sload\n      swap1\n      0x0100\n      exp\n      swap1\n      div\n      0xffffffffffffffffffffffffffffffffffffffff\n      and\n      dup2\n      jump\t// out\n        /* \"tutorial/local_variables.sol\":112:125  bool public b */\n    tag_13:\n      0x01\n      0x00\n      swap1\n      sload\n      swap1\n      0x0100\n      exp\n      swap1\n      div\n      0xff\n      and\n      dup2\n      jump\t// out\n        /* \"tutorial/local_variables.sol\":165:362  function foo() external {... */\n    tag_17:\n        /* \"tutorial/local_variables.sol\":200:206  uint x */\n      0x00\n        /* \"tutorial/local_variables.sol\":209:212  200 */\n      0xc8\n        /* \"tutorial/local_variables.sol\":200:212  uint x = 200 */\n      swap1\n      pop\n        /* \"tutorial/local_variables.sol\":223:229  bool y */\n      0x00\n        /* \"tutorial/local_variables.sol\":255:257  20 */\n      0x14\n        /* \"tutorial/local_variables.sol\":250:257  x += 20 */\n      dup3\n      tag_26\n      swap2\n      swap1\n      tag_27\n      jump\t// in\n    tag_26:\n      swap2\n      pop\n        /* \"tutorial/local_variables.sol\":272:276  true */\n      0x01\n        /* \"tutorial/local_variables.sol\":268:276  y = true */\n      swap1\n      pop\n        /* \"tutorial/local_variables.sol\":293:296  300 */\n      0x012c\n        /* \"tutorial/local_variables.sol\":289:290  i */\n      0x00\n        /* \"tutorial/local_variables.sol\":289:296  i = 300 */\n      dup2\n      swap1\n      sstore\n      pop\n        /* \"tutorial/local_variables.sol\":311:315  true */\n      0x01\n        /* \"tutorial/local_variables.sol\":307:308  b */\n      dup1\n      0x00\n        /* \"tutorial/local_variables.sol\":307:315  b = true */\n      0x0100\n      exp\n      dup2\n      sload\n      dup2\n      0xff\n      mul\n      not\n      and\n      swap1\n      dup4\n      iszero\n      iszero\n      mul\n      or\n      swap1\n      sstore\n      pop\n        /* \"tutorial/local_variables.sol\":346:353  1554233 */\n      0x17b739\n        /* \"tutorial/local_variables.sol\":326:335  myAddress */\n      0x01\n      dup1\n        /* \"tutorial/local_variables.sol\":326:354  myAddress = address(1554233) */\n      0x0100\n      exp\n      dup2\n      sload\n      dup2\n      0xffffffffffffffffffffffffffffffffffffffff\n      mul\n      not\n      and\n      swap1\n      dup4\n      0xffffffffffffffffffffffffffffffffffffffff\n      and\n      mul\n      or\n      swap1\n      sstore\n      pop\n        /* \"tutorial/local_variables.sol\":189:362  {... */\n      pop\n      pop\n        /* \"tutorial/local_variables.sol\":165:362  function foo() external {... */\n      jump\t// out\n        /* \"tutorial/local_variables.sol\":371:558  function getResult() public pure returns(uint){... */\n    tag_19:\n        /* \"tutorial/local_variables.sol\":412:416  uint */\n      0x00\n        /* \"tutorial/local_variables.sol\":426:432  uint a */\n      dup1\n        /* \"tutorial/local_variables.sol\":435:436  1 */\n      0x01\n        /* \"tutorial/local_variables.sol\":426:436  uint a = 1 */\n      swap1\n      pop\n        /* \"tutorial/local_variables.sol\":463:469  uint z */\n      0x00\n        /* \"tutorial/local_variables.sol\":472:473  2 */\n      0x02\n        /* \"tutorial/local_variables.sol\":463:473  uint z = 2 */\n      swap1\n      pop\n        /* \"tutorial/local_variables.sol\":482:493  uint result */\n      0x00\n        /* \"tutorial/local_variables.sol\":500:501  z */\n      dup2\n        /* \"tutorial/local_variables.sol\":496:497  a */\n      dup4\n        /* \"tutorial/local_variables.sol\":496:501  a + z */\n      tag_29\n      swap2\n      swap1\n      tag_27\n      jump\t// in\n    tag_29:\n        /* \"tutorial/local_variables.sol\":482:501  uint result = a + z */\n      swap1\n      pop\n        /* \"tutorial/local_variables.sol\":517:523  result */\n      dup1\n        /* \"tutorial/local_variables.sol\":510:523  return result */\n      swap4\n      pop\n      pop\n      pop\n      pop\n        /* \"tutorial/local_variables.sol\":371:558  function getResult() public pure returns(uint){... */\n      swap1\n      jump\t// out\n        /* \"tutorial/local_variables.sol\":92:105  uint public i */\n    tag_23:\n      sload(0x00)\n      dup2\n      jump\t// out\n        /* \"#utility.yul\":7:133   */\n    tag_30:\n        /* \"#utility.yul\":44:51   */\n      0x00\n        /* \"#utility.yul\":84:126   */\n      0xffffffffffffffffffffffffffffffffffffffff\n        /* \"#utility.yul\":77:82   */\n      dup3\n        /* \"#utility.yul\":73:127   */\n      and\n        /* \"#utility.yul\":62:127   */\n      swap1\n      pop\n        /* \"#utility.yul\":7:133   */\n      swap2\n      swap1\n      pop\n      jump\t// out\n        /* \"#utility.yul\":139:235   */\n    tag_31:\n        /* \"#utility.yul\":176:183   */\n      0x00\n        /* \"#utility.yul\":205:229   */\n      tag_41\n        /* \"#utility.yul\":223:228   */\n      dup3\n        /* \"#utility.yul\":205:229   */\n      tag_30\n      jump\t// in\n    tag_41:\n        /* \"#utility.yul\":194:229   */\n      swap1\n      pop\n        /* \"#utility.yul\":139:235   */\n      swap2\n      swap1\n      pop\n      jump\t// out\n        /* \"#utility.yul\":241:359   */\n    tag_32:\n        /* \"#utility.yul\":328:352   */\n      tag_43\n        /* \"#utility.yul\":346:351   */\n      dup2\n        /* \"#utility.yul\":328:352   */\n      tag_31\n      jump\t// in\n    tag_43:\n        /* \"#utility.yul\":323:326   */\n      dup3\n        /* \"#utility.yul\":316:353   */\n      mstore\n        /* \"#utility.yul\":241:359   */\n      pop\n      pop\n      jump\t// out\n        /* \"#utility.yul\":365:587   */\n    tag_11:\n        /* \"#utility.yul\":458:462   */\n      0x00\n        /* \"#utility.yul\":496:498   */\n      0x20\n        /* \"#utility.yul\":485:494   */\n      dup3\n        /* \"#utility.yul\":481:499   */\n      add\n        /* \"#utility.yul\":473:499   */\n      swap1\n      pop\n        /* \"#utility.yul\":509:580   */\n      tag_45\n        /* \"#utility.yul\":577:578   */\n      0x00\n        /* \"#utility.yul\":566:575   */\n      dup4\n        /* \"#utility.yul\":562:579   */\n      add\n        /* \"#utility.yul\":553:559   */\n      dup5\n        /* \"#utility.yul\":509:580   */\n      tag_32\n      jump\t// in\n    tag_45:\n        /* \"#utility.yul\":365:587   */\n      swap3\n      swap2\n      pop\n      pop\n      jump\t// out\n        /* \"#utility.yul\":593:683   */\n    tag_33:\n        /* \"#utility.yul\":627:634   */\n      0x00\n        /* \"#utility.yul\":670:675   */\n      dup2\n        /* \"#utility.yul\":663:676   */\n      iszero\n        /* \"#utility.yul\":656:677   */\n      iszero\n        /* \"#utility.yul\":645:677   */\n      swap1\n      pop\n        /* \"#utility.yul\":593:683   */\n      swap2\n      swap1\n      pop\n      jump\t// out\n        /* \"#utility.yul\":689:798   */\n    tag_34:\n        /* \"#utility.yul\":770:791   */\n      tag_48\n        /* \"#utility.yul\":785:790   */\n      dup2\n        /* \"#utility.yul\":770:791   */\n      tag_33\n      jump\t// in\n    tag_48:\n        /* \"#utility.yul\":765:768   */\n      dup3\n        /* \"#utility.yul\":758:792   */\n      mstore\n        /* \"#utility.yul\":689:798   */\n      pop\n      pop\n      jump\t// out\n        /* \"#utility.yul\":804:1014   */\n    tag_15:\n        /* \"#utility.yul\":891:895   */\n      0x00\n        /* \"#utility.yul\":929:931   */\n      0x20\n        /* \"#utility.yul\":918:927   */\n      dup3\n        /* \"#utility.yul\":914:932   */\n      add\n        /* \"#utility.yul\":906:932   */\n      swap1\n      pop\n        /* \"#utility.yul\":942:1007   */\n      tag_50\n        /* \"#utility.yul\":1004:1005   */\n      0x00\n        /* \"#utility.yul\":993:1002   */\n      dup4\n        /* \"#utility.yul\":989:1006   */\n      add\n        /* \"#utility.yul\":980:986   */\n      dup5\n        /* \"#utility.yul\":942:1007   */\n      tag_34\n      jump\t// in\n    tag_50:\n        /* \"#utility.yul\":804:1014   */\n      swap3\n      swap2\n      pop\n      pop\n      jump\t// out\n        /* \"#utility.yul\":1020:1097   */\n    tag_35:\n        /* \"#utility.yul\":1057:1064   */\n      0x00\n        /* \"#utility.yul\":1086:1091   */\n      dup2\n        /* \"#utility.yul\":1075:1091   */\n      swap1\n      pop\n        /* \"#utility.yul\":1020:1097   */\n      swap2\n      swap1\n      pop\n      jump\t// out\n        /* \"#utility.yul\":1103:1221   */\n    tag_36:\n        /* \"#utility.yul\":1190:1214   */\n      tag_53\n        /* \"#utility.yul\":1208:1213   */\n      dup2\n        /* \"#utility.yul\":1190:1214   */\n      tag_35\n      jump\t// in\n    tag_53:\n        /* \"#utility.yul\":1185:1188   */\n      dup3\n        /* \"#utility.yul\":1178:1215   */\n      mstore\n        /* \"#utility.yul\":1103:1221   */\n      pop\n      pop\n      jump\t// out\n        /* \"#utility.yul\":1227:1449   */\n    tag_21:\n        /* \"#utility.yul\":1320:1324   */\n      0x00\n        /* \"#utility.yul\":1358:1360   */\n      0x20\n        /* \"#utility.yul\":1347:1356   */\n      dup3\n        /* \"#utility.yul\":1343:1361   */\n      add\n        /* \"#utility.yul\":1335:1361   */\n      swap1\n      pop\n        /* \"#utility.yul\":1371:1442   */\n      tag_55\n        /* \"#utility.yul\":1439:1440   */\n      0x00\n        /* \"#utility.yul\":1428:1437   */\n      dup4\n        /* \"#utility.yul\":1424:1441   */\n      add\n        /* \"#utility.yul\":1415:1421   */\n      dup5\n        /* \"#utility.yul\":1371:1442   */\n      tag_36\n      jump\t// in\n    tag_55:\n        /* \"#utility.yul\":1227:1449   */\n      swap3\n      swap2\n      pop\n      pop\n      jump\t// out\n        /* \"#utility.yul\":1455:1635   */\n    tag_37:\n        /* \"#utility.yul\":1503:1580   */\n      0x4e487b7100000000000000000000000000000000000000000000000000000000\n        /* \"#utility.yul\":1500:1501   */\n      0x00\n        /* \"#utility.yul\":1493:1581   */\n      mstore\n        /* \"#utility.yul\":1600:1604   */\n      0x11\n        /* \"#utility.yul\":1597:1598   */\n      0x04\n        /* \"#utility.yul\":1590:1605   */\n      mstore\n        /* \"#utility.yul\":1624:1628   */\n      0x24\n        /* \"#utility.yul\":1621:1622   */\n      0x00\n        /* \"#utility.yul\":1614:1629   */\n      revert\n        /* \"#utility.yul\":1641:1832   */\n    tag_27:\n        /* \"#utility.yul\":1681:1684   */\n      0x00\n        /* \"#utility.yul\":1700:1720   */\n      tag_58\n        /* \"#utility.yul\":1718:1719   */\n      dup3\n        /* \"#utility.yul\":1700:1720   */\n      tag_35\n      jump\t// in\n    tag_58:\n        /* \"#utility.yul\":1695:1720   */\n      swap2\n      pop\n        /* \"#utility.yul\":1734:1754   */\n      tag_59\n        /* \"#utility.yul\":1752:1753   */\n      dup4\n        /* \"#utility.yul\":1734:1754   */\n      tag_35\n      jump\t// in\n    tag_59:\n        /* \"#utility.yul\":1729:1754   */\n      swap3\n      pop\n        /* \"#utility.yul\":1777:1778   */\n      dup3\n        /* \"#utility.yul\":1774:1775   */\n      dup3\n        /* \"#utility.yul\":1770:1779   */\n      add\n        /* \"#utility.yul\":1763:1779   */\n      swap1\n      pop\n        /* \"#utility.yul\":1798:1801   */\n      dup1\n        /* \"#utility.yul\":1795:1796   */\n      dup3\n        /* \"#utility.yul\":1792:1802   */\n      gt\n        /* \"#utility.yul\":1789:1825   */\n      iszero\n      tag_60\n      jumpi\n        /* \"#utility.yul\":1805:1823   */\n      tag_61\n      tag_37\n      jump\t// in\n    tag_61:\n        /* \"#utility.yul\":1789:1825   */\n    tag_60:\n        /* \"#utility.yul\":1641:1832   */\n      swap3\n      swap2\n      pop\n      pop\n      jump\t// out\n\n    auxdata: 0xa2646970667358221220e9c8235a555c29dccc976dfb4adc8fc0c2eaeb62fb0f6d5893998cb582e4a88664736f6c63430008160033\n}\n",
				"bytecode": {
					"linkReferences": {},
					"object": "608060405234801561000f575f80fd5b5061030c8061001d5f395ff3fe608060405234801561000f575f80fd5b5060043610610055575f3560e01c806326b85ee1146100595780634df7e3d014610077578063c298557814610095578063de2927891461009f578063e5aa3d58146100bd575b5f80fd5b6100616100db565b60405161006e91906101f9565b60405180910390f35b61007f6100ff565b60405161008c919061022c565b60405180910390f35b61009d610111565b005b6100a7610192565b6040516100b4919061025d565b60405180910390f35b6100c56101b5565b6040516100d2919061025d565b60405180910390f35b60018054906101000a900473ffffffffffffffffffffffffffffffffffffffff1681565b60015f9054906101000a900460ff1681565b5f60c890505f60148261012491906102a3565b91506001905061012c5f819055506001805f6101000a81548160ff0219169083151502179055506217b7396001806101000a81548173ffffffffffffffffffffffffffffffffffffffff021916908373ffffffffffffffffffffffffffffffffffffffff1602179055505050565b5f80600190505f600290505f81836101aa91906102a3565b905080935050505090565b5f5481565b5f73ffffffffffffffffffffffffffffffffffffffff82169050919050565b5f6101e3826101ba565b9050919050565b6101f3816101d9565b82525050565b5f60208201905061020c5f8301846101ea565b92915050565b5f8115159050919050565b61022681610212565b82525050565b5f60208201905061023f5f83018461021d565b92915050565b5f819050919050565b61025781610245565b82525050565b5f6020820190506102705f83018461024e565b92915050565b7f4e487b71000000000000000000000000000000000000000000000000000000005f52601160045260245ffd5b5f6102ad82610245565b91506102b883610245565b92508282019050808211156102d0576102cf610276565b5b9291505056fea2646970667358221220e9c8235a555c29dccc976dfb4adc8fc0c2eaeb62fb0f6d5893998cb582e4a88664736f6c63430008160033",
					"opcodes": "PUSH1 0x80 PUSH1 0x40 MSTORE CALLVALUE DUP1 ISZERO PUSH2 0xF JUMPI PUSH0 DUP1 REVERT JUMPDEST POP PUSH2 0x30C DUP1 PUSH2 0x1D PUSH0 CODECOPY PUSH0 RETURN INVALID PUSH1 0x80 PUSH1 0x40 MSTORE CALLVALUE DUP1 ISZERO PUSH2 0xF JUMPI PUSH0 DUP1 REVERT JUMPDEST POP PUSH1 0x4 CALLDATASIZE LT PUSH2 0x55 JUMPI PUSH0 CALLDATALOAD PUSH1 0xE0 SHR DUP1 PUSH4 0x26B85EE1 EQ PUSH2 0x59 JUMPI DUP1 PUSH4 0x4DF7E3D0 EQ PUSH2 0x77 JUMPI DUP1 PUSH4 0xC2985578 EQ PUSH2 0x95 JUMPI DUP1 PUSH4 0xDE292789 EQ PUSH2 0x9F JUMPI DUP1 PUSH4 0xE5AA3D58 EQ PUSH2 0xBD JUMPI JUMPDEST PUSH0 DUP1 REVERT JUMPDEST PUSH2 0x61 PUSH2 0xDB JUMP JUMPDEST PUSH1 0x40 MLOAD PUSH2 0x6E SWAP2 SWAP1 PUSH2 0x1F9 JUMP JUMPDEST PUSH1 0x40 MLOAD DUP1 SWAP2 SUB SWAP1 RETURN JUMPDEST PUSH2 0x7F PUSH2 0xFF JUMP JUMPDEST PUSH1 0x40 MLOAD PUSH2 0x8C SWAP2 SWAP1 PUSH2 0x22C JUMP JUMPDEST PUSH1 0x40 MLOAD DUP1 SWAP2 SUB SWAP1 RETURN JUMPDEST PUSH2 0x9D PUSH2 0x111 JUMP JUMPDEST STOP JUMPDEST PUSH2 0xA7 PUSH2 0x192 JUMP JUMPDEST PUSH1 0x40 MLOAD PUSH2 0xB4 SWAP2 SWAP1 PUSH2 0x25D JUMP JUMPDEST PUSH1 0x40 MLOAD DUP1 SWAP2 SUB SWAP1 RETURN JUMPDEST PUSH2 0xC5 PUSH2 0x1B5 JUMP JUMPDEST PUSH1 0x40 MLOAD PUSH2 0xD2 SWAP2 SWAP1 PUSH2 0x25D JUMP JUMPDEST PUSH1 0x40 MLOAD DUP1 SWAP2 SUB SWAP1 RETURN JUMPDEST PUSH1 0x1 DUP1 SLOAD SWAP1 PUSH2 0x100 EXP SWAP1 DIV PUSH20 0xFFFFFFFFFFFFFFFFFFFFFFFFFFFFFFFFFFFFFFFF AND DUP2 JUMP JUMPDEST PUSH1 0x1 PUSH0 SWAP1 SLOAD SWAP1 PUSH2 0x100 EXP SWAP1 DIV PUSH1 0xFF AND DUP2 JUMP JUMPDEST PUSH0 PUSH1 0xC8 SWAP1 POP PUSH0 PUSH1 0x14 DUP3 PUSH2 0x124 SWAP2 SWAP1 PUSH2 0x2A3 JUMP JUMPDEST SWAP2 POP PUSH1 0x1 SWAP1 POP PUSH2 0x12C PUSH0 DUP2 SWAP1 SSTORE POP PUSH1 0x1 DUP1 PUSH0 PUSH2 0x100 EXP DUP2 SLOAD DUP2 PUSH1 0xFF MUL NOT AND SWAP1 DUP4 ISZERO ISZERO MUL OR SWAP1 SSTORE POP PUSH3 0x17B739 PUSH1 0x1 DUP1 PUSH2 0x100 EXP DUP2 SLOAD DUP2 PUSH20 0xFFFFFFFFFFFFFFFFFFFFFFFFFFFFFFFFFFFFFFFF MUL NOT AND SWAP1 DUP4 PUSH20 0xFFFFFFFFFFFFFFFFFFFFFFFFFFFFFFFFFFFFFFFF AND MUL OR SWAP1 SSTORE POP POP POP JUMP JUMPDEST PUSH0 DUP1 PUSH1 0x1 SWAP1 POP PUSH0 PUSH1 0x2 SWAP1 POP PUSH0 DUP2 DUP4 PUSH2 0x1AA SWAP2 SWAP1 PUSH2 0x2A3 JUMP JUMPDEST SWAP1 POP DUP1 SWAP4 POP POP POP POP SWAP1 JUMP JUMPDEST PUSH0 SLOAD DUP2 JUMP JUMPDEST PUSH0 PUSH20 0xFFFFFFFFFFFFFFFFFFFFFFFFFFFFFFFFFFFFFFFF DUP3 AND SWAP1 POP SWAP2 SWAP1 POP JUMP JUMPDEST PUSH0 PUSH2 0x1E3 DUP3 PUSH2 0x1BA JUMP JUMPDEST SWAP1 POP SWAP2 SWAP1 POP JUMP JUMPDEST PUSH2 0x1F3 DUP2 PUSH2 0x1D9 JUMP JUMPDEST DUP3 MSTORE POP POP JUMP JUMPDEST PUSH0 PUSH1 0x20 DUP3 ADD SWAP1 POP PUSH2 0x20C PUSH0 DUP4 ADD DUP5 PUSH2 0x1EA JUMP JUMPDEST SWAP3 SWAP2 POP POP JUMP JUMPDEST PUSH0 DUP2 ISZERO ISZERO SWAP1 POP SWAP2 SWAP1 POP JUMP JUMPDEST PUSH2 0x226 DUP2 PUSH2 0x212 JUMP JUMPDEST DUP3 MSTORE POP POP JUMP JUMPDEST PUSH0 PUSH1 0x20 DUP3 ADD SWAP1 POP PUSH2 0x23F PUSH0 DUP4 ADD DUP5 PUSH2 0x21D JUMP JUMPDEST SWAP3 SWAP2 POP POP JUMP JUMPDEST PUSH0 DUP2 SWAP1 POP SWAP2 SWAP1 POP JUMP JUMPDEST PUSH2 0x257 DUP2 PUSH2 0x245 JUMP JUMPDEST DUP3 MSTORE POP POP JUMP JUMPDEST PUSH0 PUSH1 0x20 DUP3 ADD SWAP1 POP PUSH2 0x270 PUSH0 DUP4 ADD DUP5 PUSH2 0x24E JUMP JUMPDEST SWAP3 SWAP2 POP POP JUMP JUMPDEST PUSH32 0x4E487B7100000000000000000000000000000000000000000000000000000000 PUSH0 MSTORE PUSH1 0x11 PUSH1 0x4 MSTORE PUSH1 0x24 PUSH0 REVERT JUMPDEST PUSH0 PUSH2 0x2AD DUP3 PUSH2 0x245 JUMP JUMPDEST SWAP2 POP PUSH2 0x2B8 DUP4 PUSH2 0x245 JUMP JUMPDEST SWAP3 POP DUP3 DUP3 ADD SWAP1 POP DUP1 DUP3 GT ISZERO PUSH2 0x2D0 JUMPI PUSH2 0x2CF PUSH2 0x276 JUMP JUMPDEST JUMPDEST SWAP3 SWAP2 POP POP JUMP INVALID LOG2 PUSH5 0x6970667358 0x22 SLT KECCAK256 0xE9 0xC8 0x23 GAS SSTORE 0x5C 0x29 0xDC 0xCC SWAP8 PUSH14 0xFB4ADC8FC0C2EAEB62FB0F6D5893 SWAP10 DUP13 0xB5 DUP3 0xE4 0xA8 DUP7 PUSH5 0x736F6C6343 STOP ADDMOD AND STOP CALLER "
				},
				"gasEstimates": {
					"creation": {
						"codeDepositCost": "156000",
						"executionCost": "200",
						"totalCost": "156200"
					},
					"external": {
						"b()": "2466",
						"foo()": "infinite",
						"getResult()": "infinite",
						"i()": "2490",
						"myAddress()": "2534"
					}
				},
				"methodIdentifiers": {
					"b()": "4df7e3d0",
					"foo()": "c2985578",
					"getResult()": "de292789",
					"i()": "e5aa3d58",
					"myAddress()": "26b85ee1"
				}
			},
			"storageLayout": {
				"storage": [
					{
						"astId": 3,
						"contract": "tutorial/local_variables.sol:LocalVariables",
						"label": "i",
						"offset": 0,
						"slot": "0",
						"type": "t_uint256"
					},
					{
						"astId": 5,
						"contract": "tutorial/local_variables.sol:LocalVariables",
						"label": "b",
						"offset": 0,
						"slot": "1",
						"type": "t_bool"
					},
					{
						"astId": 7,
						"contract": "tutorial/local_variables.sol:LocalVariables",
						"label": "myAddress",
						"offset": 1,
						"slot": "1",
						"type": "t_address"
					}
				],
				"types": {
					"t_address": {
						"encoding": "inplace",
						"label": "address",
						"numberOfBytes": "20"
					},
					"t_bool": {
						"encoding": "inplace",
						"label": "bool",
						"numberOfBytes": "1"
					},
					"t_uint256": {
						"encoding": "inplace",
						"label": "uint256",
						"numberOfBytes": "32"
					}
				}
			},
			"userdoc": {
				"kind": "user",
				"methods": {},
				"version": 1
			}
		}
	}
}