{
	"tutorial/payable_func.sol": {
		"Payable": {
			"abi": [
				{
					"anonymous": false,
					"inputs": [
						{
							"indexed": false,
							"internalType": "uint256",
							"name": "amount",
							"type": "uint256"
						},
						{
							"indexed": false,
							"internalType": "address",
							"name": "depositedTo",
							"type": "address"
						}
					],
					"name": "depositeDone",
					"type": "event"
				},
				{
					"inputs": [],
					"name": "deposite",
					"outputs": [
						{
							"internalType": "uint256",
							"name": "",
							"type": "uint256"
						}
					],
					"stateMutability": "payable",
					"type": "function"
				},
				{
					"inputs": [],
					"name": "getBalance",
					"outputs": [
						{
							"internalType": "uint256",
							"name": "",
							"type": "uint256"
						}
					],
					"stateMutability": "view",
					"type": "function"
				},
				{
					"inputs": [],
					"name": "owner",
					"outputs": [
						{
							"internalType": "address",
							"name": "",
							"type": "address"
						}
					],
					"stateMutability": "view",
					"type": "function"
				},
				{
					"inputs": [
						{
							"internalType": "address",
							"name": "recipient",
							"type": "address"
						},
						{
							"internalType": "uint256",
							"name": "amount",
							"type": "uint256"
						}
					],
					"name": "transfer",
					"outputs": [],
					"stateMutability": "nonpayable",
					"type": "function"
				},
				{
					"inputs": [
						{
							"internalType": "uint256",
							"name": "amount",
							"type": "uint256"
						}
					],
					"name": "withdraw",
					"outputs": [
						{
							"internalType": "uint256",
							"name": "",
							"type": "uint256"
						}
					],
					"stateMutability": "nonpayable",
					"type": "function"
				}
			],
			"devdoc": {
				"kind": "dev",
				"methods": {},
				"version": 1
			},
			"evm": {
				"assembly": "    /* \"tutorial/payable_func.sol\":91:1528  contract Payable is Ownable{... */\n  mstore(0x40, 0x80)\n  callvalue\n  dup1\n  iszero\n  tag_1\n  jumpi\n  0x00\n  dup1\n  revert\ntag_1:\n  pop\n    /* \"tutorial/ownable.sol\":330:340  msg.sender */\n  caller\n    /* \"tutorial/ownable.sol\":322:327  owner */\n  0x00\n  dup1\n    /* \"tutorial/ownable.sol\":322:340  owner = msg.sender */\n  0x0100\n  exp\n  dup2\n  sload\n  dup2\n  0xffffffffffffffffffffffffffffffffffffffff\n  mul\n  not\n  and\n  swap1\n  dup4\n  0xffffffffffffffffffffffffffffffffffffffff\n  and\n  mul\n  or\n  swap1\n  sstore\n  pop\n    /* \"tutorial/payable_func.sol\":91:1528  contract Payable is Ownable{... */\n  dataSize(sub_0)\n  dup1\n  dataOffset(sub_0)\n  0x00\n  codecopy\n  0x00\n  return\nstop\n\nsub_0: assembly {\n        /* \"tutorial/payable_func.sol\":91:1528  contract Payable is Ownable{... */\n      mstore(0x40, 0x80)\n      jumpi(tag_1, lt(calldatasize, 0x04))\n      shr(0xe0, calldataload(0x00))\n      dup1\n      0x12065fe0\n      eq\n      tag_2\n      jumpi\n      dup1\n      0x2e1a7d4d\n      eq\n      tag_3\n      jumpi\n      dup1\n      0x8da5cb5b\n      eq\n      tag_4\n      jumpi\n      dup1\n      0xa50ec326\n      eq\n      tag_5\n      jumpi\n      dup1\n      0xa9059cbb\n      eq\n      tag_6\n      jumpi\n    tag_1:\n      0x00\n      dup1\n      revert\n        /* \"tutorial/payable_func.sol\":625:716  function getBalance() public view returns (uint){... */\n    tag_2:\n      callvalue\n      dup1\n      iszero\n      tag_7\n      jumpi\n      0x00\n      dup1\n      revert\n    tag_7:\n      pop\n      tag_8\n      tag_9\n      jump\t// in\n    tag_8:\n      mload(0x40)\n      tag_10\n      swap2\n      swap1\n      tag_11\n      jump\t// in\n    tag_10:\n      mload(0x40)\n      dup1\n      swap2\n      sub\n      swap1\n      return\n        /* \"tutorial/payable_func.sol\":419:619  function withdraw(uint amount) public onlyOwner returns (uint) {... */\n    tag_3:\n      callvalue\n      dup1\n      iszero\n      tag_12\n      jumpi\n      0x00\n      dup1\n      revert\n    tag_12:\n      pop\n      tag_13\n      0x04\n      dup1\n      calldatasize\n      sub\n      dup2\n      add\n      swap1\n      tag_14\n      swap2\n      swap1\n      tag_15\n      jump\t// in\n    tag_14:\n      tag_16\n      jump\t// in\n    tag_13:\n      mload(0x40)\n      tag_17\n      swap2\n      swap1\n      tag_11\n      jump\t// in\n    tag_17:\n      mload(0x40)\n      dup1\n      swap2\n      sub\n      swap1\n      return\n        /* \"tutorial/ownable.sol\":89:109  address public owner */\n    tag_4:\n      callvalue\n      dup1\n      iszero\n      tag_18\n      jumpi\n      0x00\n      dup1\n      revert\n    tag_18:\n      pop\n      tag_19\n      tag_20\n      jump\t// in\n    tag_19:\n      mload(0x40)\n      tag_21\n      swap2\n      swap1\n      tag_22\n      jump\t// in\n    tag_21:\n      mload(0x40)\n      dup1\n      swap2\n      sub\n      swap1\n      return\n        /* \"tutorial/payable_func.sol\":228:413  function deposite() public payable returns (uint) {... */\n    tag_5:\n      tag_23\n      tag_24\n      jump\t// in\n    tag_23:\n      mload(0x40)\n      tag_25\n      swap2\n      swap1\n      tag_11\n      jump\t// in\n    tag_25:\n      mload(0x40)\n      dup1\n      swap2\n      sub\n      swap1\n      return\n        /* \"tutorial/payable_func.sol\":722:1373  function transfer (address recipient, uint amount) public  {... */\n    tag_6:\n      callvalue\n      dup1\n      iszero\n      tag_26\n      jumpi\n      0x00\n      dup1\n      revert\n    tag_26:\n      pop\n      tag_27\n      0x04\n      dup1\n      calldatasize\n      sub\n      dup2\n      add\n      swap1\n      tag_28\n      swap2\n      swap1\n      tag_29\n      jump\t// in\n    tag_28:\n      tag_30\n      jump\t// in\n    tag_27:\n      stop\n        /* \"tutorial/payable_func.sol\":625:716  function getBalance() public view returns (uint){... */\n    tag_9:\n        /* \"tutorial/payable_func.sol\":668:672  uint */\n      0x00\n        /* \"tutorial/payable_func.sol\":690:697  balance */\n      0x01\n        /* \"tutorial/payable_func.sol\":690:709  balance[msg.sender] */\n      0x00\n        /* \"tutorial/payable_func.sol\":698:708  msg.sender */\n      caller\n        /* \"tutorial/payable_func.sol\":690:709  balance[msg.sender] */\n      0xffffffffffffffffffffffffffffffffffffffff\n      and\n      0xffffffffffffffffffffffffffffffffffffffff\n      and\n      dup2\n      mstore\n      0x20\n      add\n      swap1\n      dup2\n      mstore\n      0x20\n      add\n      0x00\n      keccak256\n      sload\n        /* \"tutorial/payable_func.sol\":683:709  return balance[msg.sender] */\n      swap1\n      pop\n        /* \"tutorial/payable_func.sol\":625:716  function getBalance() public view returns (uint){... */\n      swap1\n      jump\t// out\n        /* \"tutorial/payable_func.sol\":419:619  function withdraw(uint amount) public onlyOwner returns (uint) {... */\n    tag_16:\n        /* \"tutorial/payable_func.sol\":476:480  uint */\n      0x00\n        /* \"tutorial/ownable.sol\":166:171  owner */\n      dup1\n      0x00\n      swap1\n      sload\n      swap1\n      0x0100\n      exp\n      swap1\n      div\n      0xffffffffffffffffffffffffffffffffffffffff\n      and\n        /* \"tutorial/ownable.sol\":152:171  msg.sender == owner */\n      0xffffffffffffffffffffffffffffffffffffffff\n      and\n        /* \"tutorial/ownable.sol\":152:162  msg.sender */\n      caller\n        /* \"tutorial/ownable.sol\":152:171  msg.sender == owner */\n      0xffffffffffffffffffffffffffffffffffffffff\n      and\n      eq\n        /* \"tutorial/ownable.sol\":144:211  require(msg.sender == owner, \"Only owner can add money to account\") */\n      tag_33\n      jumpi\n      mload(0x40)\n      0x08c379a000000000000000000000000000000000000000000000000000000000\n      dup2\n      mstore\n      0x04\n      add\n      tag_34\n      swap1\n      tag_35\n      jump\t// in\n    tag_34:\n      mload(0x40)\n      dup1\n      swap2\n      sub\n      swap1\n      revert\n    tag_33:\n        /* \"tutorial/payable_func.sol\":523:529  amount */\n      dup2\n        /* \"tutorial/payable_func.sol\":500:507  balance */\n      0x01\n        /* \"tutorial/payable_func.sol\":500:519  balance[msg.sender] */\n      0x00\n        /* \"tutorial/payable_func.sol\":508:518  msg.sender */\n      caller\n        /* \"tutorial/payable_func.sol\":500:519  balance[msg.sender] */\n      0xffffffffffffffffffffffffffffffffffffffff\n      and\n      0xffffffffffffffffffffffffffffffffffffffff\n      and\n      dup2\n      mstore\n      0x20\n      add\n      swap1\n      dup2\n      mstore\n      0x20\n      add\n      0x00\n      keccak256\n      sload\n        /* \"tutorial/payable_func.sol\":500:529  balance[msg.sender] >= amount */\n      lt\n      iszero\n        /* \"tutorial/payable_func.sol\":492:530  require(balance[msg.sender] >= amount) */\n      tag_37\n      jumpi\n      0x00\n      dup1\n      revert\n    tag_37:\n        /* \"tutorial/payable_func.sol\":548:558  msg.sender */\n      caller\n        /* \"tutorial/payable_func.sol\":540:568  payable(msg.sender).transfer */\n      0xffffffffffffffffffffffffffffffffffffffff\n      and\n        /* \"tutorial/payable_func.sol\":540:576  payable(msg.sender).transfer(amount) */\n      0x08fc\n        /* \"tutorial/payable_func.sol\":569:575  amount */\n      dup4\n        /* \"tutorial/payable_func.sol\":540:576  payable(msg.sender).transfer(amount) */\n      swap1\n      dup2\n      iszero\n      mul\n      swap1\n      mload(0x40)\n      0x00\n      mload(0x40)\n      dup1\n      dup4\n      sub\n      dup2\n      dup6\n      dup9\n      dup9\n      call\n      swap4\n      pop\n      pop\n      pop\n      pop\n      iszero\n      dup1\n      iszero\n      tag_39\n      jumpi\n      returndatasize\n      0x00\n      dup1\n      returndatacopy\n      revert(0x00, returndatasize)\n    tag_39:\n      pop\n        /* \"tutorial/payable_func.sol\":593:600  balance */\n      0x01\n        /* \"tutorial/payable_func.sol\":593:612  balance[msg.sender] */\n      0x00\n        /* \"tutorial/payable_func.sol\":601:611  msg.sender */\n      caller\n        /* \"tutorial/payable_func.sol\":593:612  balance[msg.sender] */\n      0xffffffffffffffffffffffffffffffffffffffff\n      and\n      0xffffffffffffffffffffffffffffffffffffffff\n      and\n      dup2\n      mstore\n      0x20\n      add\n      swap1\n      dup2\n      mstore\n      0x20\n      add\n      0x00\n      keccak256\n      sload\n        /* \"tutorial/payable_func.sol\":586:612  return balance[msg.sender] */\n      swap1\n      pop\n        /* \"tutorial/payable_func.sol\":419:619  function withdraw(uint amount) public onlyOwner returns (uint) {... */\n      swap2\n      swap1\n      pop\n      jump\t// out\n        /* \"tutorial/ownable.sol\":89:109  address public owner */\n    tag_20:\n      0x00\n      dup1\n      sload\n      swap1\n      0x0100\n      exp\n      swap1\n      div\n      0xffffffffffffffffffffffffffffffffffffffff\n      and\n      dup2\n      jump\t// out\n        /* \"tutorial/payable_func.sol\":228:413  function deposite() public payable returns (uint) {... */\n    tag_24:\n        /* \"tutorial/payable_func.sol\":272:276  uint */\n      0x00\n        /* \"tutorial/payable_func.sol\":311:320  msg.value */\n      callvalue\n        /* \"tutorial/payable_func.sol\":288:295  balance */\n      0x01\n        /* \"tutorial/payable_func.sol\":288:307  balance[msg.sender] */\n      0x00\n        /* \"tutorial/payable_func.sol\":296:306  msg.sender */\n      caller\n        /* \"tutorial/payable_func.sol\":288:307  balance[msg.sender] */\n      0xffffffffffffffffffffffffffffffffffffffff\n      and\n      0xffffffffffffffffffffffffffffffffffffffff\n      and\n      dup2\n      mstore\n      0x20\n      add\n      swap1\n      dup2\n      mstore\n      0x20\n      add\n      0x00\n      keccak256\n      0x00\n        /* \"tutorial/payable_func.sol\":288:320  balance[msg.sender] += msg.value */\n      dup3\n      dup3\n      sload\n      tag_41\n      swap2\n      swap1\n      tag_42\n      jump\t// in\n    tag_41:\n      swap3\n      pop\n      pop\n      dup2\n      swap1\n      sstore\n      pop\n        /* \"tutorial/payable_func.sol\":335:370  depositeDone(msg.value, msg.sender) */\n      0x4d2bb476d26796d3b550300c8c6aff36645638e7406a409ec222c78de1b0ab85\n        /* \"tutorial/payable_func.sol\":348:357  msg.value */\n      callvalue\n        /* \"tutorial/payable_func.sol\":359:369  msg.sender */\n      caller\n        /* \"tutorial/payable_func.sol\":335:370  depositeDone(msg.value, msg.sender) */\n      mload(0x40)\n      tag_43\n      swap3\n      swap2\n      swap1\n      tag_44\n      jump\t// in\n    tag_43:\n      mload(0x40)\n      dup1\n      swap2\n      sub\n      swap1\n      log1\n        /* \"tutorial/payable_func.sol\":387:394  balance */\n      0x01\n        /* \"tutorial/payable_func.sol\":387:406  balance[msg.sender] */\n      0x00\n        /* \"tutorial/payable_func.sol\":395:405  msg.sender */\n      caller\n        /* \"tutorial/payable_func.sol\":387:406  balance[msg.sender] */\n      0xffffffffffffffffffffffffffffffffffffffff\n      and\n      0xffffffffffffffffffffffffffffffffffffffff\n      and\n      dup2\n      mstore\n      0x20\n      add\n      swap1\n      dup2\n      mstore\n      0x20\n      add\n      0x00\n      keccak256\n      sload\n        /* \"tutorial/payable_func.sol\":380:406  return balance[msg.sender] */\n      swap1\n      pop\n        /* \"tutorial/payable_func.sol\":228:413  function deposite() public payable returns (uint) {... */\n      swap1\n      jump\t// out\n        /* \"tutorial/payable_func.sol\":722:1373  function transfer (address recipient, uint amount) public  {... */\n    tag_30:\n        /* \"tutorial/payable_func.sol\":822:828  amount */\n      dup1\n        /* \"tutorial/payable_func.sol\":799:806  balance */\n      0x01\n        /* \"tutorial/payable_func.sol\":799:818  balance[msg.sender] */\n      0x00\n        /* \"tutorial/payable_func.sol\":807:817  msg.sender */\n      caller\n        /* \"tutorial/payable_func.sol\":799:818  balance[msg.sender] */\n      0xffffffffffffffffffffffffffffffffffffffff\n      and\n      0xffffffffffffffffffffffffffffffffffffffff\n      and\n      dup2\n      mstore\n      0x20\n      add\n      swap1\n      dup2\n      mstore\n      0x20\n      add\n      0x00\n      keccak256\n      sload\n        /* \"tutorial/payable_func.sol\":799:828  balance[msg.sender] >= amount */\n      lt\n      iszero\n        /* \"tutorial/payable_func.sol\":791:855  require(balance[msg.sender] >= amount, \"Balance not sufficient\") */\n      tag_46\n      jumpi\n      mload(0x40)\n      0x08c379a000000000000000000000000000000000000000000000000000000000\n      dup2\n      mstore\n      0x04\n      add\n      tag_47\n      swap1\n      tag_48\n      jump\t// in\n    tag_47:\n      mload(0x40)\n      dup1\n      swap2\n      sub\n      swap1\n      revert\n    tag_46:\n        /* \"tutorial/payable_func.sol\":936:945  recipient */\n      dup2\n        /* \"tutorial/payable_func.sol\":922:945  msg.sender != recipient */\n      0xffffffffffffffffffffffffffffffffffffffff\n      and\n        /* \"tutorial/payable_func.sol\":922:932  msg.sender */\n      caller\n        /* \"tutorial/payable_func.sol\":922:945  msg.sender != recipient */\n      0xffffffffffffffffffffffffffffffffffffffff\n      and\n      sub\n        /* \"tutorial/payable_func.sol\":914:982  require(msg.sender != recipient, \"Don't transfer money to yourself\") */\n      tag_49\n      jumpi\n      mload(0x40)\n      0x08c379a000000000000000000000000000000000000000000000000000000000\n      dup2\n      mstore\n      0x04\n      add\n      tag_50\n      swap1\n      tag_51\n      jump\t// in\n    tag_50:\n      mload(0x40)\n      dup1\n      swap2\n      sub\n      swap1\n      revert\n    tag_49:\n        /* \"tutorial/payable_func.sol\":1033:1059  uint previousSenderBalance */\n      0x00\n        /* \"tutorial/payable_func.sol\":1062:1069  balance */\n      0x01\n        /* \"tutorial/payable_func.sol\":1062:1081  balance[msg.sender] */\n      0x00\n        /* \"tutorial/payable_func.sol\":1070:1080  msg.sender */\n      caller\n        /* \"tutorial/payable_func.sol\":1062:1081  balance[msg.sender] */\n      0xffffffffffffffffffffffffffffffffffffffff\n      and\n      0xffffffffffffffffffffffffffffffffffffffff\n      and\n      dup2\n      mstore\n      0x20\n      add\n      swap1\n      dup2\n      mstore\n      0x20\n      add\n      0x00\n      keccak256\n      sload\n        /* \"tutorial/payable_func.sol\":1033:1081  uint previousSenderBalance = balance[msg.sender] */\n      swap1\n      pop\n        /* \"tutorial/payable_func.sol\":1092:1132  _transfer(msg.sender, recipient, amount) */\n      tag_52\n        /* \"tutorial/payable_func.sol\":1102:1112  msg.sender */\n      caller\n        /* \"tutorial/payable_func.sol\":1114:1123  recipient */\n      dup5\n        /* \"tutorial/payable_func.sol\":1125:1131  amount */\n      dup5\n        /* \"tutorial/payable_func.sol\":1092:1101  _transfer */\n      tag_53\n        /* \"tutorial/payable_func.sol\":1092:1132  _transfer(msg.sender, recipient, amount) */\n      jump\t// in\n    tag_52:\n        /* \"tutorial/payable_func.sol\":1197:1203  amount */\n      dup2\n        /* \"tutorial/payable_func.sol\":1173:1194  previousSenderBalance */\n      dup2\n        /* \"tutorial/payable_func.sol\":1173:1203  previousSenderBalance - amount */\n      tag_54\n      swap2\n      swap1\n      tag_55\n      jump\t// in\n    tag_54:\n        /* \"tutorial/payable_func.sol\":1150:1157  balance */\n      0x01\n        /* \"tutorial/payable_func.sol\":1150:1169  balance[msg.sender] */\n      0x00\n        /* \"tutorial/payable_func.sol\":1158:1168  msg.sender */\n      caller\n        /* \"tutorial/payable_func.sol\":1150:1169  balance[msg.sender] */\n      0xffffffffffffffffffffffffffffffffffffffff\n      and\n      0xffffffffffffffffffffffffffffffffffffffff\n      and\n      dup2\n      mstore\n      0x20\n      add\n      swap1\n      dup2\n      mstore\n      0x20\n      add\n      0x00\n      keccak256\n      sload\n        /* \"tutorial/payable_func.sol\":1150:1203  balance[msg.sender] == previousSenderBalance - amount */\n      eq\n        /* \"tutorial/payable_func.sol\":1143:1204  assert(balance[msg.sender] == previousSenderBalance - amount) */\n      tag_56\n      jumpi\n      tag_57\n      tag_58\n      jump\t// in\n    tag_57:\n    tag_56:\n        /* \"tutorial/payable_func.sol\":781:1373  {... */\n      pop\n        /* \"tutorial/payable_func.sol\":722:1373  function transfer (address recipient, uint amount) public  {... */\n      pop\n      pop\n      jump\t// out\n        /* \"tutorial/payable_func.sol\":1379:1525  function _transfer(address from, address to, uint amount) private {... */\n    tag_53:\n        /* \"tutorial/payable_func.sol\":1472:1478  amount */\n      dup1\n        /* \"tutorial/payable_func.sol\":1455:1462  balance */\n      0x01\n        /* \"tutorial/payable_func.sol\":1455:1468  balance[from] */\n      0x00\n        /* \"tutorial/payable_func.sol\":1463:1467  from */\n      dup6\n        /* \"tutorial/payable_func.sol\":1455:1468  balance[from] */\n      0xffffffffffffffffffffffffffffffffffffffff\n      and\n      0xffffffffffffffffffffffffffffffffffffffff\n      and\n      dup2\n      mstore\n      0x20\n      add\n      swap1\n      dup2\n      mstore\n      0x20\n      add\n      0x00\n      keccak256\n      0x00\n        /* \"tutorial/payable_func.sol\":1455:1478  balance[from] -= amount */\n      dup3\n      dup3\n      sload\n      tag_60\n      swap2\n      swap1\n      tag_55\n      jump\t// in\n    tag_60:\n      swap3\n      pop\n      pop\n      dup2\n      swap1\n      sstore\n      pop\n        /* \"tutorial/payable_func.sol\":1512:1518  amount */\n      dup1\n        /* \"tutorial/payable_func.sol\":1503:1509  amount */\n      dup2\n        /* \"tutorial/payable_func.sol\":1503:1518  amount * amount */\n      tag_61\n      swap2\n      swap1\n      tag_62\n      jump\t// in\n    tag_61:\n        /* \"tutorial/payable_func.sol\":1488:1495  balance */\n      0x01\n        /* \"tutorial/payable_func.sol\":1488:1499  balance[to] */\n      0x00\n        /* \"tutorial/payable_func.sol\":1496:1498  to */\n      dup5\n        /* \"tutorial/payable_func.sol\":1488:1499  balance[to] */\n      0xffffffffffffffffffffffffffffffffffffffff\n      and\n      0xffffffffffffffffffffffffffffffffffffffff\n      and\n      dup2\n      mstore\n      0x20\n      add\n      swap1\n      dup2\n      mstore\n      0x20\n      add\n      0x00\n      keccak256\n      0x00\n        /* \"tutorial/payable_func.sol\":1488:1518  balance[to] += amount * amount */\n      dup3\n      dup3\n      sload\n      tag_63\n      swap2\n      swap1\n      tag_42\n      jump\t// in\n    tag_63:\n      swap3\n      pop\n      pop\n      dup2\n      swap1\n      sstore\n      pop\n        /* \"tutorial/payable_func.sol\":1379:1525  function _transfer(address from, address to, uint amount) private {... */\n      pop\n      pop\n      pop\n      jump\t// out\n        /* \"#utility.yul\":7:84   */\n    tag_64:\n        /* \"#utility.yul\":44:51   */\n      0x00\n        /* \"#utility.yul\":73:78   */\n      dup2\n        /* \"#utility.yul\":62:78   */\n      swap1\n      pop\n        /* \"#utility.yul\":7:84   */\n      swap2\n      swap1\n      pop\n      jump\t// out\n        /* \"#utility.yul\":90:208   */\n    tag_65:\n        /* \"#utility.yul\":177:201   */\n      tag_87\n        /* \"#utility.yul\":195:200   */\n      dup2\n        /* \"#utility.yul\":177:201   */\n      tag_64\n      jump\t// in\n    tag_87:\n        /* \"#utility.yul\":172:175   */\n      dup3\n        /* \"#utility.yul\":165:202   */\n      mstore\n        /* \"#utility.yul\":90:208   */\n      pop\n      pop\n      jump\t// out\n        /* \"#utility.yul\":214:436   */\n    tag_11:\n        /* \"#utility.yul\":307:311   */\n      0x00\n        /* \"#utility.yul\":345:347   */\n      0x20\n        /* \"#utility.yul\":334:343   */\n      dup3\n        /* \"#utility.yul\":330:348   */\n      add\n        /* \"#utility.yul\":322:348   */\n      swap1\n      pop\n        /* \"#utility.yul\":358:429   */\n      tag_89\n        /* \"#utility.yul\":426:427   */\n      0x00\n        /* \"#utility.yul\":415:424   */\n      dup4\n        /* \"#utility.yul\":411:428   */\n      add\n        /* \"#utility.yul\":402:408   */\n      dup5\n        /* \"#utility.yul\":358:429   */\n      tag_65\n      jump\t// in\n    tag_89:\n        /* \"#utility.yul\":214:436   */\n      swap3\n      swap2\n      pop\n      pop\n      jump\t// out\n        /* \"#utility.yul\":523:640   */\n    tag_67:\n        /* \"#utility.yul\":632:633   */\n      0x00\n        /* \"#utility.yul\":629:630   */\n      dup1\n        /* \"#utility.yul\":622:634   */\n      revert\n        /* \"#utility.yul\":769:891   */\n    tag_69:\n        /* \"#utility.yul\":842:866   */\n      tag_94\n        /* \"#utility.yul\":860:865   */\n      dup2\n        /* \"#utility.yul\":842:866   */\n      tag_64\n      jump\t// in\n    tag_94:\n        /* \"#utility.yul\":835:840   */\n      dup2\n        /* \"#utility.yul\":832:867   */\n      eq\n        /* \"#utility.yul\":822:885   */\n      tag_95\n      jumpi\n        /* \"#utility.yul\":881:882   */\n      0x00\n        /* \"#utility.yul\":878:879   */\n      dup1\n        /* \"#utility.yul\":871:883   */\n      revert\n        /* \"#utility.yul\":822:885   */\n    tag_95:\n        /* \"#utility.yul\":769:891   */\n      pop\n      jump\t// out\n        /* \"#utility.yul\":897:1036   */\n    tag_70:\n        /* \"#utility.yul\":943:948   */\n      0x00\n        /* \"#utility.yul\":981:987   */\n      dup2\n        /* \"#utility.yul\":968:988   */\n      calldataload\n        /* \"#utility.yul\":959:988   */\n      swap1\n      pop\n        /* \"#utility.yul\":997:1030   */\n      tag_97\n        /* \"#utility.yul\":1024:1029   */\n      dup2\n        /* \"#utility.yul\":997:1030   */\n      tag_69\n      jump\t// in\n    tag_97:\n        /* \"#utility.yul\":897:1036   */\n      swap3\n      swap2\n      pop\n      pop\n      jump\t// out\n        /* \"#utility.yul\":1042:1371   */\n    tag_15:\n        /* \"#utility.yul\":1101:1107   */\n      0x00\n        /* \"#utility.yul\":1150:1152   */\n      0x20\n        /* \"#utility.yul\":1138:1147   */\n      dup3\n        /* \"#utility.yul\":1129:1136   */\n      dup5\n        /* \"#utility.yul\":1125:1148   */\n      sub\n        /* \"#utility.yul\":1121:1153   */\n      slt\n        /* \"#utility.yul\":1118:1237   */\n      iszero\n      tag_99\n      jumpi\n        /* \"#utility.yul\":1156:1235   */\n      tag_100\n      tag_67\n      jump\t// in\n    tag_100:\n        /* \"#utility.yul\":1118:1237   */\n    tag_99:\n        /* \"#utility.yul\":1276:1277   */\n      0x00\n        /* \"#utility.yul\":1301:1354   */\n      tag_101\n        /* \"#utility.yul\":1346:1353   */\n      dup5\n        /* \"#utility.yul\":1337:1343   */\n      dup3\n        /* \"#utility.yul\":1326:1335   */\n      dup6\n        /* \"#utility.yul\":1322:1344   */\n      add\n        /* \"#utility.yul\":1301:1354   */\n      tag_70\n      jump\t// in\n    tag_101:\n        /* \"#utility.yul\":1291:1354   */\n      swap2\n      pop\n        /* \"#utility.yul\":1247:1364   */\n      pop\n        /* \"#utility.yul\":1042:1371   */\n      swap3\n      swap2\n      pop\n      pop\n      jump\t// out\n        /* \"#utility.yul\":1377:1503   */\n    tag_71:\n        /* \"#utility.yul\":1414:1421   */\n      0x00\n        /* \"#utility.yul\":1454:1496   */\n      0xffffffffffffffffffffffffffffffffffffffff\n        /* \"#utility.yul\":1447:1452   */\n      dup3\n        /* \"#utility.yul\":1443:1497   */\n      and\n        /* \"#utility.yul\":1432:1497   */\n      swap1\n      pop\n        /* \"#utility.yul\":1377:1503   */\n      swap2\n      swap1\n      pop\n      jump\t// out\n        /* \"#utility.yul\":1509:1605   */\n    tag_72:\n        /* \"#utility.yul\":1546:1553   */\n      0x00\n        /* \"#utility.yul\":1575:1599   */\n      tag_104\n        /* \"#utility.yul\":1593:1598   */\n      dup3\n        /* \"#utility.yul\":1575:1599   */\n      tag_71\n      jump\t// in\n    tag_104:\n        /* \"#utility.yul\":1564:1599   */\n      swap1\n      pop\n        /* \"#utility.yul\":1509:1605   */\n      swap2\n      swap1\n      pop\n      jump\t// out\n        /* \"#utility.yul\":1611:1729   */\n    tag_73:\n        /* \"#utility.yul\":1698:1722   */\n      tag_106\n        /* \"#utility.yul\":1716:1721   */\n      dup2\n        /* \"#utility.yul\":1698:1722   */\n      tag_72\n      jump\t// in\n    tag_106:\n        /* \"#utility.yul\":1693:1696   */\n      dup3\n        /* \"#utility.yul\":1686:1723   */\n      mstore\n        /* \"#utility.yul\":1611:1729   */\n      pop\n      pop\n      jump\t// out\n        /* \"#utility.yul\":1735:1957   */\n    tag_22:\n        /* \"#utility.yul\":1828:1832   */\n      0x00\n        /* \"#utility.yul\":1866:1868   */\n      0x20\n        /* \"#utility.yul\":1855:1864   */\n      dup3\n        /* \"#utility.yul\":1851:1869   */\n      add\n        /* \"#utility.yul\":1843:1869   */\n      swap1\n      pop\n        /* \"#utility.yul\":1879:1950   */\n      tag_108\n        /* \"#utility.yul\":1947:1948   */\n      0x00\n        /* \"#utility.yul\":1936:1945   */\n      dup4\n        /* \"#utility.yul\":1932:1949   */\n      add\n        /* \"#utility.yul\":1923:1929   */\n      dup5\n        /* \"#utility.yul\":1879:1950   */\n      tag_73\n      jump\t// in\n    tag_108:\n        /* \"#utility.yul\":1735:1957   */\n      swap3\n      swap2\n      pop\n      pop\n      jump\t// out\n        /* \"#utility.yul\":1963:2085   */\n    tag_74:\n        /* \"#utility.yul\":2036:2060   */\n      tag_110\n        /* \"#utility.yul\":2054:2059   */\n      dup2\n        /* \"#utility.yul\":2036:2060   */\n      tag_72\n      jump\t// in\n    tag_110:\n        /* \"#utility.yul\":2029:2034   */\n      dup2\n        /* \"#utility.yul\":2026:2061   */\n      eq\n        /* \"#utility.yul\":2016:2079   */\n      tag_111\n      jumpi\n        /* \"#utility.yul\":2075:2076   */\n      0x00\n        /* \"#utility.yul\":2072:2073   */\n      dup1\n        /* \"#utility.yul\":2065:2077   */\n      revert\n        /* \"#utility.yul\":2016:2079   */\n    tag_111:\n        /* \"#utility.yul\":1963:2085   */\n      pop\n      jump\t// out\n        /* \"#utility.yul\":2091:2230   */\n    tag_75:\n        /* \"#utility.yul\":2137:2142   */\n      0x00\n        /* \"#utility.yul\":2175:2181   */\n      dup2\n        /* \"#utility.yul\":2162:2182   */\n      calldataload\n        /* \"#utility.yul\":2153:2182   */\n      swap1\n      pop\n        /* \"#utility.yul\":2191:2224   */\n      tag_113\n        /* \"#utility.yul\":2218:2223   */\n      dup2\n        /* \"#utility.yul\":2191:2224   */\n      tag_74\n      jump\t// in\n    tag_113:\n        /* \"#utility.yul\":2091:2230   */\n      swap3\n      swap2\n      pop\n      pop\n      jump\t// out\n        /* \"#utility.yul\":2236:2710   */\n    tag_29:\n        /* \"#utility.yul\":2304:2310   */\n      0x00\n        /* \"#utility.yul\":2312:2318   */\n      dup1\n        /* \"#utility.yul\":2361:2363   */\n      0x40\n        /* \"#utility.yul\":2349:2358   */\n      dup4\n        /* \"#utility.yul\":2340:2347   */\n      dup6\n        /* \"#utility.yul\":2336:2359   */\n      sub\n        /* \"#utility.yul\":2332:2364   */\n      slt\n        /* \"#utility.yul\":2329:2448   */\n      iszero\n      tag_115\n      jumpi\n        /* \"#utility.yul\":2367:2446   */\n      tag_116\n      tag_67\n      jump\t// in\n    tag_116:\n        /* \"#utility.yul\":2329:2448   */\n    tag_115:\n        /* \"#utility.yul\":2487:2488   */\n      0x00\n        /* \"#utility.yul\":2512:2565   */\n      tag_117\n        /* \"#utility.yul\":2557:2564   */\n      dup6\n        /* \"#utility.yul\":2548:2554   */\n      dup3\n        /* \"#utility.yul\":2537:2546   */\n      dup7\n        /* \"#utility.yul\":2533:2555   */\n      add\n        /* \"#utility.yul\":2512:2565   */\n      tag_75\n      jump\t// in\n    tag_117:\n        /* \"#utility.yul\":2502:2565   */\n      swap3\n      pop\n        /* \"#utility.yul\":2458:2575   */\n      pop\n        /* \"#utility.yul\":2614:2616   */\n      0x20\n        /* \"#utility.yul\":2640:2693   */\n      tag_118\n        /* \"#utility.yul\":2685:2692   */\n      dup6\n        /* \"#utility.yul\":2676:2682   */\n      dup3\n        /* \"#utility.yul\":2665:2674   */\n      dup7\n        /* \"#utility.yul\":2661:2683   */\n      add\n        /* \"#utility.yul\":2640:2693   */\n      tag_70\n      jump\t// in\n    tag_118:\n        /* \"#utility.yul\":2630:2693   */\n      swap2\n      pop\n        /* \"#utility.yul\":2585:2703   */\n      pop\n        /* \"#utility.yul\":2236:2710   */\n      swap3\n      pop\n      swap3\n      swap1\n      pop\n      jump\t// out\n        /* \"#utility.yul\":2716:2885   */\n    tag_76:\n        /* \"#utility.yul\":2800:2811   */\n      0x00\n        /* \"#utility.yul\":2834:2840   */\n      dup3\n        /* \"#utility.yul\":2829:2832   */\n      dup3\n        /* \"#utility.yul\":2822:2841   */\n      mstore\n        /* \"#utility.yul\":2874:2878   */\n      0x20\n        /* \"#utility.yul\":2869:2872   */\n      dup3\n        /* \"#utility.yul\":2865:2879   */\n      add\n        /* \"#utility.yul\":2850:2879   */\n      swap1\n      pop\n        /* \"#utility.yul\":2716:2885   */\n      swap3\n      swap2\n      pop\n      pop\n      jump\t// out\n        /* \"#utility.yul\":2891:3113   */\n    tag_77:\n        /* \"#utility.yul\":3031:3065   */\n      0x4f6e6c79206f776e65722063616e20616464206d6f6e657920746f206163636f\n        /* \"#utility.yul\":3027:3028   */\n      0x00\n        /* \"#utility.yul\":3019:3025   */\n      dup3\n        /* \"#utility.yul\":3015:3029   */\n      add\n        /* \"#utility.yul\":3008:3066   */\n      mstore\n        /* \"#utility.yul\":3100:3105   */\n      0x756e740000000000000000000000000000000000000000000000000000000000\n        /* \"#utility.yul\":3095:3097   */\n      0x20\n        /* \"#utility.yul\":3087:3093   */\n      dup3\n        /* \"#utility.yul\":3083:3098   */\n      add\n        /* \"#utility.yul\":3076:3106   */\n      mstore\n        /* \"#utility.yul\":2891:3113   */\n      pop\n      jump\t// out\n        /* \"#utility.yul\":3119:3485   */\n    tag_78:\n        /* \"#utility.yul\":3261:3264   */\n      0x00\n        /* \"#utility.yul\":3282:3349   */\n      tag_122\n        /* \"#utility.yul\":3346:3348   */\n      0x23\n        /* \"#utility.yul\":3341:3344   */\n      dup4\n        /* \"#utility.yul\":3282:3349   */\n      tag_76\n      jump\t// in\n    tag_122:\n        /* \"#utility.yul\":3275:3349   */\n      swap2\n      pop\n        /* \"#utility.yul\":3358:3451   */\n      tag_123\n        /* \"#utility.yul\":3447:3450   */\n      dup3\n        /* \"#utility.yul\":3358:3451   */\n      tag_77\n      jump\t// in\n    tag_123:\n        /* \"#utility.yul\":3476:3478   */\n      0x40\n        /* \"#utility.yul\":3471:3474   */\n      dup3\n        /* \"#utility.yul\":3467:3479   */\n      add\n        /* \"#utility.yul\":3460:3479   */\n      swap1\n      pop\n        /* \"#utility.yul\":3119:3485   */\n      swap2\n      swap1\n      pop\n      jump\t// out\n        /* \"#utility.yul\":3491:3910   */\n    tag_35:\n        /* \"#utility.yul\":3657:3661   */\n      0x00\n        /* \"#utility.yul\":3695:3697   */\n      0x20\n        /* \"#utility.yul\":3684:3693   */\n      dup3\n        /* \"#utility.yul\":3680:3698   */\n      add\n        /* \"#utility.yul\":3672:3698   */\n      swap1\n      pop\n        /* \"#utility.yul\":3744:3753   */\n      dup2\n        /* \"#utility.yul\":3738:3742   */\n      dup2\n        /* \"#utility.yul\":3734:3754   */\n      sub\n        /* \"#utility.yul\":3730:3731   */\n      0x00\n        /* \"#utility.yul\":3719:3728   */\n      dup4\n        /* \"#utility.yul\":3715:3732   */\n      add\n        /* \"#utility.yul\":3708:3755   */\n      mstore\n        /* \"#utility.yul\":3772:3903   */\n      tag_125\n        /* \"#utility.yul\":3898:3902   */\n      dup2\n        /* \"#utility.yul\":3772:3903   */\n      tag_78\n      jump\t// in\n    tag_125:\n        /* \"#utility.yul\":3764:3903   */\n      swap1\n      pop\n        /* \"#utility.yul\":3491:3910   */\n      swap2\n      swap1\n      pop\n      jump\t// out\n        /* \"#utility.yul\":3916:4096   */\n    tag_79:\n        /* \"#utility.yul\":3964:4041   */\n      0x4e487b7100000000000000000000000000000000000000000000000000000000\n        /* \"#utility.yul\":3961:3962   */\n      0x00\n        /* \"#utility.yul\":3954:4042   */\n      mstore\n        /* \"#utility.yul\":4061:4065   */\n      0x11\n        /* \"#utility.yul\":4058:4059   */\n      0x04\n        /* \"#utility.yul\":4051:4066   */\n      mstore\n        /* \"#utility.yul\":4085:4089   */\n      0x24\n        /* \"#utility.yul\":4082:4083   */\n      0x00\n        /* \"#utility.yul\":4075:4090   */\n      revert\n        /* \"#utility.yul\":4102:4293   */\n    tag_42:\n        /* \"#utility.yul\":4142:4145   */\n      0x00\n        /* \"#utility.yul\":4161:4181   */\n      tag_128\n        /* \"#utility.yul\":4179:4180   */\n      dup3\n        /* \"#utility.yul\":4161:4181   */\n      tag_64\n      jump\t// in\n    tag_128:\n        /* \"#utility.yul\":4156:4181   */\n      swap2\n      pop\n        /* \"#utility.yul\":4195:4215   */\n      tag_129\n        /* \"#utility.yul\":4213:4214   */\n      dup4\n        /* \"#utility.yul\":4195:4215   */\n      tag_64\n      jump\t// in\n    tag_129:\n        /* \"#utility.yul\":4190:4215   */\n      swap3\n      pop\n        /* \"#utility.yul\":4238:4239   */\n      dup3\n        /* \"#utility.yul\":4235:4236   */\n      dup3\n        /* \"#utility.yul\":4231:4240   */\n      add\n        /* \"#utility.yul\":4224:4240   */\n      swap1\n      pop\n        /* \"#utility.yul\":4259:4262   */\n      dup1\n        /* \"#utility.yul\":4256:4257   */\n      dup3\n        /* \"#utility.yul\":4253:4263   */\n      gt\n        /* \"#utility.yul\":4250:4286   */\n      iszero\n      tag_130\n      jumpi\n        /* \"#utility.yul\":4266:4284   */\n      tag_131\n      tag_79\n      jump\t// in\n    tag_131:\n        /* \"#utility.yul\":4250:4286   */\n    tag_130:\n        /* \"#utility.yul\":4102:4293   */\n      swap3\n      swap2\n      pop\n      pop\n      jump\t// out\n        /* \"#utility.yul\":4299:4631   */\n    tag_44:\n        /* \"#utility.yul\":4420:4424   */\n      0x00\n        /* \"#utility.yul\":4458:4460   */\n      0x40\n        /* \"#utility.yul\":4447:4456   */\n      dup3\n        /* \"#utility.yul\":4443:4461   */\n      add\n        /* \"#utility.yul\":4435:4461   */\n      swap1\n      pop\n        /* \"#utility.yul\":4471:4542   */\n      tag_133\n        /* \"#utility.yul\":4539:4540   */\n      0x00\n        /* \"#utility.yul\":4528:4537   */\n      dup4\n        /* \"#utility.yul\":4524:4541   */\n      add\n        /* \"#utility.yul\":4515:4521   */\n      dup6\n        /* \"#utility.yul\":4471:4542   */\n      tag_65\n      jump\t// in\n    tag_133:\n        /* \"#utility.yul\":4552:4624   */\n      tag_134\n        /* \"#utility.yul\":4620:4622   */\n      0x20\n        /* \"#utility.yul\":4609:4618   */\n      dup4\n        /* \"#utility.yul\":4605:4623   */\n      add\n        /* \"#utility.yul\":4596:4602   */\n      dup5\n        /* \"#utility.yul\":4552:4624   */\n      tag_73\n      jump\t// in\n    tag_134:\n        /* \"#utility.yul\":4299:4631   */\n      swap4\n      swap3\n      pop\n      pop\n      pop\n      jump\t// out\n        /* \"#utility.yul\":4637:4809   */\n    tag_80:\n        /* \"#utility.yul\":4777:4801   */\n      0x42616c616e6365206e6f742073756666696369656e7400000000000000000000\n        /* \"#utility.yul\":4773:4774   */\n      0x00\n        /* \"#utility.yul\":4765:4771   */\n      dup3\n        /* \"#utility.yul\":4761:4775   */\n      add\n        /* \"#utility.yul\":4754:4802   */\n      mstore\n        /* \"#utility.yul\":4637:4809   */\n      pop\n      jump\t// out\n        /* \"#utility.yul\":4815:5181   */\n    tag_81:\n        /* \"#utility.yul\":4957:4960   */\n      0x00\n        /* \"#utility.yul\":4978:5045   */\n      tag_137\n        /* \"#utility.yul\":5042:5044   */\n      0x16\n        /* \"#utility.yul\":5037:5040   */\n      dup4\n        /* \"#utility.yul\":4978:5045   */\n      tag_76\n      jump\t// in\n    tag_137:\n        /* \"#utility.yul\":4971:5045   */\n      swap2\n      pop\n        /* \"#utility.yul\":5054:5147   */\n      tag_138\n        /* \"#utility.yul\":5143:5146   */\n      dup3\n        /* \"#utility.yul\":5054:5147   */\n      tag_80\n      jump\t// in\n    tag_138:\n        /* \"#utility.yul\":5172:5174   */\n      0x20\n        /* \"#utility.yul\":5167:5170   */\n      dup3\n        /* \"#utility.yul\":5163:5175   */\n      add\n        /* \"#utility.yul\":5156:5175   */\n      swap1\n      pop\n        /* \"#utility.yul\":4815:5181   */\n      swap2\n      swap1\n      pop\n      jump\t// out\n        /* \"#utility.yul\":5187:5606   */\n    tag_48:\n        /* \"#utility.yul\":5353:5357   */\n      0x00\n        /* \"#utility.yul\":5391:5393   */\n      0x20\n        /* \"#utility.yul\":5380:5389   */\n      dup3\n        /* \"#utility.yul\":5376:5394   */\n      add\n        /* \"#utility.yul\":5368:5394   */\n      swap1\n      pop\n        /* \"#utility.yul\":5440:5449   */\n      dup2\n        /* \"#utility.yul\":5434:5438   */\n      dup2\n        /* \"#utility.yul\":5430:5450   */\n      sub\n        /* \"#utility.yul\":5426:5427   */\n      0x00\n        /* \"#utility.yul\":5415:5424   */\n      dup4\n        /* \"#utility.yul\":5411:5428   */\n      add\n        /* \"#utility.yul\":5404:5451   */\n      mstore\n        /* \"#utility.yul\":5468:5599   */\n      tag_140\n        /* \"#utility.yul\":5594:5598   */\n      dup2\n        /* \"#utility.yul\":5468:5599   */\n      tag_81\n      jump\t// in\n    tag_140:\n        /* \"#utility.yul\":5460:5599   */\n      swap1\n      pop\n        /* \"#utility.yul\":5187:5606   */\n      swap2\n      swap1\n      pop\n      jump\t// out\n        /* \"#utility.yul\":5612:5794   */\n    tag_82:\n        /* \"#utility.yul\":5752:5786   */\n      0x446f6e2774207472616e73666572206d6f6e657920746f20796f757273656c66\n        /* \"#utility.yul\":5748:5749   */\n      0x00\n        /* \"#utility.yul\":5740:5746   */\n      dup3\n        /* \"#utility.yul\":5736:5750   */\n      add\n        /* \"#utility.yul\":5729:5787   */\n      mstore\n        /* \"#utility.yul\":5612:5794   */\n      pop\n      jump\t// out\n        /* \"#utility.yul\":5800:6166   */\n    tag_83:\n        /* \"#utility.yul\":5942:5945   */\n      0x00\n        /* \"#utility.yul\":5963:6030   */\n      tag_143\n        /* \"#utility.yul\":6027:6029   */\n      0x20\n        /* \"#utility.yul\":6022:6025   */\n      dup4\n        /* \"#utility.yul\":5963:6030   */\n      tag_76\n      jump\t// in\n    tag_143:\n        /* \"#utility.yul\":5956:6030   */\n      swap2\n      pop\n        /* \"#utility.yul\":6039:6132   */\n      tag_144\n        /* \"#utility.yul\":6128:6131   */\n      dup3\n        /* \"#utility.yul\":6039:6132   */\n      tag_82\n      jump\t// in\n    tag_144:\n        /* \"#utility.yul\":6157:6159   */\n      0x20\n        /* \"#utility.yul\":6152:6155   */\n      dup3\n        /* \"#utility.yul\":6148:6160   */\n      add\n        /* \"#utility.yul\":6141:6160   */\n      swap1\n      pop\n        /* \"#utility.yul\":5800:6166   */\n      swap2\n      swap1\n      pop\n      jump\t// out\n        /* \"#utility.yul\":6172:6591   */\n    tag_51:\n        /* \"#utility.yul\":6338:6342   */\n      0x00\n        /* \"#utility.yul\":6376:6378   */\n      0x20\n        /* \"#utility.yul\":6365:6374   */\n      dup3\n        /* \"#utility.yul\":6361:6379   */\n      add\n        /* \"#utility.yul\":6353:6379   */\n      swap1\n      pop\n        /* \"#utility.yul\":6425:6434   */\n      dup2\n        /* \"#utility.yul\":6419:6423   */\n      dup2\n        /* \"#utility.yul\":6415:6435   */\n      sub\n        /* \"#utility.yul\":6411:6412   */\n      0x00\n        /* \"#utility.yul\":6400:6409   */\n      dup4\n        /* \"#utility.yul\":6396:6413   */\n      add\n        /* \"#utility.yul\":6389:6436   */\n      mstore\n        /* \"#utility.yul\":6453:6584   */\n      tag_146\n        /* \"#utility.yul\":6579:6583   */\n      dup2\n        /* \"#utility.yul\":6453:6584   */\n      tag_83\n      jump\t// in\n    tag_146:\n        /* \"#utility.yul\":6445:6584   */\n      swap1\n      pop\n        /* \"#utility.yul\":6172:6591   */\n      swap2\n      swap1\n      pop\n      jump\t// out\n        /* \"#utility.yul\":6597:6791   */\n    tag_55:\n        /* \"#utility.yul\":6637:6641   */\n      0x00\n        /* \"#utility.yul\":6657:6677   */\n      tag_148\n        /* \"#utility.yul\":6675:6676   */\n      dup3\n        /* \"#utility.yul\":6657:6677   */\n      tag_64\n      jump\t// in\n    tag_148:\n        /* \"#utility.yul\":6652:6677   */\n      swap2\n      pop\n        /* \"#utility.yul\":6691:6711   */\n      tag_149\n        /* \"#utility.yul\":6709:6710   */\n      dup4\n        /* \"#utility.yul\":6691:6711   */\n      tag_64\n      jump\t// in\n    tag_149:\n        /* \"#utility.yul\":6686:6711   */\n      swap3\n      pop\n        /* \"#utility.yul\":6735:6736   */\n      dup3\n        /* \"#utility.yul\":6732:6733   */\n      dup3\n        /* \"#utility.yul\":6728:6737   */\n      sub\n        /* \"#utility.yul\":6720:6737   */\n      swap1\n      pop\n        /* \"#utility.yul\":6759:6760   */\n      dup2\n        /* \"#utility.yul\":6753:6757   */\n      dup2\n        /* \"#utility.yul\":6750:6761   */\n      gt\n        /* \"#utility.yul\":6747:6784   */\n      iszero\n      tag_150\n      jumpi\n        /* \"#utility.yul\":6764:6782   */\n      tag_151\n      tag_79\n      jump\t// in\n    tag_151:\n        /* \"#utility.yul\":6747:6784   */\n    tag_150:\n        /* \"#utility.yul\":6597:6791   */\n      swap3\n      swap2\n      pop\n      pop\n      jump\t// out\n        /* \"#utility.yul\":6797:6977   */\n    tag_58:\n        /* \"#utility.yul\":6845:6922   */\n      0x4e487b7100000000000000000000000000000000000000000000000000000000\n        /* \"#utility.yul\":6842:6843   */\n      0x00\n        /* \"#utility.yul\":6835:6923   */\n      mstore\n        /* \"#utility.yul\":6942:6946   */\n      0x01\n        /* \"#utility.yul\":6939:6940   */\n      0x04\n        /* \"#utility.yul\":6932:6947   */\n      mstore\n        /* \"#utility.yul\":6966:6970   */\n      0x24\n        /* \"#utility.yul\":6963:6964   */\n      0x00\n        /* \"#utility.yul\":6956:6971   */\n      revert\n        /* \"#utility.yul\":6983:7393   */\n    tag_62:\n        /* \"#utility.yul\":7023:7030   */\n      0x00\n        /* \"#utility.yul\":7046:7066   */\n      tag_154\n        /* \"#utility.yul\":7064:7065   */\n      dup3\n        /* \"#utility.yul\":7046:7066   */\n      tag_64\n      jump\t// in\n    tag_154:\n        /* \"#utility.yul\":7041:7066   */\n      swap2\n      pop\n        /* \"#utility.yul\":7080:7100   */\n      tag_155\n        /* \"#utility.yul\":7098:7099   */\n      dup4\n        /* \"#utility.yul\":7080:7100   */\n      tag_64\n      jump\t// in\n    tag_155:\n        /* \"#utility.yul\":7075:7100   */\n      swap3\n      pop\n        /* \"#utility.yul\":7135:7136   */\n      dup3\n        /* \"#utility.yul\":7132:7133   */\n      dup3\n        /* \"#utility.yul\":7128:7137   */\n      mul\n        /* \"#utility.yul\":7157:7187   */\n      tag_156\n        /* \"#utility.yul\":7175:7186   */\n      dup2\n        /* \"#utility.yul\":7157:7187   */\n      tag_64\n      jump\t// in\n    tag_156:\n        /* \"#utility.yul\":7146:7187   */\n      swap2\n      pop\n        /* \"#utility.yul\":7336:7337   */\n      dup3\n        /* \"#utility.yul\":7327:7334   */\n      dup3\n        /* \"#utility.yul\":7323:7338   */\n      div\n        /* \"#utility.yul\":7320:7321   */\n      dup5\n        /* \"#utility.yul\":7317:7339   */\n      eq\n        /* \"#utility.yul\":7297:7298   */\n      dup4\n        /* \"#utility.yul\":7290:7299   */\n      iszero\n        /* \"#utility.yul\":7270:7353   */\n      or\n        /* \"#utility.yul\":7247:7386   */\n      tag_157\n      jumpi\n        /* \"#utility.yul\":7366:7384   */\n      tag_158\n      tag_79\n      jump\t// in\n    tag_158:\n        /* \"#utility.yul\":7247:7386   */\n    tag_157:\n        /* \"#utility.yul\":7031:7393   */\n      pop\n        /* \"#utility.yul\":6983:7393   */\n      swap3\n      swap2\n      pop\n      pop\n      jump\t// out\n\n    auxdata: 0xa26469706673582212200d42aa12868c0950b1c0734408ce748cf100d9c97d6d30642640ae2358110b2764736f6c63430008180033\n}\n",
				"bytecode": {
					"linkReferences": {},
					"object": "608060405234801561000f575f80fd5b50335f806101000a81548173ffffffffffffffffffffffffffffffffffffffff021916908373ffffffffffffffffffffffffffffffffffffffff160217905550610a1e8061005c5f395ff3fe608060405260043610610049575f3560e01c806312065fe01461004d5780632e1a7d4d146100775780638da5cb5b146100b3578063a50ec326146100dd578063a9059cbb146100fb575b5f80fd5b348015610058575f80fd5b50610061610123565b60405161006e9190610620565b60405180910390f35b348015610082575f80fd5b5061009d60048036038101906100989190610667565b610167565b6040516100aa9190610620565b60405180910390f35b3480156100be575f80fd5b506100c76102c8565b6040516100d491906106d1565b60405180910390f35b6100e56102eb565b6040516100f29190610620565b60405180910390f35b348015610106575f80fd5b50610121600480360381019061011c9190610714565b6103bb565b005b5f60015f3373ffffffffffffffffffffffffffffffffffffffff1673ffffffffffffffffffffffffffffffffffffffff1681526020019081526020015f2054905090565b5f805f9054906101000a900473ffffffffffffffffffffffffffffffffffffffff1673ffffffffffffffffffffffffffffffffffffffff163373ffffffffffffffffffffffffffffffffffffffff16146101f6576040517f08c379a00000000000000000000000000000000000000000000000000000000081526004016101ed906107d2565b60405180910390fd5b8160015f3373ffffffffffffffffffffffffffffffffffffffff1673ffffffffffffffffffffffffffffffffffffffff1681526020019081526020015f2054101561023f575f80fd5b3373ffffffffffffffffffffffffffffffffffffffff166108fc8390811502906040515f60405180830381858888f19350505050158015610282573d5f803e3d5ffd5b5060015f3373ffffffffffffffffffffffffffffffffffffffff1673ffffffffffffffffffffffffffffffffffffffff1681526020019081526020015f20549050919050565b5f8054906101000a900473ffffffffffffffffffffffffffffffffffffffff1681565b5f3460015f3373ffffffffffffffffffffffffffffffffffffffff1673ffffffffffffffffffffffffffffffffffffffff1681526020019081526020015f205f828254610338919061081d565b925050819055507f4d2bb476d26796d3b550300c8c6aff36645638e7406a409ec222c78de1b0ab853433604051610370929190610850565b60405180910390a160015f3373ffffffffffffffffffffffffffffffffffffffff1673ffffffffffffffffffffffffffffffffffffffff1681526020019081526020015f2054905090565b8060015f3373ffffffffffffffffffffffffffffffffffffffff1673ffffffffffffffffffffffffffffffffffffffff1681526020019081526020015f2054101561043b576040517f08c379a0000000000000000000000000000000000000000000000000000000008152600401610432906108c1565b60405180910390fd5b8173ffffffffffffffffffffffffffffffffffffffff163373ffffffffffffffffffffffffffffffffffffffff16036104a9576040517f08c379a00000000000000000000000000000000000000000000000000000000081526004016104a090610929565b60405180910390fd5b5f60015f3373ffffffffffffffffffffffffffffffffffffffff1673ffffffffffffffffffffffffffffffffffffffff1681526020019081526020015f205490506104f5338484610552565b81816105019190610947565b60015f3373ffffffffffffffffffffffffffffffffffffffff1673ffffffffffffffffffffffffffffffffffffffff1681526020019081526020015f20541461054d5761054c61097a565b5b505050565b8060015f8573ffffffffffffffffffffffffffffffffffffffff1673ffffffffffffffffffffffffffffffffffffffff1681526020019081526020015f205f82825461059e9190610947565b9250508190555080816105b191906109a7565b60015f8473ffffffffffffffffffffffffffffffffffffffff1673ffffffffffffffffffffffffffffffffffffffff1681526020019081526020015f205f8282546105fc919061081d565b92505081905550505050565b5f819050919050565b61061a81610608565b82525050565b5f6020820190506106335f830184610611565b92915050565b5f80fd5b61064681610608565b8114610650575f80fd5b50565b5f813590506106618161063d565b92915050565b5f6020828403121561067c5761067b610639565b5b5f61068984828501610653565b91505092915050565b5f73ffffffffffffffffffffffffffffffffffffffff82169050919050565b5f6106bb82610692565b9050919050565b6106cb816106b1565b82525050565b5f6020820190506106e45f8301846106c2565b92915050565b6106f3816106b1565b81146106fd575f80fd5b50565b5f8135905061070e816106ea565b92915050565b5f806040838503121561072a57610729610639565b5b5f61073785828601610700565b925050602061074885828601610653565b9150509250929050565b5f82825260208201905092915050565b7f4f6e6c79206f776e65722063616e20616464206d6f6e657920746f206163636f5f8201527f756e740000000000000000000000000000000000000000000000000000000000602082015250565b5f6107bc602383610752565b91506107c782610762565b604082019050919050565b5f6020820190508181035f8301526107e9816107b0565b9050919050565b7f4e487b71000000000000000000000000000000000000000000000000000000005f52601160045260245ffd5b5f61082782610608565b915061083283610608565b925082820190508082111561084a576108496107f0565b5b92915050565b5f6040820190506108635f830185610611565b61087060208301846106c2565b9392505050565b7f42616c616e6365206e6f742073756666696369656e74000000000000000000005f82015250565b5f6108ab601683610752565b91506108b682610877565b602082019050919050565b5f6020820190508181035f8301526108d88161089f565b9050919050565b7f446f6e2774207472616e73666572206d6f6e657920746f20796f757273656c665f82015250565b5f610913602083610752565b915061091e826108df565b602082019050919050565b5f6020820190508181035f83015261094081610907565b9050919050565b5f61095182610608565b915061095c83610608565b9250828203905081811115610974576109736107f0565b5b92915050565b7f4e487b71000000000000000000000000000000000000000000000000000000005f52600160045260245ffd5b5f6109b182610608565b91506109bc83610608565b92508282026109ca81610608565b915082820484148315176109e1576109e06107f0565b5b509291505056fea26469706673582212200d42aa12868c0950b1c0734408ce748cf100d9c97d6d30642640ae2358110b2764736f6c63430008180033",
					"opcodes": "PUSH1 0x80 PUSH1 0x40 MSTORE CALLVALUE DUP1 ISZERO PUSH2 0xF JUMPI PUSH0 DUP1 REVERT JUMPDEST POP CALLER PUSH0 DUP1 PUSH2 0x100 EXP DUP2 SLOAD DUP2 PUSH20 0xFFFFFFFFFFFFFFFFFFFFFFFFFFFFFFFFFFFFFFFF MUL NOT AND SWAP1 DUP4 PUSH20 0xFFFFFFFFFFFFFFFFFFFFFFFFFFFFFFFFFFFFFFFF AND MUL OR SWAP1 SSTORE POP PUSH2 0xA1E DUP1 PUSH2 0x5C PUSH0 CODECOPY PUSH0 RETURN INVALID PUSH1 0x80 PUSH1 0x40 MSTORE PUSH1 0x4 CALLDATASIZE LT PUSH2 0x49 JUMPI PUSH0 CALLDATALOAD PUSH1 0xE0 SHR DUP1 PUSH4 0x12065FE0 EQ PUSH2 0x4D JUMPI DUP1 PUSH4 0x2E1A7D4D EQ PUSH2 0x77 JUMPI DUP1 PUSH4 0x8DA5CB5B EQ PUSH2 0xB3 JUMPI DUP1 PUSH4 0xA50EC326 EQ PUSH2 0xDD JUMPI DUP1 PUSH4 0xA9059CBB EQ PUSH2 0xFB JUMPI JUMPDEST PUSH0 DUP1 REVERT JUMPDEST CALLVALUE DUP1 ISZERO PUSH2 0x58 JUMPI PUSH0 DUP1 REVERT JUMPDEST POP PUSH2 0x61 PUSH2 0x123 JUMP JUMPDEST PUSH1 0x40 MLOAD PUSH2 0x6E SWAP2 SWAP1 PUSH2 0x620 JUMP JUMPDEST PUSH1 0x40 MLOAD DUP1 SWAP2 SUB SWAP1 RETURN JUMPDEST CALLVALUE DUP1 ISZERO PUSH2 0x82 JUMPI PUSH0 DUP1 REVERT JUMPDEST POP PUSH2 0x9D PUSH1 0x4 DUP1 CALLDATASIZE SUB DUP2 ADD SWAP1 PUSH2 0x98 SWAP2 SWAP1 PUSH2 0x667 JUMP JUMPDEST PUSH2 0x167 JUMP JUMPDEST PUSH1 0x40 MLOAD PUSH2 0xAA SWAP2 SWAP1 PUSH2 0x620 JUMP JUMPDEST PUSH1 0x40 MLOAD DUP1 SWAP2 SUB SWAP1 RETURN JUMPDEST CALLVALUE DUP1 ISZERO PUSH2 0xBE JUMPI PUSH0 DUP1 REVERT JUMPDEST POP PUSH2 0xC7 PUSH2 0x2C8 JUMP JUMPDEST PUSH1 0x40 MLOAD PUSH2 0xD4 SWAP2 SWAP1 PUSH2 0x6D1 JUMP JUMPDEST PUSH1 0x40 MLOAD DUP1 SWAP2 SUB SWAP1 RETURN JUMPDEST PUSH2 0xE5 PUSH2 0x2EB JUMP JUMPDEST PUSH1 0x40 MLOAD PUSH2 0xF2 SWAP2 SWAP1 PUSH2 0x620 JUMP JUMPDEST PUSH1 0x40 MLOAD DUP1 SWAP2 SUB SWAP1 RETURN JUMPDEST CALLVALUE DUP1 ISZERO PUSH2 0x106 JUMPI PUSH0 DUP1 REVERT JUMPDEST POP PUSH2 0x121 PUSH1 0x4 DUP1 CALLDATASIZE SUB DUP2 ADD SWAP1 PUSH2 0x11C SWAP2 SWAP1 PUSH2 0x714 JUMP JUMPDEST PUSH2 0x3BB JUMP JUMPDEST STOP JUMPDEST PUSH0 PUSH1 0x1 PUSH0 CALLER PUSH20 0xFFFFFFFFFFFFFFFFFFFFFFFFFFFFFFFFFFFFFFFF AND PUSH20 0xFFFFFFFFFFFFFFFFFFFFFFFFFFFFFFFFFFFFFFFF AND DUP2 MSTORE PUSH1 0x20 ADD SWAP1 DUP2 MSTORE PUSH1 0x20 ADD PUSH0 KECCAK256 SLOAD SWAP1 POP SWAP1 JUMP JUMPDEST PUSH0 DUP1 PUSH0 SWAP1 SLOAD SWAP1 PUSH2 0x100 EXP SWAP1 DIV PUSH20 0xFFFFFFFFFFFFFFFFFFFFFFFFFFFFFFFFFFFFFFFF AND PUSH20 0xFFFFFFFFFFFFFFFFFFFFFFFFFFFFFFFFFFFFFFFF AND CALLER PUSH20 0xFFFFFFFFFFFFFFFFFFFFFFFFFFFFFFFFFFFFFFFF AND EQ PUSH2 0x1F6 JUMPI PUSH1 0x40 MLOAD PUSH32 0x8C379A000000000000000000000000000000000000000000000000000000000 DUP2 MSTORE PUSH1 0x4 ADD PUSH2 0x1ED SWAP1 PUSH2 0x7D2 JUMP JUMPDEST PUSH1 0x40 MLOAD DUP1 SWAP2 SUB SWAP1 REVERT JUMPDEST DUP2 PUSH1 0x1 PUSH0 CALLER PUSH20 0xFFFFFFFFFFFFFFFFFFFFFFFFFFFFFFFFFFFFFFFF AND PUSH20 0xFFFFFFFFFFFFFFFFFFFFFFFFFFFFFFFFFFFFFFFF AND DUP2 MSTORE PUSH1 0x20 ADD SWAP1 DUP2 MSTORE PUSH1 0x20 ADD PUSH0 KECCAK256 SLOAD LT ISZERO PUSH2 0x23F JUMPI PUSH0 DUP1 REVERT JUMPDEST CALLER PUSH20 0xFFFFFFFFFFFFFFFFFFFFFFFFFFFFFFFFFFFFFFFF AND PUSH2 0x8FC DUP4 SWAP1 DUP2 ISZERO MUL SWAP1 PUSH1 0x40 MLOAD PUSH0 PUSH1 0x40 MLOAD DUP1 DUP4 SUB DUP2 DUP6 DUP9 DUP9 CALL SWAP4 POP POP POP POP ISZERO DUP1 ISZERO PUSH2 0x282 JUMPI RETURNDATASIZE PUSH0 DUP1 RETURNDATACOPY RETURNDATASIZE PUSH0 REVERT JUMPDEST POP PUSH1 0x1 PUSH0 CALLER PUSH20 0xFFFFFFFFFFFFFFFFFFFFFFFFFFFFFFFFFFFFFFFF AND PUSH20 0xFFFFFFFFFFFFFFFFFFFFFFFFFFFFFFFFFFFFFFFF AND DUP2 MSTORE PUSH1 0x20 ADD SWAP1 DUP2 MSTORE PUSH1 0x20 ADD PUSH0 KECCAK256 SLOAD SWAP1 POP SWAP2 SWAP1 POP JUMP JUMPDEST PUSH0 DUP1 SLOAD SWAP1 PUSH2 0x100 EXP SWAP1 DIV PUSH20 0xFFFFFFFFFFFFFFFFFFFFFFFFFFFFFFFFFFFFFFFF AND DUP2 JUMP JUMPDEST PUSH0 CALLVALUE PUSH1 0x1 PUSH0 CALLER PUSH20 0xFFFFFFFFFFFFFFFFFFFFFFFFFFFFFFFFFFFFFFFF AND PUSH20 0xFFFFFFFFFFFFFFFFFFFFFFFFFFFFFFFFFFFFFFFF AND DUP2 MSTORE PUSH1 0x20 ADD SWAP1 DUP2 MSTORE PUSH1 0x20 ADD PUSH0 KECCAK256 PUSH0 DUP3 DUP3 SLOAD PUSH2 0x338 SWAP2 SWAP1 PUSH2 0x81D JUMP JUMPDEST SWAP3 POP POP DUP2 SWAP1 SSTORE POP PUSH32 0x4D2BB476D26796D3B550300C8C6AFF36645638E7406A409EC222C78DE1B0AB85 CALLVALUE CALLER PUSH1 0x40 MLOAD PUSH2 0x370 SWAP3 SWAP2 SWAP1 PUSH2 0x850 JUMP JUMPDEST PUSH1 0x40 MLOAD DUP1 SWAP2 SUB SWAP1 LOG1 PUSH1 0x1 PUSH0 CALLER PUSH20 0xFFFFFFFFFFFFFFFFFFFFFFFFFFFFFFFFFFFFFFFF AND PUSH20 0xFFFFFFFFFFFFFFFFFFFFFFFFFFFFFFFFFFFFFFFF AND DUP2 MSTORE PUSH1 0x20 ADD SWAP1 DUP2 MSTORE PUSH1 0x20 ADD PUSH0 KECCAK256 SLOAD SWAP1 POP SWAP1 JUMP JUMPDEST DUP1 PUSH1 0x1 PUSH0 CALLER PUSH20 0xFFFFFFFFFFFFFFFFFFFFFFFFFFFFFFFFFFFFFFFF AND PUSH20 0xFFFFFFFFFFFFFFFFFFFFFFFFFFFFFFFFFFFFFFFF AND DUP2 MSTORE PUSH1 0x20 ADD SWAP1 DUP2 MSTORE PUSH1 0x20 ADD PUSH0 KECCAK256 SLOAD LT ISZERO PUSH2 0x43B JUMPI PUSH1 0x40 MLOAD PUSH32 0x8C379A000000000000000000000000000000000000000000000000000000000 DUP2 MSTORE PUSH1 0x4 ADD PUSH2 0x432 SWAP1 PUSH2 0x8C1 JUMP JUMPDEST PUSH1 0x40 MLOAD DUP1 SWAP2 SUB SWAP1 REVERT JUMPDEST DUP2 PUSH20 0xFFFFFFFFFFFFFFFFFFFFFFFFFFFFFFFFFFFFFFFF AND CALLER PUSH20 0xFFFFFFFFFFFFFFFFFFFFFFFFFFFFFFFFFFFFFFFF AND SUB PUSH2 0x4A9 JUMPI PUSH1 0x40 MLOAD PUSH32 0x8C379A000000000000000000000000000000000000000000000000000000000 DUP2 MSTORE PUSH1 0x4 ADD PUSH2 0x4A0 SWAP1 PUSH2 0x929 JUMP JUMPDEST PUSH1 0x40 MLOAD DUP1 SWAP2 SUB SWAP1 REVERT JUMPDEST PUSH0 PUSH1 0x1 PUSH0 CALLER PUSH20 0xFFFFFFFFFFFFFFFFFFFFFFFFFFFFFFFFFFFFFFFF AND PUSH20 0xFFFFFFFFFFFFFFFFFFFFFFFFFFFFFFFFFFFFFFFF AND DUP2 MSTORE PUSH1 0x20 ADD SWAP1 DUP2 MSTORE PUSH1 0x20 ADD PUSH0 KECCAK256 SLOAD SWAP1 POP PUSH2 0x4F5 CALLER DUP5 DUP5 PUSH2 0x552 JUMP JUMPDEST DUP2 DUP2 PUSH2 0x501 SWAP2 SWAP1 PUSH2 0x947 JUMP JUMPDEST PUSH1 0x1 PUSH0 CALLER PUSH20 0xFFFFFFFFFFFFFFFFFFFFFFFFFFFFFFFFFFFFFFFF AND PUSH20 0xFFFFFFFFFFFFFFFFFFFFFFFFFFFFFFFFFFFFFFFF AND DUP2 MSTORE PUSH1 0x20 ADD SWAP1 DUP2 MSTORE PUSH1 0x20 ADD PUSH0 KECCAK256 SLOAD EQ PUSH2 0x54D JUMPI PUSH2 0x54C PUSH2 0x97A JUMP JUMPDEST JUMPDEST POP POP POP JUMP JUMPDEST DUP1 PUSH1 0x1 PUSH0 DUP6 PUSH20 0xFFFFFFFFFFFFFFFFFFFFFFFFFFFFFFFFFFFFFFFF AND PUSH20 0xFFFFFFFFFFFFFFFFFFFFFFFFFFFFFFFFFFFFFFFF AND DUP2 MSTORE PUSH1 0x20 ADD SWAP1 DUP2 MSTORE PUSH1 0x20 ADD PUSH0 KECCAK256 PUSH0 DUP3 DUP3 SLOAD PUSH2 0x59E SWAP2 SWAP1 PUSH2 0x947 JUMP JUMPDEST SWAP3 POP POP DUP2 SWAP1 SSTORE POP DUP1 DUP2 PUSH2 0x5B1 SWAP2 SWAP1 PUSH2 0x9A7 JUMP JUMPDEST PUSH1 0x1 PUSH0 DUP5 PUSH20 0xFFFFFFFFFFFFFFFFFFFFFFFFFFFFFFFFFFFFFFFF AND PUSH20 0xFFFFFFFFFFFFFFFFFFFFFFFFFFFFFFFFFFFFFFFF AND DUP2 MSTORE PUSH1 0x20 ADD SWAP1 DUP2 MSTORE PUSH1 0x20 ADD PUSH0 KECCAK256 PUSH0 DUP3 DUP3 SLOAD PUSH2 0x5FC SWAP2 SWAP1 PUSH2 0x81D JUMP JUMPDEST SWAP3 POP POP DUP2 SWAP1 SSTORE POP POP POP POP JUMP JUMPDEST PUSH0 DUP2 SWAP1 POP SWAP2 SWAP1 POP JUMP JUMPDEST PUSH2 0x61A DUP2 PUSH2 0x608 JUMP JUMPDEST DUP3 MSTORE POP POP JUMP JUMPDEST PUSH0 PUSH1 0x20 DUP3 ADD SWAP1 POP PUSH2 0x633 PUSH0 DUP4 ADD DUP5 PUSH2 0x611 JUMP JUMPDEST SWAP3 SWAP2 POP POP JUMP JUMPDEST PUSH0 DUP1 REVERT JUMPDEST PUSH2 0x646 DUP2 PUSH2 0x608 JUMP JUMPDEST DUP2 EQ PUSH2 0x650 JUMPI PUSH0 DUP1 REVERT JUMPDEST POP JUMP JUMPDEST PUSH0 DUP2 CALLDATALOAD SWAP1 POP PUSH2 0x661 DUP2 PUSH2 0x63D JUMP JUMPDEST SWAP3 SWAP2 POP POP JUMP JUMPDEST PUSH0 PUSH1 0x20 DUP3 DUP5 SUB SLT ISZERO PUSH2 0x67C JUMPI PUSH2 0x67B PUSH2 0x639 JUMP JUMPDEST JUMPDEST PUSH0 PUSH2 0x689 DUP5 DUP3 DUP6 ADD PUSH2 0x653 JUMP JUMPDEST SWAP2 POP POP SWAP3 SWAP2 POP POP JUMP JUMPDEST PUSH0 PUSH20 0xFFFFFFFFFFFFFFFFFFFFFFFFFFFFFFFFFFFFFFFF DUP3 AND SWAP1 POP SWAP2 SWAP1 POP JUMP JUMPDEST PUSH0 PUSH2 0x6BB DUP3 PUSH2 0x692 JUMP JUMPDEST SWAP1 POP SWAP2 SWAP1 POP JUMP JUMPDEST PUSH2 0x6CB DUP2 PUSH2 0x6B1 JUMP JUMPDEST DUP3 MSTORE POP POP JUMP JUMPDEST PUSH0 PUSH1 0x20 DUP3 ADD SWAP1 POP PUSH2 0x6E4 PUSH0 DUP4 ADD DUP5 PUSH2 0x6C2 JUMP JUMPDEST SWAP3 SWAP2 POP POP JUMP JUMPDEST PUSH2 0x6F3 DUP2 PUSH2 0x6B1 JUMP JUMPDEST DUP2 EQ PUSH2 0x6FD JUMPI PUSH0 DUP1 REVERT JUMPDEST POP JUMP JUMPDEST PUSH0 DUP2 CALLDATALOAD SWAP1 POP PUSH2 0x70E DUP2 PUSH2 0x6EA JUMP JUMPDEST SWAP3 SWAP2 POP POP JUMP JUMPDEST PUSH0 DUP1 PUSH1 0x40 DUP4 DUP6 SUB SLT ISZERO PUSH2 0x72A JUMPI PUSH2 0x729 PUSH2 0x639 JUMP JUMPDEST JUMPDEST PUSH0 PUSH2 0x737 DUP6 DUP3 DUP7 ADD PUSH2 0x700 JUMP JUMPDEST SWAP3 POP POP PUSH1 0x20 PUSH2 0x748 DUP6 DUP3 DUP7 ADD PUSH2 0x653 JUMP JUMPDEST SWAP2 POP POP SWAP3 POP SWAP3 SWAP1 POP JUMP JUMPDEST PUSH0 DUP3 DUP3 MSTORE PUSH1 0x20 DUP3 ADD SWAP1 POP SWAP3 SWAP2 POP POP JUMP JUMPDEST PUSH32 0x4F6E6C79206F776E65722063616E20616464206D6F6E657920746F206163636F PUSH0 DUP3 ADD MSTORE PUSH32 0x756E740000000000000000000000000000000000000000000000000000000000 PUSH1 0x20 DUP3 ADD MSTORE POP JUMP JUMPDEST PUSH0 PUSH2 0x7BC PUSH1 0x23 DUP4 PUSH2 0x752 JUMP JUMPDEST SWAP2 POP PUSH2 0x7C7 DUP3 PUSH2 0x762 JUMP JUMPDEST PUSH1 0x40 DUP3 ADD SWAP1 POP SWAP2 SWAP1 POP JUMP JUMPDEST PUSH0 PUSH1 0x20 DUP3 ADD SWAP1 POP DUP2 DUP2 SUB PUSH0 DUP4 ADD MSTORE PUSH2 0x7E9 DUP2 PUSH2 0x7B0 JUMP JUMPDEST SWAP1 POP SWAP2 SWAP1 POP JUMP JUMPDEST PUSH32 0x4E487B7100000000000000000000000000000000000000000000000000000000 PUSH0 MSTORE PUSH1 0x11 PUSH1 0x4 MSTORE PUSH1 0x24 PUSH0 REVERT JUMPDEST PUSH0 PUSH2 0x827 DUP3 PUSH2 0x608 JUMP JUMPDEST SWAP2 POP PUSH2 0x832 DUP4 PUSH2 0x608 JUMP JUMPDEST SWAP3 POP DUP3 DUP3 ADD SWAP1 POP DUP1 DUP3 GT ISZERO PUSH2 0x84A JUMPI PUSH2 0x849 PUSH2 0x7F0 JUMP JUMPDEST JUMPDEST SWAP3 SWAP2 POP POP JUMP JUMPDEST PUSH0 PUSH1 0x40 DUP3 ADD SWAP1 POP PUSH2 0x863 PUSH0 DUP4 ADD DUP6 PUSH2 0x611 JUMP JUMPDEST PUSH2 0x870 PUSH1 0x20 DUP4 ADD DUP5 PUSH2 0x6C2 JUMP JUMPDEST SWAP4 SWAP3 POP POP POP JUMP JUMPDEST PUSH32 0x42616C616E6365206E6F742073756666696369656E7400000000000000000000 PUSH0 DUP3 ADD MSTORE POP JUMP JUMPDEST PUSH0 PUSH2 0x8AB PUSH1 0x16 DUP4 PUSH2 0x752 JUMP JUMPDEST SWAP2 POP PUSH2 0x8B6 DUP3 PUSH2 0x877 JUMP JUMPDEST PUSH1 0x20 DUP3 ADD SWAP1 POP SWAP2 SWAP1 POP JUMP JUMPDEST PUSH0 PUSH1 0x20 DUP3 ADD SWAP1 POP DUP2 DUP2 SUB PUSH0 DUP4 ADD MSTORE PUSH2 0x8D8 DUP2 PUSH2 0x89F JUMP JUMPDEST SWAP1 POP SWAP2 SWAP1 POP JUMP JUMPDEST PUSH32 0x446F6E2774207472616E73666572206D6F6E657920746F20796F757273656C66 PUSH0 DUP3 ADD MSTORE POP JUMP JUMPDEST PUSH0 PUSH2 0x913 PUSH1 0x20 DUP4 PUSH2 0x752 JUMP JUMPDEST SWAP2 POP PUSH2 0x91E DUP3 PUSH2 0x8DF JUMP JUMPDEST PUSH1 0x20 DUP3 ADD SWAP1 POP SWAP2 SWAP1 POP JUMP JUMPDEST PUSH0 PUSH1 0x20 DUP3 ADD SWAP1 POP DUP2 DUP2 SUB PUSH0 DUP4 ADD MSTORE PUSH2 0x940 DUP2 PUSH2 0x907 JUMP JUMPDEST SWAP1 POP SWAP2 SWAP1 POP JUMP JUMPDEST PUSH0 PUSH2 0x951 DUP3 PUSH2 0x608 JUMP JUMPDEST SWAP2 POP PUSH2 0x95C DUP4 PUSH2 0x608 JUMP JUMPDEST SWAP3 POP DUP3 DUP3 SUB SWAP1 POP DUP2 DUP2 GT ISZERO PUSH2 0x974 JUMPI PUSH2 0x973 PUSH2 0x7F0 JUMP JUMPDEST JUMPDEST SWAP3 SWAP2 POP POP JUMP JUMPDEST PUSH32 0x4E487B7100000000000000000000000000000000000000000000000000000000 PUSH0 MSTORE PUSH1 0x1 PUSH1 0x4 MSTORE PUSH1 0x24 PUSH0 REVERT JUMPDEST PUSH0 PUSH2 0x9B1 DUP3 PUSH2 0x608 JUMP JUMPDEST SWAP2 POP PUSH2 0x9BC DUP4 PUSH2 0x608 JUMP JUMPDEST SWAP3 POP DUP3 DUP3 MUL PUSH2 0x9CA DUP2 PUSH2 0x608 JUMP JUMPDEST SWAP2 POP DUP3 DUP3 DIV DUP5 EQ DUP4 ISZERO OR PUSH2 0x9E1 JUMPI PUSH2 0x9E0 PUSH2 0x7F0 JUMP JUMPDEST JUMPDEST POP SWAP3 SWAP2 POP POP JUMP INVALID LOG2 PUSH5 0x6970667358 0x22 SLT KECCAK256 0xD TIMESTAMP 0xAA SLT DUP7 DUP13 MULMOD POP 0xB1 0xC0 PUSH20 0x4408CE748CF100D9C97D6D30642640AE2358110B 0x27 PUSH5 0x736F6C6343 STOP ADDMOD XOR STOP CALLER "
				},
				"gasEstimates": {
					"creation": {
						"codeDepositCost": "518000",
						"executionCost": "24812",
						"totalCost": "542812"
					},
					"external": {
						"deposite()": "infinite",
						"getBalance()": "2497",
						"owner()": "2527",
						"transfer(address,uint256)": "infinite",
						"withdraw(uint256)": "infinite"
					},
					"internal": {
						"_transfer(address,address,uint256)": "infinite"
					}
				},
				"methodIdentifiers": {
					"deposite()": "a50ec326",
					"getBalance()": "12065fe0",
					"owner()": "8da5cb5b",
					"transfer(address,uint256)": "a9059cbb",
					"withdraw(uint256)": "2e1a7d4d"
				}
			},
			"storageLayout": {
				"storage": [
					{
						"astId": 3,
						"contract": "tutorial/payable_func.sol:Payable",
						"label": "owner",
						"offset": 0,
						"slot": "0",
						"type": "t_address"
					},
					{
						"astId": 34,
						"contract": "tutorial/payable_func.sol:Payable",
						"label": "balance",
						"offset": 0,
						"slot": "1",
						"type": "t_mapping(t_address,t_uint256)"
					}
				],
				"types": {
					"t_address": {
						"encoding": "inplace",
						"label": "address",
						"numberOfBytes": "20"
					},
					"t_mapping(t_address,t_uint256)": {
						"encoding": "mapping",
						"key": "t_address",
						"label": "mapping(address => uint256)",
						"numberOfBytes": "32",
						"value": "t_uint256"
					},
					"t_uint256": {
						"encoding": "inplace",
						"label": "uint256",
						"numberOfBytes": "32"
					}
				}
			},
			"userdoc": {
				"kind": "user",
				"methods": {},
				"version": 1
			}
		}
	}
}